:020000040800F2
:100000005002002001010008050100080701000856
:10001000090100080B0100080D01000800000000A4
:100020000000000000000000000000000F010008B8
:10003000110100080000000013010008150100086C
:10004000FF230008012400080324000805240008F9
:1000500007240008092400080B2400080D240008C8
:100060000F240008112400081324000817010008B9
:100070001701000817010008170100081701000800
:1000800017010008170100081701000825240008BF
:1000900027240008292400082B2400082D24000808
:1000A0002F240008312400083324000835240008D8
:1000B00037240008592400089524000897240008D4
:1000C000992400089B2400089D2400089F24000810
:1000D000A1240008A3240008A5240008A7240008E0
:1000E000A9240008AB240008AD240008DFF80CD0D8
:1000F00002F0B4FF00480047932600085002002099
:1001000005480047FEE7FEE7FEE7FEE7FEE7FEE7FD
:10011000FEE7FEE7FEE7FEE7ED00000810B5044647
:10012000C149601A8C422FD009DCC048201810D079
:10013000B0F5806F16D0B0F5006F4AD11BE0B0F576
:10014000806F2AD0B0F5006F30D0B0F5406F40D14D
:1001500035E00121042000F0EDFA0021042000F038
:10016000E9FA37E00121082000F0E4FA0021082034
:1001700000F0E0FA2EE00121102000F0DBFA00216F
:10018000102000F0D7FA25E00121202000F0D2FA5B
:100190000021202000F0CEFA1CE00121402000F0D8
:1001A000C9FA0021402000F0C5FA13E001218020A7
:1001B00000F0C0FA0021802000F0BCFA0AE0012122
:1001C000080200F0B7FA00214FF4807000F0B2FA94
:1001D00000E000BF00BF10BD10B50121084600F0CF
:1001E000A9FA0021012000F0A5FA10BDF0B5002207
:1001F0000023002400250026002791F803C00CF0FE
:100200000F0291F803C01CF0100F03D091F802C048
:100210004CEA0202B1F800C01CF0FF0F31D00668B2
:1002200000242BE04FF0010C0CFA04F5B1F800C0EB
:100230000CEA0503AB4220D1A5004FF00F0C0CFADD
:1002400005F7BE4302FA05FC4CEA060691F803C026
:10025000BCF1280F06D14FF0010C0CFA04FCC0F8D9
:1002600014C00AE091F803C0BCF1480F05D14FF06B
:10027000010C0CFA04FCC0F810C0641C082CD1D38B
:100280000660B1F800C0BCF1FF0F34DD4668002401
:100290002EE004F1080C4FF0010E0EFA0CF5B1F847
:1002A00000C00CEA0503AB4221D1A5004FF00F0CB2
:1002B0000CFA05F7BE4302FA05FC4CEA060691F873
:1002C00003C0BCF1280F05D104F1080C0EFA0CFE96
:1002D000C0F814E091F803C0BCF1480F07D104F155
:1002E000080C4FF0010E0EFA0CFEC0F810E0641C72
:1002F000082CCED34660F0BD4FF6FF71018002217D
:1003000081700421C17070470246002093680B423F
:1003100001D0012000E0002070470146886880B2CB
:10032000704702460020D3680B4201D0012000E054
:10033000002070470146C86880B27047016170476D
:10034000416170470AB1016100E041617047C160DD
:1003500070474FF480320A43826181618261826911
:10036000826970470022324B1A684FF680731A4038
:1003700042EA00120A432E4B1A6070472D49C861A9
:100380007047F0B50022002300250024284E756830
:10039000C0F3034482B200F44016B6F5401F08D102
:1003A00025F07065224E766826F07066204F7E60DC
:1003B00012E000F48016B6F5801F06D1032606FA77
:1003C00004F39D4345F0706506E0460D360102FAE0
:1003D00006F6B54345F0706521B1460D360102FAC7
:1003E00006F63543124E7560F0BD30B500228B071E
:1003F0001C0F0F2303FA04F20D4B08338C1053F833
:10040000244094438D1043F825408C1053F8243039
:100410008C07240F00FA04F42343054C08348D1094
:1004200044F8253030BD00000014014000F8FEBF44
:100430000000014000002042DA48006840F001005E
:10044000D849086008464068D7490840D5494860FF
:1004500008460068D5490840D24908600846006847
:1004600020F4802008600846406820F4FE004860C0
:10047000002088607047CB49096821F48031C94A5F
:1004800011601146096821F480211160B0F5803FA8
:1004900003D0B0F5802F0ED106E0C249096841F4BF
:1004A0008031C04A116007E0BE49096841F4A021CB
:1004B000BC4A116000E000BF00BF704710B50146A4
:1004C0000022002300204A11012A02D1B54C2368E2
:1004D00006E0022A02D1B34C236A01E0B14C636A00
:1004E00001F01F02012494401C4201D0012000E0D1
:1004F000002010BD70B500240025002600BF31206B
:10050000FFF7DCFF0646641C16B9B4F5A06FF6D100
:100510003120FFF7D3FF08B1012500E00025284670
:1005200070BD00219F4A116821F0F80141EAC00125
:10053000116070479E49086070470022994B5A68C5
:1005400022F47C1240EA01031A43964B5A6070472A
:100550009749086670470021924A516821F00301CB
:100560000143516070478F48406800F00C007047AD
:1005700000218C4A516821F0F0010143516070471D
:100580000021884A516821F4E061014351607047BD
:100590000021844A516821F4605141EAC001516050
:1005A000704729B17F4A527A02437E4B5A7206E065
:1005B0007C4A527AC343DBB21A407A4B5A72704774
:1005C0007B49D831086070470021764A516821F490
:1005D00040410143516070470021724A203211703E
:1005E000704A82F82010012802D004280AD104E0C1
:1005F00001216C4A2032117005E00521694A203240
:10060000117000E000BF00BF70476A490860704782
:100610006449096A0143634A116270476549443974
:100620000860704730B500210022002300245D4D92
:100630006D6805F00C0121B1042905D0082923D1EA
:1006400005E05D4D056022E05B4D05601FE0554D06
:100650006D6805F47012022505EB9242514D6D68EC
:1006600005F480331BB9554D554305600BE04D4DE6
:100670006D6815F4003F03D0504D5543056002E00E
:100680004D4D5543056002E04B4D056000BF00BF76
:10069000444D6D6805F0F0010909494D6C5C056831
:1006A000E54045603F4D6D6805F4E061090A444D41
:1006B0006C5C4568E54085603A4D6D6805F46051B5
:1006C000C90A3F4D6C5C4568E540C560354D6D68B5
:1006D00005F44041890B3A4D10356C5CC568B5FB9B
:1006E000F4F5056130BD29B12E4A526902432D4B04
:1006F0005A6104E02B4A526982432A4B5A6170477F
:1007000029B1284A92690243264B9A6104E0254A9E
:1007100092698243234B9A61704729B1214AD26979
:100720000243204BDA6104E01E4AD26982431D4B2A
:10073000DA61704729B11B4AD2680243194BDA606B
:1007400004E0184AD2688243164BDA60704729B138
:10075000144A12690243134B1A6104E0114A1269E8
:100760008243104B1A617047124940390860704744
:100770000F49C86470470B49C87170470948406AFF
:1007800040F0807007494862704701460020054AE2
:1007900092680A4201D0012000E000207047014920
:1007A00088727047001002400000FFF8FFFFF6FE5D
:1007B000000042428004424200127A0000093D00DB
:1007C0009E300008FC49096801F03801FA4A1160BE
:1007D00011460968014311607047F749096821F023
:1007E0000801F54A1160114609680143116070471C
:1007F000F149096821F01001EF4A116011460968BA
:10080000014311607047ED48EB494860EC4848608F
:100810007047E948006940F08000E7490861704787
:100820000420E549C96801F00101012901D1012035
:100830000EE0E149C96811F0040F01D0022007E081
:10084000DD49C96811F0100F01D0032000E0042039
:1008500070470020FF2000E0401E0028FCD17047B8
:1008600070B504460425FFF7DBFF054605E0FFF7FA
:10087000F0FFFFF7D5FF0546641E012D01D1002CC6
:10088000F5D104B90525284670BD70B50446042588
:1008900040F6FF70FFF7E4FF0546042D19D1C64866
:1008A000006940F00200C4490861084644610069DB
:1008B00040F04000086140F6FF70FFF7D1FF0546A9
:1008C000012D06D0BC48006941F6FD710840BA49C7
:1008D0000861284670BD10B5042440F6FF70FFF78C
:1008E000BFFF0446042C18D1B348006940F004004F
:1008F000B14908610846006940F04000086140F6CF
:10090000FF70FFF7ADFF0446012C06D0AA4800692E
:1009100041F6FB710840A8490861204610BD10B59A
:10092000042440F6FF70FFF79BFF0446042C3BD1E4
:10093000A248A1498860A24888600846006940F042
:10094000200008610846006940F04000086140F658
:10095000FF70FFF785FF0446042C1CD19648006900
:1009600041F6DF710840944908610846006940F08B
:1009700010000861A520934908800F20FFF770FF41
:100980000446012C10D08C48006941F6EF710840F4
:100990008949086108E0012C06D08748006941F6C2
:1009A000EF71084084490861204610BD70B50446C7
:1009B0000D4604260F20FFF753FF0646042E25D1CF
:1009C0007D48006940F001007B49086125800F20C7
:1009D000FFF746FF0646042E0FD1280C60800F203B
:1009E000FFF73EFF0646012E10D07348006941F61E
:1009F000FE7108407049086108E0012E06D06E487B
:100A0000006941F6FE7108406B490861304670BDCF
:100A100070B504460D4604260F20FFF721FF064659
:100A2000042E13D16448006940F001006249086156
:100A300025800F20FFF714FF0646012E06D05E48E2
:100A4000006941F6FE7108405B490861304670BD9F
:100A500070B504460D4604260F20FFF701FF064639
:100A6000042E17D155485449886055488860084677
:100A7000006940F01000086125800F20FFF7F0FEAC
:100A80000646012E06D04C48006941F6EF71084039
:100A900049490861304670BD2DE9F04704464FF6DC
:100AA000FF752E462F46A8464FF00409E443E5B2F1
:100AB000C4F30726C4F307474FEA14680F20FFF773
:100AC000CFFE8146B9F1040F41D13C483A498860D4
:100AD0003B4888600846006940F010000861FF2D1F
:100AE00006D03848083005800F20FFF7B9FE814650
:100AF000B9F1040F08D1FF2E06D032480A30068023
:100B00000F20FFF7ADFE8146B9F1040F08D1FF2F8A
:100B100006D02C480C3007800F20FFF7A1FE81463D
:100B2000B9F1040F09D1B8F1FF0F06D02648A0F89B
:100B30000E880F20FFF794FE8146B9F1010F06D011
:100B40001D48006941F6EF7108401B49086148469D
:100B5000BDE8F08770B50446042540F6FF70FFF746
:100B60007FFE0546042D4CD1144813498860144873
:100B700088600846006940F0200008610846006966
:100B800040F04000086140F6FF70FFF769FE05463F
:100B9000042D2DD10848006941F6DF71084006494F
:100BA00008610846006940F01000086174B1002037
:100BB000044908800DE00000002002402301674541
:100BC000AB89EFCD00F8FF1F00F0FF1FA5204549BE
:100BD000088040F6FF70FFF743FE0546012D10D058
:100BE0004148006941F6EF7108403F49086108E05B
:100BF000012D06D03C48006941F6DF7108403A49B2
:100C00000861284670BD2DE9F04104460D461646A0
:100C10000427364834498860354888600F20FFF73C
:100C20001FFE0746042F1AD12F48006940F010001C
:100C30002D49086144EA0500304340F0F800294995
:100C4000891C08800F20FFF70BFE0746012F06D0F6
:100C50002548006941F6EF7108402349086138468C
:100C6000BDE8F0812048C069800870471E48006ACE
:100C7000704700201C49C96911F0020F01D0012002
:100C800000E00020704700201749096811F0200F8C
:100C900001D0012000E00020704729B1124A1269FA
:100CA0000243114B1A6104E00F4A126982430E4B52
:100CB0001A61704701460020012908D10A4AD26909
:100CC00012F0010F01D0012008E0002006E0064AE2
:100CD000D2680A4201D0012000E00020704702499A
:100CE000C860704700F8FF1F0020024023016745DD
:100CF000AB89EFCD10B50446D749601A8C422BD092
:100D000006DCD648201813D0B0F5806F38D119E032
:100D1000B0F5806F2AD0B0F56C4F31D10121880336
:100D2000FFF708FD00214FF48040FFF703FD28E0A6
:100D300001214804FFF70BFD00214FF40030FFF7BD
:100D400006FD1EE001218804FFF701FD00214FF49C
:100D50008020FFF7FCFC14E00121C804FFF7F7FC3A
:100D600000214FF40020FFF7F2FC0AE00121080502
:100D7000FFF7EDFC00214FF48010FFF7E8FC00E0E6
:100D800000BF00BF10BD2DE9F04786B004460D46F8
:100D90000026002700BF00BFB246A246268A4CF6B6
:100DA000FF700640E88806432682A6894EF6F310B7
:100DB0000640A88829890843698908430643A68113
:100DC000A68A4FF6FF400640A8890643A68201A8DE
:100DD000FFF728FC5446A248824501D1049F00E059
:100DE000039F07EBC70000EB071029688900B0FBE1
:100DF000F1F86420B8FBF0F006013009642101FB32
:100E00001089322101EB09106421B0FBF1F000F0F0
:100E10000F000643268106B0BDE8F0874FF4165157
:100E2000016000218180C18001810C21418100216C
:100E30008181704710B50022028A4FF2FF031A40E9
:100E40000B884C8823438C882343CC8823431A4344
:100E5000028210BD0021018041808180C1807047E5
:100E600021B1828942F40052828104E082894DF6E8
:100E7000FF731A4082817047F0B5002400250026D8
:100E800000230346C1F3421401F01F05012707FAAE
:100E900005F6012C01D10C3304E0022C01D11033F2
:100EA00000E014331AB11F6837431F6002E01F6867
:100EB000B7431F60F0BD10B51AB1838A0B4383821C
:100EC00004E0838ACC43A4B22340838210BD028A0B
:100ED0004FF6F0731A400282028A0A430282704778
:100EE00082894FF2FF731A40828182890A4382818C
:100EF000704721B1828942F00202828104E0828936
:100F00004FF6FD731A4082817047028A4FF6DF73F5
:100F10001A400282028A0A430282704721B1028A81
:100F200042F48042028204E0028A4BF6FF731A40C8
:100F300002827047C1F308028280704701468888A8
:100F4000C0F308007047818941F001018181704739
:100F5000028BD2B20283028B42EA012202837047E3
:100F6000028B02F47F420283028B0A4302837047A2
:100F700021B1828A42F02002828204E0828A4FF606
:100F8000DF731A408282704721B1828A42F01002D8
:100F9000828204E0828A4FF6EF731A4082827047A1
:100FA00021B1828A42F00802828204E0828A4FF6EE
:100FB000F7731A4082827047828A4FF6FB731A4099
:100FC0008282828A0A438282704721B1828A42F0F9
:100FD0000202828204E0828A4FF6FD731A40828206
:100FE00070470246002013880B4201D0012000E028
:100FF00000207047CA430280704770B50246002344
:10100000002400250020C1F3421501F01F04012631
:1010100006FA04F4012D02D19689344006E0022D2F
:1010200002D1168A344001E0968A34400B12012620
:1010300006FA03F31688334014B10BB1012000E027
:10104000002070BD10B5002200230A120124944034
:10105000A3B2DC43048010BD004C004000BCFFBFC5
:10106000003801400020411EE84A11600A09E749A2
:101070008039C1F88420411E4FF0E022C2F880126E
:101080000A09E3490A6000BF04E00022E14941F88F
:101090002020401C0F28F8D3704700204FF020611B
:1010A000DD4A116000214FF0E022C2F8081DDB4943
:1010B000D94A083211600021121D1160121D116001
:1010C00000BF05E00022D449143141F82020401C23
:1010D0000328F7D30021D04A20321160491E4FF077
:1010E000E022C2F8281DCC4A283211604FF0E022DD
:1010F000C2F8301D7047C9490143C74A0832116020
:101100007047F0B500210022002300240F25C67887
:10111000002E36D0C04E0836366806F4E066C6F5B6
:10112000E066310AC1F10404CD40467806FA04F1C4
:1011300086782E40314309010678B607F60EB14095
:10114000B44E0778BF1056F827200678B607F70E7A
:10115000FF2606FA07F39A4319400A43AD4E077873
:10116000BF1046F82720067806F01F070126BE406C
:1011700007787F114FF0E02C0CEB8707C7F8006170
:101180000BE0067806F01F060127B7409F4E90F847
:1011900000C04FEA6C1C46F82C70F0BD00210170B5
:1011A00041708170C17070477047704770477047D9
:1011B000704799480068C0F30930704710B5014680
:1011C0000020002201F01F04012303FA04F28F4BD8
:1011D00080334C1153F824301340934201D1012045
:1011E00000E0002010BD8E490860704700F01F012C
:1011F00001228A408649091F431141F82320704784
:1012000085480068C0F30900704710B5014600200A
:10121000002201F01F04012303FA04F27C4B7C330B
:101220004C1153F824301340934201D1012000E0C7
:10123000002010BD7848001F00687047794A0A40B6
:101240000243754B1B1D1A6070477448001D72499C
:101250000831086070477148401C6F4908310860C8
:10126000704741B16C4A0C32126802434FF0E023E0
:10127000C3F8102D07E0684A0C32126882434FF021
:10128000E023C3F8102D704710B5002200F01F04B2
:10129000012303FA04F241B15F4B20331B6813436F
:1012A0004FF0E024C4F8243D07E05B4B20331B687B
:1012B00093434FF0E024C4F8243D10BDF0B5002363
:1012C000FF2400250026544F08373F6807F4E067E5
:1012D000C7F5E0673E0AC6F10403F44001FA03F6DD
:1012E00002EA04073E43360100F0C0039B09C0F345
:1012F0000124E700BE404FEAC40CFF2707FA0CF5B3
:10130000454F143757F823C02CEA050C47F823C083
:1013100057F823C04CEA060C47F823C0F0BD10B5BF
:1013200001460020002200238B0A03F00F03012452
:1013300004FA03F3384C2034246804EA03029A4286
:1013400001D1012000E0002010BD002100F01F01AC
:10135000314A136801228A4013434FF0E022C2F859
:10136000043D704710B5002100F01F012A4A1368A0
:101370004C1E0122A24013434FF0E022C2F8043D6C
:1013800010BD10B50146002000230022C1F38332B6
:10139000012404FA02F2204C2034246804EA0203F7
:1013A000934201D1012000E0002010BD30B501467C
:1013B000002000220023C1F38142C1F301531AB976
:1013C000154C2834206811E0012A0CD1124C243429
:1013D0002468DD0024FA05F0022B02D000F00F0093
:1013E00004E0C0B202E00C4C2C34206830BD014651
:1013F00000200022C1F380521AB9074B303318681D
:1014000002E0054B343318687047000080E100E0CB
:1014100084E200E000E400E004ED00E00000FA05F2
:1014200000EF00E080FFFF1F10B50446F849601A86
:101430008C4245D00CDCB4F1804F1DD0F54820180B
:1014400023D0B0F5806F29D0B0F5006F54D12EE0D5
:10145000B0F5806F3DD0B0F58E3F03D0B0F5923F30
:101460004AD13FE00121C802FFF764F900214FF49F
:101470000060FFF75FF940E001210846FFF767F9D8
:1014800000210120FFF763F937E001210220FFF777
:101490005EF900210220FFF75AF92EE00121042015
:1014A000FFF755F900210420FFF751F925E001214C
:1014B0000820FFF74CF900210820FFF748F91CE04D
:1014C00001211020FFF743F900211020FFF73FF919
:1014D00013E001212020FFF73AF900212020FFF737
:1014E00036F90AE001214803FFF724F900214FF4FF
:1014F0000050FFF71FF900E000BF00BF10BD0288D9
:1015000002F08F020280CA884B881A4303881A436C
:1015100002808A8882850A88028501228282BE4AE8
:10152000904202D0BD4A904201D10A7A02867047A9
:1015300070B5002200230024058C4FF6FE7635405E
:101540000584038C8488028B4FF68F752A400D88A2
:101550002A43751E2B400D892B434D882B43CD8884
:101560008586AD4DA84202D0AC4DA84213D14FF6AE
:10157000F7752B404D892B434FF6FB752B408D881B
:101580002B4347F6FF652C4047F6FF552C408D89CD
:101590002C43CD892C4384800283038470BD70B5B5
:1015A000002200230024058C4FF6EF763540058499
:1015B000038C8488028B48F6FF752A400D882D061F
:1015C00042EA15424FF6DF752B400D892D0543EA9F
:1015D00015434D882D0543EA1543CD8805878E4D6B
:1015E000A84202D08D4DA8421BD14FF67F752B40EB
:1015F0004D892D0543EA15434FF6BF752B408D8865
:101600002D0543EA154347F6FF352C4047F2FF7599
:101610002C408D89AD0444EA1544CD89AD0444EADB
:10162000154484800283038470BD70B500220023BA
:101630000024058C4FF6FF6635400584038C8488B2
:10164000828B4FF68F752A400D882A434FF6FF553F
:101650002B400D892D0643EA15434D882D0643EA9C
:101660001543CD8885876C4DA84202D06B4DA842AA
:101670001BD14FF2FF752B404D892D0643EA1543D0
:101680004FF6FF352B408D882D0643EA154346F66D
:10169000FF752C4045F6FF752C408D892D0544EAD9
:1016A0001544CD892D0544EA154484808283038442
:1016B00070BD70B5002200230024058C4EF6FF7625
:1016C00035400584038C8488828B48F6FF752A4058
:1016D0000D882D0642EA15424DF6FF752B400D8907
:1016E0002D0743EA15434D882D0743EA1543CD885E
:1016F000A0F84050484DA84202D0484DA84205D11C
:10170000C4F30D048D89AD0544EA154484808283B9
:10171000038470BD828B4FF2FF331A408283828B29
:101720000B0642EA134282837047F0B5002400257D
:101730000026078C4EF6FF7C07EA0C070784848B93
:10174000058C0F073E0C40F6FF473C4017063F0C48
:101750004FEA037C47EA1C473C434DF6FF773D4088
:1017600046F480573D4384830584F0BD828B4FF659
:10177000F3731A408283828B0A4382837047F0B5E9
:10178000002400250026078C4FF6FF6C07EA0C07A3
:101790000784848B058C0F063E0C4FF60C773C407B
:1017A0001F0542EA17473C434FF6FF573D4046F4BA
:1017B00080773D4384830584F0BD028B4FF2FF3375
:1017C0001A400283028B0B0642EA134202837047DF
:1017D000F0B5002400250026078C4FF6EF7C07EAC1
:1017E0000C070784048B058C0F053E0C40F6FF4761
:1017F0003C401F0744EA1744170644EA17444FF6D3
:10180000DF773D4046F010073D4304830584F0BD7B
:101810000010004000FCFFBF002C014000340140DC
:10182000028B4FF6F3731A400283028B0A43028342
:101830007047F0B500240025068C4FF6FE773E4039
:101840000684048B058C4FF60C7634401E0542EA64
:10185000164634437E1E354041F00106354304836D
:101860000584F0BD70B504460D46288850B92B8913
:10187000AA8869882046FFF7DCFFE9882046FFF741
:10188000CFFF25E0288804280AD12B89AA886988F7
:101890002046FFF79DFFE9882046FFF78EFF17E0FF
:1018A000288808280AD12B89AA8869882046FFF74A
:1018B00066FFE9882046FFF759FF09E02B89AA88CF
:1018C00069882046FFF731FFE9882046FFF722FFAD
:1018D00070BD2DE9F04104460D46002601276888B9
:1018E00008B9022600E00026A888012801D10227B5
:1018F00000E001272888A0B92B89AA88698820469A
:10190000FFF797FFE9882046FFF78AFF2B893A46C1
:1019100031462046FFF75CFFE9882046FFF74DFF80
:1019200013E02B89AA8869882046FFF751FFE988D0
:101930002046FFF742FF2B893A4631462046FFF703
:1019400078FFE9882046FFF76BFFBDE8F0810A8841
:101950004B881A438B881A43CB881A430B891A4346
:101960004B891A438B891A43A0F8442070474FF6DD
:10197000FF71818000210180C18041800172704728
:101980000021018041808180C1800181418181816C
:10199000C1817047002101804180012181800021A7
:1019A000C180018170470021018041808180C18018
:1019B000018141818181704721B1028842F0010299
:1019C000028004E0028840F2FE331A400280704731
:1019D00031B1B0F8442042F40042A0F8442005E0C0
:1019E000B0F84420C2F30E02A0F84420704710B5AE
:1019F0001AB183890B43838104E08389CC43A4B269
:101A00002340838110BD8182704741EA0203A0F820
:101A10004830704710B51AB183890B43838104E0C5
:101A20008389CC43A4B22340838110BD01894FF642
:101A3000F872114001817047002202894FF68F73BE
:101A40001A400A430281704730B504460D462946C4
:101A50002046FFF7F1FF208940F00700208130BDCC
:101A60002DE9F04104460D4616461F46602D06D16D
:101A70003B46012231462046FFF7AAFE05E03B46E1
:101A8000012231462046FFF7D4FE29462046FFF7C3
:101A9000D3FF208940F007002081BDE8F08170B5B8
:101AA00000240489E4B241EA02051E0645EA16450F
:101AB0002C43048170BD2DE9F04104460D461646C5
:101AC000984600274346324629462046FFF7E7FF5F
:101AD00027894FF6F870074047F007074FF68F70D9
:101AE000074047F070072781BDE8F081F0B5044654
:101AF0000D4616461F463B46324629462046FFF70E
:101B0000CEFF208940F480402081F0BD0185828293
:101B100070470022028840F28F331A400A43028045
:101B20007047F0B50024002500260489058B068C3B
:101B30004FF6F8773C400C434FF6FC473D4040F2EF
:101B400001173D434FF6DD773E401F0542EA174738
:101B50003E43048105830684F0BD0022028B4FF6CC
:101B60008F731A400A43028370470022028B48F6A3
:101B7000FF731A400B0642EA1342028370470022A9
:101B8000828B4FF68F731A400A438283704700227C
:101B9000828B48F6FF731A400B0642EA1342828397
:101BA000704721B1028842F08002028004E002887E
:101BB00040F27F331A400280704721B1828842F0A0
:101BC0000402828004E082884FF6FB731A40828010
:101BD000704721B1828842F00802828004E0828846
:101BE0004FF6F7731A408280704721B1828842F025
:101BF0000102828004E082884FF6FE731A408280E0
:101C000070470022028B4FF6F7731A400A43028393
:101C100070470022028B4FF2FF731A400B0642EA14
:101C20001342028370470022828B4FF6F7731A40EB
:101C30000A43828370470022828B4FF2FF731A405F
:101C40000B0642EA1342828370470022028B4FF652
:101C5000FB731A400A43028370470022028B4FF63F
:101C6000FF331A400B0642EA1342028370470022F8
:101C7000828B4FF6FB731A400A438283704700221F
:101C8000828B4FF6FF331A400B0642EA13428283DF
:101C900070470022028B4FF67F731A400A4302837B
:101CA00070470022028BC2F30E020B0642EA134277
:101CB000028370470022828B4FF67F731A400A43DB
:101CC000828370470022828BC2F30E020B0642EA27
:101CD0001342828370470022028C4FF6FD731A4034
:101CE0000A43028470470022028C4FF6F7731A40B1
:101CF0000A43028470470022028C4FF6DF731A40B9
:101D00000B0542EA1342028470470022028C4FF610
:101D10007F731A400B0542EA134202847047002287
:101D2000028C4FF6FF531A400B0642EA134202841C
:101D300070470022028C4FF2FF731A400B0642EAF2
:101D40001342028470470022028C4DF6FF731A4042
:101D50000B0742EA13420284704710B5038C01243A
:101D60008C40E443A4B223400384038C02FA01F4C0
:101D7000A4B22343038410BD10B5038C04248C400B
:101D8000E443A4B223400384038C02FA01F4A4B216
:101D90002343038410BD30B5038C01248C40E443FD
:101DA000A4B22340038409B1082918D100F1180313
:101DB00003EB61031C684FF68F731C4000F118039E
:101DC00003EB61031C6000F1180303EB61031C6863
:101DD000144300F1180303EB61031C6021E00B1FA7
:101DE0009CB200F1180303EB64031C6848F6FF7310
:101DF0001C400B1F9DB200F1180303EB65031C6030
:101E00000B1F9CB200F1180303EB64031B6814065C
:101E100043EA14430C1FA5B200F1180404EB650457
:101E2000236030BD21B1028842F00202028004E04A
:101E3000028840F2FD331A400280704721B10288C7
:101E400042F00402028004E0028840F2FB331A40B0
:101E50000280704721B1828842F08002828004E0D3
:101E600082884FF67F731A4082807047028840F262
:101E7000F7331A40028002880A4302807047828842
:101E80004FF68F731A40828082880A43828070479F
:101E900002894FF6F8731A40028102890A430281CF
:101EA000704702894FF67F731A40028102890A4304
:101EB00002817047818470478185704781867047B1
:101EC0000187704781877047A0F8401070470288EB
:101ED000D2B2028002880A43028070470146888E8F
:101EE00070470146088F70470146888F704701464A
:101EF000B1F8400070470146888C70470146088D54
:101F0000704702460020138A0B4201D0012000E0F6
:101F100000207047CA430282704730B50246002055
:101F200000230024158A05EA0103958905EA0104C6
:101F300013B10CB1012000E0002030BDCA43028281
:101F40007047042808D14FF0E021096941F00401ED
:101F50004FF0E022116107E04FF0E021096921F024
:101F600004014FF0E022116170474FF0E021486119
:101F70007047012808D14FF0E021096941F00101C3
:101F80004FF0E02211610EE0811C08D14FF0E021FA
:101F9000096921F001014FF0E022116103E0002105
:101FA0004FF0E0229161704740B14FF0E0210969A4
:101FB00041F002014FF0E022116107E04FF0E02113
:101FC000096921F002014FF0E022116170474FF0E2
:101FD000E0208069704710B50146002200230020F0
:101FE000CB10022B03D14FF0E024226902E04FF026
:101FF000E024E26901248C40144201D0012000E079
:10200000002010BD10B50446F248201803D0B0F5EA
:10201000806F14D109E001214805FEF798FB0021EB
:102020004FF40010FEF793FB0AE001218805FEF74C
:102030008EFB00214FF48000FEF789FB00E000BF1B
:1020400000BF10BD2DE9F04385B004460D460026C3
:1020500000274FF00408DFF88093A6884FF6C07081
:1020600006406846FEF7DEFADDF80890DB48B9FB6B
:10207000F0F087B23E43A68020884FF6FE710840FC
:1020800020800026D649E86888420FD8E8684000DA
:10209000B9FBF0F01FFA80F8B8F1040F01DA4FF045
:1020A000040846EA0806781C208429E06888A0F520
:1020B0003F41FF3907D1E86800EB4000B9FBF0F081
:1020C0001FFA80F80AE0E86800EBC00101EB00109D
:1020D000B9FBF0F01FFA80F848F48048C8F30B0011
:1020E000002801D148F0010848F4004006434FF4AD
:1020F000967078434FF47A7190FBF1F0401C208485
:10210000A683208840F00100208026884FF6F53015
:1021100006402888E9880843064326802889A9883C
:102120000843208105B0BDE8F083002101804BF613
:10213000FF71418000218180C1804FF48041018185
:1021400041F28831C160704721B1028842F001023A
:10215000028004E002884FF6FE731A400280704746
:1021600021B1828842F40062828004E082884FF2CA
:10217000FF731A408280704721B1828842F48052F6
:10218000828004E082884EF6FF731A408280704796
:1021900021B1028842F48072028004E002884FF686
:1021A000FF631A400280704721B1028842F4007236
:1021B000028004E002884FF6FF531A400280704705
:1021C00021B1028842F48062028004E002884FF666
:1021D000FF331A4002807047002282894FF6017354
:1021E0001A4001F0FE031A438281704721B18289AF
:1021F00042F00102828104E082894FF6FE731A40A8
:102200008281704721B1028842F04002028004E0DE
:1022100002884FF6BF731A400280704710B51AB19A
:1022200083880B43838004E08388CC43A4B223409B
:10223000838010BD018270470146088AC0B2704792
:1022400012B141F0010102E04FF6FE731940018224
:1022500070470246505A704721B1028842F400424A
:10226000028003E00288C2F30E0202807047B1F5DB
:10227000005F04D1028842F40052028004E0028828
:102280004DF6FF731A400280704721B1028842F474
:102290008052028004E002884EF6FF731A400280EA
:1022A0007047B1F5006F04D1028842F400620280E9
:1022B00004E002884FF2FF731A400280704721B198
:1022C000028842F02002028004E002884FF6DF73A9
:1022D0001A40028070470146088B0012704721B1F6
:1022E000028842F01002028004E002884FF6EF7389
:1022F0001A400280704721B9028842F080020280B1
:1023000004E002884FF67F731A4002807047B1F5EF
:10231000804F05D0828B4BF6FF731A40828303E017
:10232000828B42F480428283704710B503460020BE
:1023300000210022998A1A8B120441EA020424F037
:102340007F4010BD70B50346002400220025002008
:102350009A8A1D8B2D0442EA050626F07F448C42A2
:1023600001D1012000E0002070BD30B50246002000
:102370000024002313460C0F21F07F410CB11433CD
:1023800001E0090C18331D680D4201D0012000E066
:10239000002030BD002221F07F42D343838270476A
:1023A00030B5024600200023948801F0E06504EA7D
:1023B000154321F07F41948A0C4202D00BB10120D9
:1023C00000E0002030BD002221F07F42D343838211
:1023D0007047000000ACFFBF00127A0040420F00BF
:1023E000A0860100704700BFFEE700BFFEE700BF08
:1023F000FEE700BFFEE770477047704770477047C1
:102400007047704770477047704770477047704714
:102410007047704770477047704770477047704704
:1024200070477047704770477047704770477047F4
:1024300070477047704710B501218807FFF76DFDA1
:10244000012808D122480068401C21490860012168
:102450008807FFF773FD10BD10B500201D49086007
:102460001D49086001211D48FFF768FD1B48FFF763
:1024700038FD194908600846006818B90020154958
:10248000086006E014480068154991FBF0F0114916
:10249000086010BD704770477047704770477047BD
:1024A0007047704770477047704770477047704774
:1024B0007047704770477047704770477047704764
:1024C0007047704770477047704770477047704754
:1024D0000000002014000020100000200004004034
:1024E00000A24A040EB50520ADF800000020ADF8AA
:1024F00002000920ADF804000020ADF806008DF8B8
:10250000080069464FF08040FEF7F9FF01221146AE
:102510009007FFF76CFA01218807FFF74DFA0EBD0F
:1025200008B51C208DF8000002208DF80100002065
:102530008DF8020001208DF803006846FEF7E1FDEA
:1025400008BD08B51020ADF800008DF80300032089
:102550008DF802006946A548FDF748FE4FF480500B
:10256000ADF8000010208DF8030003208DF8020064
:1025700069469E48FDF73AFE0920ADF800000420A8
:102580008DF8030003208DF8020069469748FDF797
:102590002DFE4FF40070ADF8000018208DF80300F8
:1025A00003208DF8020069469048FDF71FFE4FF4A6
:1025B0008060ADF8000004208DF8030003208DF842
:1025C000020069468948FDF711FE0A20ADF80000B7
:1025D00010208DF8030003208DF80200694684481E
:1025E000FDF704FE4FF42070ADF8000010208DF8C8
:1025F000030003208DF8020069467D48FDF7F6FDD3
:10260000C020ADF800001C208DF8030003208DF8D9
:10261000020069467748FDF7E9FD08BD10B5FDF7F2
:102620000BFF4FF48030FDF726FFFDF763FF0446F4
:10263000012C2DD10020FDF79BFF0020FDF7A8FF06
:10264000A002FDF79DFF0220FEF7BCF81020FEF768
:10265000CFF84FF4E0112004FDF76FFF0120FDF7E4
:1026600077FF00BF3920FDF729FF0028FAD00220AC
:10267000FDF771FF00BFFDF776FF0828FBD10121B0
:102680005D48FEF74AF8012144F21D00FEF738F8D4
:1026900010BD70B5FFF7C2FFFFF753FFFFF740FF14
:1026A00000F052FA00F008FAFFF71CFF00F05EF9A4
:1026B0000CE000F0A4F9054600F0EDFB84B22146E1
:1026C0004E48FEF737FC012000F01CFAF1E72DE937
:1026D000F0414FF480514548FDF732FE022000F0F2
:1026E0001CFA4FF480514148FDF728FE0A2000F003
:1026F00014FA4FF480513D48FDF722FE00BF082137
:102700003A48FDF701FE0028F9D03D48046800BFB3
:1027100008213648FDF7F8FD0128F9D0384805684A
:10272000281B3A2190FBF1F7381F00EBD0714910BC
:102730004E1C032000FB0670871E3846BDE8F08162
:1027400010B50446012C06D0022C16D0032C26D03E
:10275000042C48D135E002212548FDF7EFFD082182
:102760002348FDF7EDFD80212148FDF7E7FD4FF4FB
:1027700000711F48FDF7E4FD35E002211C48FDF71C
:10278000DFFD08211A48FDF7D9FD80211848FDF723
:10279000D7FD4FF400711648FDF7D0FD23E002216C
:1027A0001348FDF7CDFD08211148FDF7C9FD802133
:1027B0000F48FDF7C5FD4FF400710D48FDF7BEFD54
:1027C00011E002210A48FDF7BBFD08210848FDF78A
:1027D000B5FD80210648FDF7B3FD4FF400710448B4
:1027E000FDF7AEFD00BF00BF10BD000000080140B6
:1027F00000100140000C01400100200000380140A1
:102800000000002070B504460D46164600BF4FF488
:1028100000315248FFF7A9FD0028F8D101214F48A7
:10282000FFF7B6FC00BF4E494C48FFF78BFD01286F
:10283000F9D1002221464948FFF702FD00BF49496E
:102840004648FFF77FFD0128F9D129464348FFF7A5
:10285000F1FC00BF4349891C4048FFF773FD012884
:10286000F8D131463D48FFF7E5FC00BF3D49891CE2
:102870003A48FFF767FD0128F8D101213748FFF7F3
:1028800093FC39493548FFF785FD01213348FFF7AF
:102890008BFC70BD70B504460D4600BF4FF400318F
:1028A0002E48FFF762FD0028F8D101212B48FFF7E1
:1028B0006FFC00BF2A492948FFF744FD0128F9D1E0
:1028C000002221462548FFF7BBFC00BF25492348CD
:1028D000FFF738FD0128F9D101212048FFF734FC2A
:1028E00029461E48FFF7A6FC00BF1E49891C1B484D
:1028F000FFF728FD0128F8D101211848FFF748FC0F
:1029000000BF17491548FFF71DFD0128F9D1012225
:1029100021461248FFF794FC00BF1149491C0F489B
:10292000FFF710FD0128F8D100210C48FFF748FC03
:1029300001210A48FFF738FC00BF09493F31074829
:10294000FFF700FD0128F8D10448FFF775FC0646A3
:1029500001210248FFF734FC304670BD00540040AE
:102960000100030082000700000400101FB50020D2
:10297000ADF800004BF6FF70ADF80200A020ADF8F6
:1029800004004FF48060ADF806000001ADF80800C7
:102990004CF25030039069464248FFF753FB012147
:1029A0004048FFF7D1FB01213E48FFF709FCC82052
:1029B00000F08FF880226B21D020FFF723FFC82082
:1029C00000F087F800226B21D020FFF71BFFC82002
:1029D00000F07FF807221921D020FFF713FF06220D
:1029E0001A21D020FFF70EFF18221B21D020FFF75D
:1029F00009FF01221C21D020FFF704FF1FBD70B585
:102A000086B04121D020FFF745FF0446642000F046
:102A100060F84221D020FFF73DFF0546642000F01A
:102A200058F805EB042006B2304600F022FACDE952
:102A300004011DA00CC8049800F09FF9CDE9020123
:102A40001BA00CC8029800F050F9CDE9000100F07D
:102A500036FA06B070BD70B504462146D020FFF7A7
:102A600019FF0546642000F034F8601CC1B2D02084
:102A7000FFF710FF0646642000F02BF806EB052058
:102A800080B270BD10B53B20FFF7E5FF10BD10B55B
:102A90003D20FFF7E0FF10BD10B53F20FFF7DBFF43
:102AA00010BD0000005400400000000000407540D0
:102AB000A4703D0AD743424010B56FF00100FFF704
:102AC00058FA6FF00400FFF73CFA0020FFF751FAC4
:102AD00010BD10B5044642F2283104FB01F0FFF7A7
:102AE00044FA0120FFF745FA00BF1020FFF773FA00
:102AF0000028FAD06FF00100FFF73BFA0020FFF743
:102B000038FA10BD10B5044604E04FF47A70FFF7B0
:102B1000E0FF641E002CF8DC10BD10B5044604EB89
:102B2000C400FFF722FA0120FFF723FA00BF1020AC
:102B3000FFF751FA0028FAD06FF00100FFF719FAF9
:102B40000020FFF716FA10BD1FB54FF41650009085
:102B50000020ADF80400ADF80600ADF808000C2028
:102B6000ADF80A000020ADF80C0069461948FEF7E0
:102B70000AF901211748FEF773F91FBD70B5044625
:102B80000D4600260BE0A95D1248FEF7D3F900BF01
:102B900040212046FEF725FA0028F9D0761CA85DD2
:102BA0000028F0D170BD70B504460E46002500BF68
:102BB0000CE02046FEF7C2F90749485500BF202126
:102BC0002046FEF70EFA0028F9D16D1CB542F0DB65
:102BD000014870BD00380140180000202DE9FF4D6C
:102BE00086B0089A834623F0004301F0004421F0A8
:102BF0000045129F801A4FF0FF384FF0000A1E4622
:102C000075EB030108D259462846354693460646D9
:102C100008910FB184F000440023089886EA03016C
:102C20005840084305D1584645EA04010AB0BDE8BA
:102C3000F08DC5F30A51C6F30A50081ACDE9040114
:102C4000C5F3130040F480150498402837DAC6F322
:102C5000130040F48018049A0898414637B100F0F8
:102C60005BF9BBEB000065EB010104E000F054F9F7
:102C700010EB0B006941054604980E46C0F1400276
:102C80004146089800F038F98346884677B1DBF171
:102C9000000B4FF0000368EB480888EA03018BEA59
:102CA0000300084302D05A1EAD185641059BCDE9DA
:102CB00000A4029343465A463146284612E057B1D3
:102CC000059BCDE900A41BEB0800029345EB08012E
:102CD0004346424606E0CDE900A4029100230122CA
:102CE0002946584600F071F9A0E7F8B50D460746A9
:102CF0005940002001F000414140404016461C462A
:102D0000084301D0012300E000230093234632460C
:102D100029463846FFF762FFF8BDF8B50D4607466D
:102D20005940002001F000414140404016461C46F9
:102D3000084301D0002300E00123009323463246DC
:102D400029463846FFF74AFFF8BDF8B50D46074655
:102D50005940002001F000414140404016461C46C9
:102D6000084301D0002300E0012300932B463A469C
:102D700021463046FFF732FFF8BD2DE9FF4D0546ED
:102D800081EA0302002086B002F0004223F00046F0
:102D9000CDE90402034621F0004484EA03016840BF
:102DA000084306D00023089886EA030158400843E8
:102DB00004D1002001460AB0BDE8F08DC4F30A51E9
:102DC000C4F31302C6F30A5042F480144FF0000B10
:102DD000C6F31302081A42F4801200F2FE305F4676
:102DE0004FF40016D846DA460992039011E0DDE967
:102DF0000823A81A74EB030106D3AD1A64EB03048D
:102E000048EA07084AEA060A76084FEA37076D19C2
:102E10006441002386EA030187EA03000843E6D100
:102E200084EA030185EA0300084315D0DDE908239D
:102E300084EA030185EA0200084303D15D464FF0AE
:102E4000004409E0A81A74EB030102D201255C4694
:102E500002E06FF001056C10DDE90401039BCDE990
:102E60000001029323462A465146404600F0ADF841
:102E7000A1E70EB500210A46002802DA40424FF0D1
:102E8000004240F233438DE80E0000231A4600F062
:102E90009CF803B000BD20F00040C10DC0F3160047
:102EA00040F400007F2901DA00207047962903DCF6
:102EB000C1F19601C8407047963988407047F0B418
:102EC0000023054601F0004621F0004484EA030196
:102ED000584008430ED0C4F3130040F48010230D73
:102EE000C10041EA5570E9003246F0BCA3F56073B9
:102EF00000F02AB8F0BC7047202A04DB0023203AF7
:102F000000FA02F106E000FA02F39140C2F1200259
:102F1000D040014318467047202A04DB203A21FAAA
:102F200002F000217047D040C2F1200301FA03F300
:102F30001843D1407047002905DA401CB1F1004F19
:102F400001D120F00100704730B450EA01040BD1E8
:102F500030BC0020704701F0010545EA510141EA0B
:102F6000C07140085B1C01E04FF08074A042F2D2B7
:102F70004FF4000404E0400040EAD17049005B1EB9
:102F8000A042F8D300EBC350A0F5000030BC1044C1
:102F9000D1E70000F0B504460D46002003F00041E3
:102FA0004140404017461E4608430BD0641C4FF07A
:102FB000004386EA030145F1000557EA010001D10B
:102FC00024F0010420462946F0BD2DE9F00D884685
:102FD0001D46194307460023104359405840099E97
:102FE00014464FF0FF3A084311D1BDE8F00D0146F9
:102FF0007047680804F0010242EA340440EAC775E9
:103000005FEA58084FEA370706F1010601E0DFF8EA
:1030100048B0BAEB07027BEB0803EAD34FF4801AFF
:1030200007E0FF1948EB080847EAD57724196D41F6
:10303000761E381E78EB0A01F3D33305A3F580130F
:10304000381C48EB0301DDE90723801859412B4662
:103050002246BDE8F00D9DE7FFFF1F00064C074D1F
:1030600006E0E06840F0010394E807009847103458
:10307000AC42F6D3FDF73EF8B4300008D430000877
:1030800002E008C8121F08C1002AFAD17047704731
:10309000002001E001C1121F002AFBD1704700008F
:1030A00000000102030401020304060708090204E8
:1030B00006080000D43000080000002018000000BE
:1030C00080300008EC3000081800002038020000B2
:1030D0009030000800000000000000000000000028
:0C30E000000000000000000000000000E4
:0400000508000101ED
:00000001FF
