:020000040800F2
:10000000F8020020010100080501000807010008AE
:10001000090100080B0100080D01000800000000A4
:100020000000000000000000000000000F010008B8
:10003000110100080000000013010008150100086C
:100040001F20000821200008232000082520000888
:1000500027200008292000082B2000082D20000858
:100060002F20000831200008332000081701000865
:100070001701000817010008170100081701000800
:1000800017010008170100081701000845200008A3
:1000900047200008492000084B2000084D20000898
:1000A0004F20000851200008532000085520000868
:1000B00057200008792000087B2000084322000810
:1000C0004522000847220008492200084B22000868
:1000D0004D2200084F220008512200085322000838
:1000E000752200087722000879220008DFF80CD07A
:1000F00006F052FA0048004731280008F8020020B4
:1001000005480047FEE7FEE7FEE7FEE7FEE7FEE7FD
:10011000FEE7FEE7FEE7FEE7ED00000810B5044647
:10012000C149601A8C422FD009DCC048201810D079
:10013000B0F5806F16D0B0F5006F4AD11BE0B0F576
:10014000806F2AD0B0F5006F30D0B0F5406F40D14D
:1001500035E00121042000F0EDFA0021042000F038
:10016000E9FA37E00121082000F0E4FA0021082034
:1001700000F0E0FA2EE00121102000F0DBFA00216F
:10018000102000F0D7FA25E00121202000F0D2FA5B
:100190000021202000F0CEFA1CE00121402000F0D8
:1001A000C9FA0021402000F0C5FA13E001218020A7
:1001B00000F0C0FA0021802000F0BCFA0AE0012122
:1001C000080200F0B7FA00214FF4807000F0B2FA94
:1001D00000E000BF00BF10BD10B50121084600F0CF
:1001E000A9FA0021012000F0A5FA10BDF0B5002207
:1001F0000023002400250026002791F803C00CF0FE
:100200000F0291F803C01CF0100F03D091F802C048
:100210004CEA0202B1F800C01CF0FF0F31D00668B2
:1002200000242BE04FF0010C0CFA04F5B1F800C0EB
:100230000CEA0503AB4220D1A5004FF00F0C0CFADD
:1002400005F7BE4302FA05FC4CEA060691F803C026
:10025000BCF1280F06D14FF0010C0CFA04FCC0F8D9
:1002600014C00AE091F803C0BCF1480F05D14FF06B
:10027000010C0CFA04FCC0F810C0641C082CD1D38B
:100280000660B1F800C0BCF1FF0F34DD4668002401
:100290002EE004F1080C4FF0010E0EFA0CF5B1F847
:1002A00000C00CEA0503AB4221D1A5004FF00F0CB2
:1002B0000CFA05F7BE4302FA05FC4CEA060691F873
:1002C00003C0BCF1280F05D104F1080C0EFA0CFE96
:1002D000C0F814E091F803C0BCF1480F07D104F155
:1002E000080C4FF0010E0EFA0CFEC0F810E0641C72
:1002F000082CCED34660F0BD4FF6FF71018002217D
:1003000081700421C17070470246002093680B423F
:1003100001D0012000E0002070470146886880B2CB
:10032000704702460020D3680B4201D0012000E054
:10033000002070470146C86880B27047016170476D
:10034000416170470AB1016100E041617047C160DD
:1003500070474FF480320A43826181618261826911
:10036000826970470022324B1A684FF680731A4038
:1003700042EA00120A432E4B1A6070472D49C861A9
:100380007047F0B50022002300250024284E756830
:10039000C0F3034482B200F44016B6F5401F08D102
:1003A00025F07065224E766826F07066204F7E60DC
:1003B00012E000F48016B6F5801F06D1032606FA77
:1003C00004F39D4345F0706506E0460D360102FAE0
:1003D00006F6B54345F0706521B1460D360102FAC7
:1003E00006F63543124E7560F0BD30B500228B071E
:1003F0001C0F0F2303FA04F20D4B08338C1053F833
:10040000244094438D1043F825408C1053F8243039
:100410008C07240F00FA04F42343054C08348D1094
:1004200044F8253030BD00000014014000F8FEBF44
:100430000000014000002042DA48006840F001005E
:10044000D849086008464068D7490840D5494860FF
:1004500008460068D5490840D24908600846006847
:1004600020F4802008600846406820F4FE004860C0
:10047000002088607047CB49096821F48031C94A5F
:1004800011601146096821F480211160B0F5803FA8
:1004900003D0B0F5802F0ED106E0C249096841F4BF
:1004A0008031C04A116007E0BE49096841F4A021CB
:1004B000BC4A116000E000BF00BF704710B50146A4
:1004C0000022002300204A11012A02D1B54C2368E2
:1004D00006E0022A02D1B34C236A01E0B14C636A00
:1004E00001F01F02012494401C4201D0012000E0D1
:1004F000002010BD70B500240025002600BF31206B
:10050000FFF7DCFF0646641C16B9B4F5A06FF6D100
:100510003120FFF7D3FF08B1012500E00025284670
:1005200070BD00219F4A116821F0F80141EAC00125
:10053000116070479E49086070470022994B5A68C5
:1005400022F47C1240EA01031A43964B5A6070472A
:100550009749086670470021924A516821F00301CB
:100560000143516070478F48406800F00C007047AD
:1005700000218C4A516821F0F0010143516070471D
:100580000021884A516821F4E061014351607047BD
:100590000021844A516821F4605141EAC001516050
:1005A000704729B17F4A527A02437E4B5A7206E065
:1005B0007C4A527AC343DBB21A407A4B5A72704774
:1005C0007B49D831086070470021764A516821F490
:1005D00040410143516070470021724A203211703E
:1005E000704A82F82010012802D004280AD104E0C1
:1005F00001216C4A2032117005E00521694A203240
:10060000117000E000BF00BF70476A490860704782
:100610006449096A0143634A116270476549443974
:100620000860704730B500210022002300245D4D92
:100630006D6805F00C0121B1042905D0082923D1EA
:1006400005E05D4D056022E05B4D05601FE0554D06
:100650006D6805F47012022505EB9242514D6D68EC
:1006600005F480331BB9554D554305600BE04D4DE6
:100670006D6815F4003F03D0504D5543056002E00E
:100680004D4D5543056002E04B4D056000BF00BF76
:10069000444D6D6805F0F0010909494D6C5C056831
:1006A000E54045603F4D6D6805F4E061090A444D41
:1006B0006C5C4568E54085603A4D6D6805F46051B5
:1006C000C90A3F4D6C5C4568E540C560354D6D68B5
:1006D00005F44041890B3A4D10356C5CC568B5FB9B
:1006E000F4F5056130BD29B12E4A526902432D4B04
:1006F0005A6104E02B4A526982432A4B5A6170477F
:1007000029B1284A92690243264B9A6104E0254A9E
:1007100092698243234B9A61704729B1214AD26979
:100720000243204BDA6104E01E4AD26982431D4B2A
:10073000DA61704729B11B4AD2680243194BDA606B
:1007400004E0184AD2688243164BDA60704729B138
:10075000144A12690243134B1A6104E0114A1269E8
:100760008243104B1A617047124940390860704744
:100770000F49C86470470B49C87170470948406AFF
:1007800040F0807007494862704701460020054AE2
:1007900092680A4201D0012000E000207047014920
:1007A00088727047001002400000FFF8FFFFF6FE5D
:1007B000000042428004424200127A0000093D00DB
:1007C000046E0008FC49096801F03801FA4A11601A
:1007D00011460968014311607047F749096821F023
:1007E0000801F54A1160114609680143116070471C
:1007F000F149096821F01001EF4A116011460968BA
:10080000014311607047ED48EB494860EC4848608F
:100810007047E948006940F08000E7490861704787
:100820000420E549C96801F00101012901D1012035
:100830000EE0E149C96811F0040F01D0022007E081
:10084000DD49C96811F0100F01D0032000E0042039
:1008500070470020FF2000E0401E0028FCD17047B8
:1008600070B504460425FFF7DBFF054605E0FFF7FA
:10087000F0FFFFF7D5FF0546641E012D01D1002CC6
:10088000F5D104B90525284670BD70B50446042588
:1008900040F6FF70FFF7E4FF0546042D19D1C64866
:1008A000006940F00200C4490861084644610069DB
:1008B00040F04000086140F6FF70FFF7D1FF0546A9
:1008C000012D06D0BC48006941F6FD710840BA49C7
:1008D0000861284670BD10B5042440F6FF70FFF78C
:1008E000BFFF0446042C18D1B348006940F004004F
:1008F000B14908610846006940F04000086140F6CF
:10090000FF70FFF7ADFF0446012C06D0AA4800692E
:1009100041F6FB710840A8490861204610BD10B59A
:10092000042440F6FF70FFF79BFF0446042C3BD1E4
:10093000A248A1498860A24888600846006940F042
:10094000200008610846006940F04000086140F658
:10095000FF70FFF785FF0446042C1CD19648006900
:1009600041F6DF710840944908610846006940F08B
:1009700010000861A520934908800F20FFF770FF41
:100980000446012C10D08C48006941F6EF710840F4
:100990008949086108E0012C06D08748006941F6C2
:1009A000EF71084084490861204610BD70B50446C7
:1009B0000D4604260F20FFF753FF0646042E25D1CF
:1009C0007D48006940F001007B49086125800F20C7
:1009D000FFF746FF0646042E0FD1280C60800F203B
:1009E000FFF73EFF0646012E10D07348006941F61E
:1009F000FE7108407049086108E0012E06D06E487B
:100A0000006941F6FE7108406B490861304670BDCF
:100A100070B504460D4604260F20FFF721FF064659
:100A2000042E13D16448006940F001006249086156
:100A300025800F20FFF714FF0646012E06D05E48E2
:100A4000006941F6FE7108405B490861304670BD9F
:100A500070B504460D4604260F20FFF701FF064639
:100A6000042E17D155485449886055488860084677
:100A7000006940F01000086125800F20FFF7F0FEAC
:100A80000646012E06D04C48006941F6EF71084039
:100A900049490861304670BD2DE9F04704464FF6DC
:100AA000FF752E462F46A8464FF00409E443E5B2F1
:100AB000C4F30726C4F307474FEA14680F20FFF773
:100AC000CFFE8146B9F1040F41D13C483A498860D4
:100AD0003B4888600846006940F010000861FF2D1F
:100AE00006D03848083005800F20FFF7B9FE814650
:100AF000B9F1040F08D1FF2E06D032480A30068023
:100B00000F20FFF7ADFE8146B9F1040F08D1FF2F8A
:100B100006D02C480C3007800F20FFF7A1FE81463D
:100B2000B9F1040F09D1B8F1FF0F06D02648A0F89B
:100B30000E880F20FFF794FE8146B9F1010F06D011
:100B40001D48006941F6EF7108401B49086148469D
:100B5000BDE8F08770B50446042540F6FF70FFF746
:100B60007FFE0546042D4CD1144813498860144873
:100B700088600846006940F0200008610846006966
:100B800040F04000086140F6FF70FFF769FE05463F
:100B9000042D2DD10848006941F6DF71084006494F
:100BA00008610846006940F01000086174B1002037
:100BB000044908800DE00000002002402301674541
:100BC000AB89EFCD00F8FF1F00F0FF1FA5204549BE
:100BD000088040F6FF70FFF743FE0546012D10D058
:100BE0004148006941F6EF7108403F49086108E05B
:100BF000012D06D03C48006941F6DF7108403A49B2
:100C00000861284670BD2DE9F04104460D461646A0
:100C10000427364834498860354888600F20FFF73C
:100C20001FFE0746042F1AD12F48006940F010001C
:100C30002D49086144EA0500304340F0F800294995
:100C4000891C08800F20FFF70BFE0746012F06D0F6
:100C50002548006941F6EF7108402349086138468C
:100C6000BDE8F0812048C069800870471E48006ACE
:100C7000704700201C49C96911F0020F01D0012002
:100C800000E00020704700201749096811F0200F8C
:100C900001D0012000E00020704729B1124A1269FA
:100CA0000243114B1A6104E00F4A126982430E4B52
:100CB0001A61704701460020012908D10A4AD26909
:100CC00012F0010F01D0012008E0002006E0064AE2
:100CD000D2680A4201D0012000E00020704702499A
:100CE000C860704700F8FF1F0020024023016745DD
:100CF000AB89EFCD10B50446D749601A8C422BD092
:100D000006DCD648201813D0B0F5806F38D119E032
:100D1000B0F5806F2AD0B0F56C4F31D10121880336
:100D2000FFF708FD00214FF48040FFF703FD28E0A6
:100D300001214804FFF70BFD00214FF40030FFF7BD
:100D400006FD1EE001218804FFF701FD00214FF49C
:100D50008020FFF7FCFC14E00121C804FFF7F7FC3A
:100D600000214FF40020FFF7F2FC0AE00121080502
:100D7000FFF7EDFC00214FF48010FFF7E8FC00E0E6
:100D800000BF00BF10BD2DE9F04786B004460D46F8
:100D90000026002700BF00BFB246A246268A4CF6B6
:100DA000FF700640E88806432682A6894EF6F310B7
:100DB0000640A88829890843698908430643A68113
:100DC000A68A4FF6FF400640A8890643A68201A8DE
:100DD000FFF728FC5446A248824501D1049F00E059
:100DE000039F07EBC70000EB071029688900B0FBE1
:100DF000F1F86420B8FBF0F006013009642101FB32
:100E00001089322101EB09106421B0FBF1F000F0F0
:100E10000F000643268106B0BDE8F0874FF4165157
:100E2000016000218180C18001810C21418100216C
:100E30008181704710B50022028A4FF2FF031A40E9
:100E40000B884C8823438C882343CC8823431A4344
:100E5000028210BD0021018041808180C1807047E5
:100E600021B1828942F40052828104E082894DF6E8
:100E7000FF731A4082817047F0B5002400250026D8
:100E800000230346C1F3421401F01F05012707FAAE
:100E900005F6012C01D10C3304E0022C01D11033F2
:100EA00000E014331AB11F6837431F6002E01F6867
:100EB000B7431F60F0BD10B51AB1838A0B4383821C
:100EC00004E0838ACC43A4B22340838210BD028A0B
:100ED0004FF6F0731A400282028A0A430282704778
:100EE00082894FF2FF731A40828182890A4382818C
:100EF000704721B1828942F00202828104E0828936
:100F00004FF6FD731A4082817047028A4FF6DF73F5
:100F10001A400282028A0A430282704721B1028A81
:100F200042F48042028204E0028A4BF6FF731A40C8
:100F300002827047C1F308028280704701468888A8
:100F4000C0F308007047818941F001018181704739
:100F5000028BD2B20283028B42EA012202837047E3
:100F6000028B02F47F420283028B0A4302837047A2
:100F700021B1828A42F02002828204E0828A4FF606
:100F8000DF731A408282704721B1828A42F01002D8
:100F9000828204E0828A4FF6EF731A4082827047A1
:100FA00021B1828A42F00802828204E0828A4FF6EE
:100FB000F7731A4082827047828A4FF6FB731A4099
:100FC0008282828A0A438282704721B1828A42F0F9
:100FD0000202828204E0828A4FF6FD731A40828206
:100FE00070470246002013880B4201D0012000E028
:100FF00000207047CA430280704770B50246002344
:10100000002400250020C1F3421501F01F04012631
:1010100006FA04F4012D02D19689344006E0022D2F
:1010200002D1168A344001E0968A34400B12012620
:1010300006FA03F31688334014B10BB1012000E027
:10104000002070BD10B5002200230A120124944034
:10105000A3B2DC43048010BD004C004000BCFFBFC5
:10106000003801400020411EE84A11600A09E749A2
:101070008039C1F88420411E4FF0E022C2F880126E
:101080000A09E3490A6000BF04E00022E14941F88F
:101090002020401C0F28F8D3704700204FF020611B
:1010A000DD4A116000214FF0E022C2F8081DDB4943
:1010B000D94A083211600021121D1160121D116001
:1010C00000BF05E00022D449143141F82020401C23
:1010D0000328F7D30021D04A20321160491E4FF077
:1010E000E022C2F8281DCC4A283211604FF0E022DD
:1010F000C2F8301D7047C9490143C74A0832116020
:101100007047F0B500210022002300240F25C67887
:10111000002E36D0C04E0836366806F4E066C6F5B6
:10112000E066310AC1F10404CD40467806FA04F1C4
:1011300086782E40314309010678B607F60EB14095
:10114000B44E0778BF1056F827200678B607F70E7A
:10115000FF2606FA07F39A4319400A43AD4E077873
:10116000BF1046F82720067806F01F070126BE406C
:1011700007787F114FF0E02C0CEB8707C7F8006170
:101180000BE0067806F01F060127B7409F4E90F847
:1011900000C04FEA6C1C46F82C70F0BD00210170B5
:1011A00041708170C17070477047704770477047D9
:1011B000704799480068C0F30930704710B5014680
:1011C0000020002201F01F04012303FA04F28F4BD8
:1011D00080334C1153F824301340934201D1012045
:1011E00000E0002010BD8E490860704700F01F012C
:1011F00001228A408649091F431141F82320704784
:1012000085480068C0F30900704710B5014600200A
:10121000002201F01F04012303FA04F27C4B7C330B
:101220004C1153F824301340934201D1012000E0C7
:10123000002010BD7848001F00687047794A0A40B6
:101240000243754B1B1D1A6070477448001D72499C
:101250000831086070477148401C6F4908310860C8
:10126000704741B16C4A0C32126802434FF0E023E0
:10127000C3F8102D07E0684A0C32126882434FF021
:10128000E023C3F8102D704710B5002200F01F04B2
:10129000012303FA04F241B15F4B20331B6813436F
:1012A0004FF0E024C4F8243D07E05B4B20331B687B
:1012B00093434FF0E024C4F8243D10BDF0B5002363
:1012C000FF2400250026544F08373F6807F4E067E5
:1012D000C7F5E0673E0AC6F10403F44001FA03F6DD
:1012E00002EA04073E43360100F0C0039B09C0F345
:1012F0000124E700BE404FEAC40CFF2707FA0CF5B3
:10130000454F143757F823C02CEA050C47F823C083
:1013100057F823C04CEA060C47F823C0F0BD10B5BF
:1013200001460020002200238B0A03F00F03012452
:1013300004FA03F3384C2034246804EA03029A4286
:1013400001D1012000E0002010BD002100F01F01AC
:10135000314A136801228A4013434FF0E022C2F859
:10136000043D704710B5002100F01F012A4A1368A0
:101370004C1E0122A24013434FF0E022C2F8043D6C
:1013800010BD10B50146002000230022C1F38332B6
:10139000012404FA02F2204C2034246804EA0203F7
:1013A000934201D1012000E0002010BD30B501467C
:1013B000002000220023C1F38142C1F301531AB976
:1013C000154C2834206811E0012A0CD1124C243429
:1013D0002468DD0024FA05F0022B02D000F00F0093
:1013E00004E0C0B202E00C4C2C34206830BD014651
:1013F00000200022C1F380521AB9074B303318681D
:1014000002E0054B343318687047000080E100E0CB
:1014100084E200E000E400E004ED00E00000FA05F2
:1014200000EF00E080FFFF1F10B50446F849601A86
:101430008C4245D00CDCB4F1804F1DD0F54820180B
:1014400023D0B0F5806F29D0B0F5006F54D12EE0D5
:10145000B0F5806F3DD0B0F58E3F03D0B0F5923F30
:101460004AD13FE00121C802FFF764F900214FF49F
:101470000060FFF75FF940E001210846FFF767F9D8
:1014800000210120FFF763F937E001210220FFF777
:101490005EF900210220FFF75AF92EE00121042015
:1014A000FFF755F900210420FFF751F925E001214C
:1014B0000820FFF74CF900210820FFF748F91CE04D
:1014C00001211020FFF743F900211020FFF73FF919
:1014D00013E001212020FFF73AF900212020FFF737
:1014E00036F90AE001214803FFF724F900214FF4FF
:1014F0000050FFF71FF900E000BF00BF10BD0288D9
:1015000002F08F020280CA884B881A4303881A436C
:1015100002808A8882850A88028501228282BE4AE8
:10152000904202D0BD4A904201D10A7A02867047A9
:1015300070B5002200230024058C4FF6FE7635405E
:101540000584038C8488028B4FF68F752A400D88A2
:101550002A43751E2B400D892B434D882B43CD8884
:101560008586AD4DA84202D0AC4DA84213D14FF6AE
:10157000F7752B404D892B434FF6FB752B408D881B
:101580002B4347F6FF652C4047F6FF552C408D89CD
:101590002C43CD892C4384800283038470BD70B5B5
:1015A000002200230024058C4FF6EF763540058499
:1015B000038C8488028B48F6FF752A400D882D061F
:1015C00042EA15424FF6DF752B400D892D0543EA9F
:1015D00015434D882D0543EA1543CD8805878E4D6B
:1015E000A84202D08D4DA8421BD14FF67F752B40EB
:1015F0004D892D0543EA15434FF6BF752B408D8865
:101600002D0543EA154347F6FF352C4047F2FF7599
:101610002C408D89AD0444EA1544CD89AD0444EADB
:10162000154484800283038470BD70B500220023BA
:101630000024058C4FF6FF6635400584038C8488B2
:10164000828B4FF68F752A400D882A434FF6FF553F
:101650002B400D892D0643EA15434D882D0643EA9C
:101660001543CD8885876C4DA84202D06B4DA842AA
:101670001BD14FF2FF752B404D892D0643EA1543D0
:101680004FF6FF352B408D882D0643EA154346F66D
:10169000FF752C4045F6FF752C408D892D0544EAD9
:1016A0001544CD892D0544EA154484808283038442
:1016B00070BD70B5002200230024058C4EF6FF7625
:1016C00035400584038C8488828B48F6FF752A4058
:1016D0000D882D0642EA15424DF6FF752B400D8907
:1016E0002D0743EA15434D882D0743EA1543CD885E
:1016F000A0F84050484DA84202D0484DA84205D11C
:10170000C4F30D048D89AD0544EA154484808283B9
:10171000038470BD828B4FF2FF331A408283828B29
:101720000B0642EA134282837047F0B5002400257D
:101730000026078C4EF6FF7C07EA0C070784848B93
:10174000058C0F073E0C40F6FF473C4017063F0C48
:101750004FEA037C47EA1C473C434DF6FF773D4088
:1017600046F480573D4384830584F0BD828B4FF659
:10177000F3731A408283828B0A4382837047F0B5E9
:10178000002400250026078C4FF6FF6C07EA0C07A3
:101790000784848B058C0F063E0C4FF60C773C407B
:1017A0001F0542EA17473C434FF6FF573D4046F4BA
:1017B00080773D4384830584F0BD028B4FF2FF3375
:1017C0001A400283028B0B0642EA134202837047DF
:1017D000F0B5002400250026078C4FF6EF7C07EAC1
:1017E0000C070784048B058C0F053E0C40F6FF4761
:1017F0003C401F0744EA1744170644EA17444FF6D3
:10180000DF773D4046F010073D4304830584F0BD7B
:101810000010004000FCFFBF002C014000340140DC
:10182000028B4FF6F3731A400283028B0A43028342
:101830007047F0B500240025068C4FF6FE773E4039
:101840000684048B058C4FF60C7634401E0542EA64
:10185000164634437E1E354041F00106354304836D
:101860000584F0BD70B504460D46288850B92B8913
:10187000AA8869882046FFF7DCFFE9882046FFF741
:10188000CFFF25E0288804280AD12B89AA886988F7
:101890002046FFF79DFFE9882046FFF78EFF17E0FF
:1018A000288808280AD12B89AA8869882046FFF74A
:1018B00066FFE9882046FFF759FF09E02B89AA88CF
:1018C00069882046FFF731FFE9882046FFF722FFAD
:1018D00070BD2DE9F04104460D46002601276888B9
:1018E00008B9022600E00026A888012801D10227B5
:1018F00000E001272888A0B92B89AA88698820469A
:10190000FFF797FFE9882046FFF78AFF2B893A46C1
:1019100031462046FFF75CFFE9882046FFF74DFF80
:1019200013E02B89AA8869882046FFF751FFE988D0
:101930002046FFF742FF2B893A4631462046FFF703
:1019400078FFE9882046FFF76BFFBDE8F0810A8841
:101950004B881A438B881A43CB881A430B891A4346
:101960004B891A438B891A43A0F8442070474FF6DD
:10197000FF71818000210180C18041800172704728
:101980000021018041808180C1800181418181816C
:10199000C1817047002101804180012181800021A7
:1019A000C180018170470021018041808180C18018
:1019B000018141818181704721B1028842F0010299
:1019C000028004E0028840F2FE331A400280704731
:1019D00031B1B0F8442042F40042A0F8442005E0C0
:1019E000B0F84420C2F30E02A0F84420704710B5AE
:1019F0001AB183890B43838104E08389CC43A4B269
:101A00002340838110BD8182704741EA0203A0F820
:101A10004830704710B51AB183890B43838104E0C5
:101A20008389CC43A4B22340838110BD01894FF642
:101A3000F872114001817047002202894FF68F73BE
:101A40001A400A430281704730B504460D462946C4
:101A50002046FFF7F1FF208940F00700208130BDCC
:101A60002DE9F04104460D4616461F46602D06D16D
:101A70003B46012231462046FFF7AAFE05E03B46E1
:101A8000012231462046FFF7D4FE29462046FFF7C3
:101A9000D3FF208940F007002081BDE8F08170B5B8
:101AA00000240489E4B241EA02051E0645EA16450F
:101AB0002C43048170BD2DE9F04104460D461646C5
:101AC000984600274346324629462046FFF7E7FF5F
:101AD00027894FF6F870074047F007074FF68F70D9
:101AE000074047F070072781BDE8F081F0B5044654
:101AF0000D4616461F463B46324629462046FFF70E
:101B0000CEFF208940F480402081F0BD0185828293
:101B100070470022028840F28F331A400A43028045
:101B20007047F0B50024002500260489058B068C3B
:101B30004FF6F8773C400C434FF6FC473D4040F2EF
:101B400001173D434FF6DD773E401F0542EA174738
:101B50003E43048105830684F0BD0022028B4FF6CC
:101B60008F731A400A43028370470022028B48F6A3
:101B7000FF731A400B0642EA1342028370470022A9
:101B8000828B4FF68F731A400A438283704700227C
:101B9000828B48F6FF731A400B0642EA1342828397
:101BA000704721B1028842F08002028004E002887E
:101BB00040F27F331A400280704721B1828842F0A0
:101BC0000402828004E082884FF6FB731A40828010
:101BD000704721B1828842F00802828004E0828846
:101BE0004FF6F7731A408280704721B1828842F025
:101BF0000102828004E082884FF6FE731A408280E0
:101C000070470022028B4FF6F7731A400A43028393
:101C100070470022028B4FF2FF731A400B0642EA14
:101C20001342028370470022828B4FF6F7731A40EB
:101C30000A43828370470022828B4FF2FF731A405F
:101C40000B0642EA1342828370470022028B4FF652
:101C5000FB731A400A43028370470022028B4FF63F
:101C6000FF331A400B0642EA1342028370470022F8
:101C7000828B4FF6FB731A400A438283704700221F
:101C8000828B4FF6FF331A400B0642EA13428283DF
:101C900070470022028B4FF67F731A400A4302837B
:101CA00070470022028BC2F30E020B0642EA134277
:101CB000028370470022828B4FF67F731A400A43DB
:101CC000828370470022828BC2F30E020B0642EA27
:101CD0001342828370470022028C4FF6FD731A4034
:101CE0000A43028470470022028C4FF6F7731A40B1
:101CF0000A43028470470022028C4FF6DF731A40B9
:101D00000B0542EA1342028470470022028C4FF610
:101D10007F731A400B0542EA134202847047002287
:101D2000028C4FF6FF531A400B0642EA134202841C
:101D300070470022028C4FF2FF731A400B0642EAF2
:101D40001342028470470022028C4DF6FF731A4042
:101D50000B0742EA13420284704710B5038C01243A
:101D60008C40E443A4B223400384038C02FA01F4C0
:101D7000A4B22343038410BD10B5038C04248C400B
:101D8000E443A4B223400384038C02FA01F4A4B216
:101D90002343038410BD30B5038C01248C40E443FD
:101DA000A4B22340038409B1082918D100F1180313
:101DB00003EB61031C684FF68F731C4000F118039E
:101DC00003EB61031C6000F1180303EB61031C6863
:101DD000144300F1180303EB61031C6021E00B1FA7
:101DE0009CB200F1180303EB64031C6848F6FF7310
:101DF0001C400B1F9DB200F1180303EB65031C6030
:101E00000B1F9CB200F1180303EB64031B6814065C
:101E100043EA14430C1FA5B200F1180404EB650457
:101E2000236030BD21B1028842F00202028004E04A
:101E3000028840F2FD331A400280704721B10288C7
:101E400042F00402028004E0028840F2FB331A40B0
:101E50000280704721B1828842F08002828004E0D3
:101E600082884FF67F731A4082807047028840F262
:101E7000F7331A40028002880A4302807047828842
:101E80004FF68F731A40828082880A43828070479F
:101E900002894FF6F8731A40028102890A430281CF
:101EA000704702894FF67F731A40028102890A4304
:101EB00002817047818470478185704781867047B1
:101EC0000187704781877047A0F8401070470288EB
:101ED000D2B2028002880A43028070470146888E8F
:101EE00070470146088F70470146888F704701464A
:101EF000B1F8400070470146888C70470146088D54
:101F0000704702460020138A0B4201D0012000E0F6
:101F100000207047CA430282704730B50246002055
:101F200000230024158A05EA0103958905EA0104C6
:101F300013B10CB1012000E0002030BDCA43028281
:101F40007047042808D14FF0E021096941F00401ED
:101F50004FF0E022116107E04FF0E021096921F024
:101F600004014FF0E022116170474FF0E021486119
:101F70007047012808D14FF0E021096941F00101C3
:101F80004FF0E02211610EE0811C08D14FF0E021FA
:101F9000096921F001014FF0E022116103E0002105
:101FA0004FF0E0229161704740B14FF0E0210969A4
:101FB00041F002014FF0E022116107E04FF0E02113
:101FC000096921F002014FF0E022116170474FF0E2
:101FD000E0208069704710B50146002200230020F0
:101FE000CB10022B03D14FF0E024226902E04FF026
:101FF000E024E26901248C40144201D0012000E079
:10200000002010BD704700BFFEE700BFFEE700BF25
:10201000FEE700BFFEE770477047704770477047A4
:1020200070477047704770477047704770477047F8
:1020300070477047704770477047704770477047E8
:1020400070477047704770477047704770477047D8
:1020500070477047704710B501218807FFF75DFF93
:10206000012808D18D480068401C8C490860012176
:102070008807FFF763FF10BD704710B5012188483E
:10208000FFF74BFF01287DD186480068012801D168
:1020900000F075FC83480068052801D100F06FFC52
:1020A00080480068062830D108217F48FEF748F9AB
:1020B0004FF400717C48FEF743F97C48006880B912
:1020C0007B48006868B980217748FEF739F902211A
:1020D0007548FEF735F901207449086074490860B5
:1020E00013E07248006801280FD171480068401E53
:1020F0006F49086080216C48FEF720F902216A4888
:10210000FEF71CF90020694908606648006802284B
:1021100031D180216448FEF713F902216248FEF7AD
:102120000FF96248006888B96148006870B90821F1
:102130005D48FEF705F94FF400715B48FEF700F9C2
:1021400001205A4908605A49086014E0574800685D
:10215000012810D156480068401E554908600821E2
:102160005148FEF7EBF84FF400714F48FEF7E6F8E0
:1021700000204E4908604B48006803282BD10821F5
:10218000494800E05CE0FEF7DBF84FF40071464898
:10219000FEF7D6F84548006848B980214248FEF766
:1021A000CFF8012041490860414908600FE03F48ED
:1021B000006801280BD13E480068401E3C49086079
:1021C00080213948FEF7BAF800203849086002211A
:1021D0003548FEF7B5F83348006804282CD10821AB
:1021E0003148FEF7ADF84FF400712F48FEF7A8F81C
:1021F0002E48006860B92E48006848B902212A4874
:10220000FEF79EF8012029490860294908600FE07F
:102210002648006801280BD125480068401E244943
:10222000086002212048FEF789F800201F49086055
:1022300080211D48FEF784F801211948FFF77EFE32
:1022400010BD7047704770477047704770477047C0
:10225000704710B540F225511648FEF7CEFE40B14A
:102260001448FEF76BFE1449088020211148FEF740
:10227000C1FE10BD70477047704770477047704788
:102280007047704770477047704770477047704796
:1022900070477047704770477047704700000020D4
:1022A0000008004050000020001001400C000020F9
:1022B0001400002000480040240000202DE9F04FC9
:1022C00097B000240FAB10AACDE9002315AB0BAAE1
:1022D00011A913A801F086FABDF8400010F4807F20
:1022E0007DD00B9803F0AFFF05464FF09D4103F002
:1022F000B5FDFF4908600C9803F0A5FF05464FF0B7
:102300009D4103F0ABFDFB4908600D9803F09BFF76
:1023100005464FF09D4103F0A1FDF74908600E9876
:1023200003F091FF05464FF09D4103F097FDF349FF
:102330000860EF4801684FF0804003F05CFD814683
:10234000ED480168484603F056FD0646E948016835
:102350004FF0404003F04FFD8146E8480168484691
:1023600003F049FD8046314603F02EFD054603F09B
:10237000B8FFCDE9080104F005FACDE90601E0A0B7
:102380000CC8069803F06FFECDE9040103F0E2FFEC
:102390000A90D94801684FF0804003F02CFD824636
:1023A000D5480168504603F026FD8046D1480168B3
:1023B0004FF0404003F01FFD8246CE480168504672
:1023C00003F019FD8146414603F005FD06464FF036
:1023D0007E5103F0F9FC054603F083FF00E099E02D
:1023E000CDE90801C24801684FF0804003F003FDC9
:1023F0008146C0480168484603F0FDFC0646BE48D9
:1024000001684FF0804003F0F6FC8146BB4801684C
:10241000484603F0F0FC8046314603F0D5FC054603
:1024200003F05FFFCDE90601DDE9082304F004FCB9
:10243000CDE90401B2A00CC8049803F014FECDE964
:10244000020103F087FF0746AC480168006803F00B
:10245000D2FC8146A8480168006803F0CCFC8246A3
:10246000A4480168006803F0C6FC8346A0480168E0
:10247000006803F0C0FC5946019003F0A5FC8046BB
:10248000514603F0A8FC0646494603F0A4FC054665
:1024900003F027FFCDE908019848016894480068D7
:1024A00003F0A9FC8046944801689248006803F054
:1024B000A2FC8146414603F087FC06464FF080416E
:1024C00003F099FC054603F00CFFCDE90601DDE9B8
:1024D000082304F0B1FBCDE9040189A00CC80498DD
:1024E00003F0C1FDCDE9020103F034FF04464FF0D3
:1024F0007E510A9803F056FF03D2012017B0BDE8C1
:10250000F08F81490A9803F043FF01D20020F5E7DC
:102510000220F3E74FF0FF30F0E72DE9F0414FF4F0
:1025200080517A48FDF70CFF022000F0D2FA4FF4F8
:1025300080517648FDF702FF0A2000F0CAFA4FF4F6
:1025400080517248FDF7FCFE00BF08216F48FDF77F
:10255000DBFE0028F9D06E48046800BF08216B48F4
:10256000FDF7D2FE0128F9D069480568281B3A21F9
:1025700090FBF1F7381F00EBD07149104E1C03207F
:1025800000FB0670871E3846BDE8F0810EB50520B9
:10259000ADF800000020ADF802000920ADF80400FD
:1025A0000020ADF806008DF8080069464FF0804025
:1025B000FEF7A5FF012211469007FFF718FA012147
:1025C0008807FFF7F9F94FF4FA70ADF80000002022
:1025D000ADF802006420ADF804000020ADF806005C
:1025E0008DF8080069464B48FEF789FF0122114625
:1025F0004848FFF7FCF901214648FFF7DDF90EBD19
:1026000008B51C208DF8000002208DF80100002084
:102610008DF8020001208DF803006846FEF771FD79
:1026200027208DF8000003208DF8010000208DF890
:10263000020001208DF803006846FEF762FD1E20AF
:102640008DF8000004208DF8010000208DF80200B4
:1026500001208DF803006846FEF753FD08BD08B55C
:102660007020ADF8000010208DF8030003208DF8D5
:10267000020069462548FDF7B9FD4FF48050ADF8DA
:10268000000010208DF8030003208DF80200694639
:102690001E48FDF7ABFD0920ADF8000004208DF8C1
:1026A000030003208DF8020069461848FDF79EFDDF
:1026B0004FF40070ADF8000018208DF803000320DF
:1026C0008DF8020069461148FDF790FD4FF48060D7
:1026D000ADF8000004208DF8030003208DF80200FF
:1026E00069460A48FDF782FD4FF4806014E000005F
:1026F00034000020380000203C0000204000002072
:102700006666666666A64C40000010C1000801407F
:102710000000002000080040ADF8000018208DF8EF
:10272000030003208DF802006946C748FDF75EFDEF
:102730004FF40060ADF8000004208DF80300032082
:102740008DF802006946C048FDF750FD0A20ADF83B
:10275000000010208DF8030003208DF80200694668
:10276000BA48FDF743FD4FF42070ADF8000010208B
:102770008DF8030003208DF802006946B348FDF789
:1027800035FDC020ADF800001C208DF803000320AB
:102790008DF802006946AC48FDF728FD4FF48040F3
:1027A000ADF8000010208DF8030003208DF8020022
:1027B0006946A748FDF71AFD08BD10B5FDF73CFEB8
:1027C0004FF48030FDF757FEFDF794FE0446012CD0
:1027D0002DD10020FDF7CCFE0020FDF7D9FEA00290
:1027E000FDF7CEFE0220FDF7EDFF1020FEF700F80A
:1027F0004FF4E0112004FDF7A0FE0120FDF7A8FE34
:1028000000BF3920FDF75AFE0028FAD00220FDF75C
:10281000A2FE00BFFDF7A7FE0828FBD101218D48CD
:10282000FDF77BFF012144F21D00FDF769FF10BD9C
:1028300010B5FFF7C2FFFFF712FFFFF7E1FE00F050
:102840005FF900F015F9FFF7A1FE142000F01DF963
:1028500002F0ADFE1E2000F018F902F0F6FC102187
:102860007B48FDF76BFD20217948FDF769FD1E20AF
:1028700000F00BF982E0FFF750FE77490860084648
:1028800000683C2807DA0A2000F0FFF8442173486A
:10289000FEF750FB0AE0704800683C2806DD0A207D
:1028A00000F0F3F841216D48FEF744FB282000F0CA
:1028B000ECF8FFF703FD6A4908600846006820B19C
:1028C00001280AD002281FD112E00A2000F0DDF80A
:1028D0004F216248FEF72EFB17E001206149086096
:1028E0000A2000F0D2F855215C48FEF723FB0CE0EB
:1028F00040215748FDF724FD0A2000F0C6F8462184
:102900005648FEF717FB00E000BF00BF0A2000F0AA
:10291000BCF803F051F9C01D84B221464F48FEF7C0
:1029200009FB032000F0B1F84F4801884F48FEF73B
:1029300001FB4D4800884C280ED004DC422817D0FB
:10294000472819D104E052280AD0532814D10BE0AB
:1029500001204449086010E00320424908600CE06F
:1029600004204049086008E005203E49086004E072
:1029700002203C49086000E000BF00BF7BE710B5C3
:102980000446062C5ED2DFE804F05D031527394BC0
:1029900002212E48FDF7D2FC08212C48FDF7D0FC7F
:1029A00080212A48FDF7CAFC4FF400712748FDF743
:1029B000C7FC47E002212548FDF7C2FC0821234857
:1029C000FDF7BCFC80212148FDF7BAFC4FF40071F3
:1029D0001E48FDF7B3FC35E002211C48FDF7B0FCB2
:1029E00008211A48FDF7ACFC80211848FDF7A6FC29
:1029F0004FF400711548FDF7A3FC23E002211348B2
:102A0000FDF79CFC08211148FDF79AFC80210F4836
:102A1000FDF796FC4FF400710C48FDF791FC11E0B6
:102A200002210A48FDF78CFC08210848FDF788FCC4
:102A30004FF400710548FDF783FC80210348FDF742
:102A40007FFC00BF00BF10BD000C01400010014022
:102A50000008014005002400480000200048004014
:102A60004C000020500000202400002000380140CD
:102A700010B56FF00100FFF77CFA6FF00400FFF76C
:102A800060FA0020FFF775FA10BD10B5044642F257
:102A9000283104FB01F0FFF768FA0120FFF769FA1B
:102AA00000BF1020FFF797FA0028FAD06FF001005E
:102AB000FFF75FFA0020FFF75CFA10BD10B504467F
:102AC00004E04FF47A70FFF7E0FF641E002CF8DC9E
:102AD00010BD10B5044604EBC400FFF746FA012010
:102AE000FFF747FA00BF1020FFF775FA0028FAD069
:102AF0006FF00100FFF73DFA0020FFF73AFA10BD32
:102B00001FB54FF4165000900020ADF80400ADF84A
:102B10000600ADF808000C20ADF80A000020ADF862
:102B20000C0069462A48FEF72EF901212848FEF7D5
:102B300097F94FF4165000900020ADF80400ADF85E
:102B40000600ADF808000C20ADF80A000020ADF832
:102B50000C00012240F225511E48FEF78DF969460E
:102B60001C48FEF710F901211A48FEF779F91FBD3C
:102B700070B504460D4600260BE0A95D2046FEF721
:102B8000D9F900BF40212046FEF72BFA0028F9D0E2
:102B9000761CA85D0028F0D170BD70B504460D46C6
:102BA000002600BF0CE000BF20212046FEF719FAE6
:102BB0000028F9D12046FEF7C1F907498855761C4F
:102BC000AE42F0DB761C002003498855084670BDF4
:102BD0000038014000480040A400002010B5C82380
:102BE0004FF48062FF4940F6F63002F0C2F910BDA2
:102BF00010B586B00446FCA000680390FBA00068F6
:102C00000290FBA000680190FAA00068009004F018
:102C1000030003A9085C8DF8140003A8C4F3C101E4
:102C2000405C8DF8150003A8C4F38111405C8DF859
:102C3000160004F0030002A9085C8DF8100002A839
:102C4000C4F3C101405C8DF8110002A8C4F38111E6
:102C5000405C8DF8120005AA032140F2264002F0E4
:102C6000AFF818B14FF0FF3006B010BD04AA032131
:102C700040F22A4002F0A4F810B14FF0FF30F3E721
:102C8000019805900098049014F0040F0BD09DF863
:102C9000140040F001008DF814009DF8100040F081
:102CA00001008DF8100014F0200F0BD09DF81500D6
:102CB00040F001008DF815009DF8110040F0010072
:102CC0008DF8110014F4807F0BD09DF8160040F0B1
:102CD00001008DF816009DF8120040F001008DF8FB
:102CE000120005AA03214FF4886002F069F810B1C0
:102CF0004FF0FF30B8E704AA032140F2314002F060
:102D00005FF810B14FF0FF30AEE7BB480481002000
:102D1000AAE770B58AB00446B748008900F00300FE
:102D200054F820000790B448008910F0040F02D036
:102D3000079840420790B0480089C0F3C10054F89A
:102D400020000890AC48008910F0200F02D00898AD
:102D500040420890A8480089C0F3811054F8200030
:102D60000990A548008910F4807F02D0099840425C
:102D700009900798C11702460B46CDE904019FA0B0
:102D800060C8A2FB051003FB050002FB0600CDE9AD
:102D900002100846800F039940EA81008917CDE9A7
:102DA000000107900898C11794A3CDE904010CCB4A
:102DB000A0FB025601FB026100FB0310CDE90250AB
:102DC000A80F039940EA81008917CDE90001089016
:102DD0000998C11702460B46CDE9040187A060C8D7
:102DE000A2FB050103FB051102FB0611CDE902015F
:102DF000800F40EA81008917CDE90001099007980A
:102E0000000E8DF818000798000C8DF8190007982F
:102E1000000A8DF81A000798C0B28DF81B0006AAA8
:102E200004214FF4747001F0CBFF18B14FF0FF3064
:102E30000AB070BD0898000E8DF818000898000CB4
:102E40008DF819000898000A8DF81A000898C0B289
:102E50008DF81B0006AA04214FF4757001F0B0FF35
:102E600010B14FF0FF30E3E70998000E8DF818001D
:102E70000998000C8DF819000998000A8DF81A00BD
:102E80000998C0B28DF81B0006AA04214FF4767091
:102E900001F096FFCCE770B590B0044607A801F0AA
:102EA0008EFDBDF81C000021CDE90401C90341EAF3
:102EB0005041C203CDE908214F48008900F00300CA
:102EC00054F820000D904C48008910F0040F02D0F7
:102ED0000D9840420D9048480089C0F3C10054F855
:102EE00020000E904448008910F0200F02D00E9868
:102EF00040420E9040480089C0F3811054F82000F1
:102F00000F903D48008910F4807F02D00F98404216
:102F10000F900D98C11702460B46CDE90401DDE97B
:102F20000865A0FB061003FB060002FB0500CDE9C7
:102F300002100846800F039940EA81008917CDE905
:102F400000010D900E98C11702460B46CDE9040111
:102F5000DDE90865A0FB060103FB061102FB051174
:102F6000CDE90201800F40EA81008917CDE9000117
:102F70000E900F98C11702460B46CDE90401DDE91A
:102F80000856A0FB050103FB051102FB0611CDE964
:102F90000201800F40EA81008917CDE900010F90FE
:102FA0000D98000E8DF828000D98000C8DF8290062
:102FB0000D98000A8DF82A000D98C0B28DF82B00EC
:102FC0000E98000E8DF82C000E98000C8DF82D0038
:102FD0000E98000A8DF82E000E98C0B28DF82F00C2
:102FE0000F980FE0186E00084CCD6C000CC92C0037
:102FF0003656760026466600D800002009E3CA024D
:1030000000000000000E8DF830000F98000C8DF8C5
:1030100031000F98000A8DF832000F98C0B28DF879
:1030200033000AAA0C214FF4257001F0C9FE10B03C
:1030300070BD30B585B0054602A8FBA11CC91CC0F7
:10304000C82D03DD4FF0FF3005B030BDC82090FB28
:10305000F5F0401E84B2200A8DF80000E0B28DF831
:1030600001006A46022140F2162001F0A9FE10B1CB
:103070004FF0FF30E8E702AA0C2140F6C12001F032
:103080009FFE10B14FF0FF30DEE7EA488581002057
:10309000DAE70146E74880890880002070472DE97B
:1030A000FC4704460D4614F0070F02D0B5F5C86F73
:1030B00003DD4FF0FF30BDE8FC87284603F0CDF874
:1030C0008146DD4902F0CAFE0646684601F01CF959
:1030D0009DF80000022806D0042817D0082828D020
:1030E00010284CD138E04FF08D41304602F083FE7D
:1030F000814603F0E2F887B2D049304602F07BFE09
:10310000814603F0DAF81FFA80F83BE04FF08C417B
:10311000304602F070FE814603F0CFF887B2C8490E
:10312000304602F068FE814603F0C7F81FFA80F8C7
:1031300028E04FF08B41304602F05DFE814603F0FF
:10314000BCF887B2BF49304602F055FE814603F015
:10315000B4F81FFA80F815E04FF08A41304602F0CB
:103160004AFE814603F0A9F887B2B749304602F01B
:1031700042FE814603F0A1F81FFA80F802E04FF00A
:10318000FF3098E700BF38128DF80400F8B28DF8D0
:1031900005004FEA28208DF8060008F0FF008DF8A2
:1031A000070014F0010F14D001AA02214FF4EA70B5
:1031B00001F006FE10B14FF0FF307CE70DF1060282
:1031C00002214FF4927001F0FBFD10B14FF0FF307F
:1031D00071E714F0020F14D001AA02214FF4EC7031
:1031E00001F0EEFD10B14FF0FF3064E70DF1060283
:1031F00002214FF4947001F0E3FD10B14FF0FF3065
:1032000059E714F0040F14D001AA02214FF4EE7014
:1032100001F0D6FD10B14FF0FF304CE70DF1060282
:1032200002214FF4967001F0CBFD10B14FF0FF304A
:1032300041E700203FE738B504460020009014F035
:10324000010F04D09DF8000040F03000009014F011
:10325000020F04D09DF8000040F00C00009014F024
:10326000040F04D09DF8000040F0030000906A466F
:1032700001214FF4A47001F0A3FD38BD38B5044618
:10328000012C01DA012402E0042C00DD0424601E7C
:10329000C0B200906A46012140F24F1001F090FD4B
:1032A00038BD38B50446052094FBF0F085B22812ED
:1032B0008DF80000E8B28DF801006A4602214FF453
:1032C000EF7001F07DFD38BD38B50446052094FB54
:1032D000F0F085B228128DF80000E8B28DF80100F8
:1032E0006A4602214FF4ED7001F06AFD38BDF8B571
:1032F00004460D464FF47A7094FBF0F000FB05F69F
:10330000300E8DF80000300C8DF80100300A8DF879
:103310000200F0B28DF803006A4604214FF4AE704B
:1033200001F04EFDF8BD38B50446052094FBF0F0E1
:1033300084B220128DF80000E0B28DF801006A46D8
:1033400002214FF4AD7001F03BFD38BD38B50446A5
:10335000052094FBF0F084B220128DF80000E0B25A
:103360008DF801006A4602214FF4AC7001F028FD8F
:1033700038BD38B5044614B94FF0FF3038BD6A4641
:1033800004214FF4587001F058FD10B14FF0FF3098
:10339000F4E79DF8000000069DF8011040EA0140A6
:1033A0009DF8021040EA01209DF8031008432060B8
:1033B0000020E3E738B50446200E8DF80000200C0D
:1033C0008DF80100200A8DF80200E0B28DF80300AC
:1033D0006A4604214FF4587001F0F2FC38BD38B54C
:1033E000044614B94FF0FF3038BD6A4604214FF44B
:1033F000717001F022FD10B14FF0FF30F4E79DF83D
:10340000000000069DF8011040EA01409DF80210FE
:1034100040EA01209DF80310084300EB8000800083
:1034200020600020E0E70000FEF2ABC4AAF1DFDF7D
:10343000BBAFDFDFD800002000004843000040465B
:103440000000C045000040450000C04438B50446B7
:103450001420B4FBF0F4200E8DF80000200C8DF841
:103460000100200A8DF80200E0B28DF803006A46E0
:1034700004214FF4717001F0A3FC38BD38B5044647
:1034800064B120208DF8000028208DF80100302044
:103490008DF8020038208DF8030004E0A3220421F7
:1034A000684602F034FC6A46042140F69E2001F092
:1034B00087FC00F0E9FB38BD38B5044664B1C02094
:1034C0008DF80000C2208DF80100C4208DF80200A4
:1034D000C6208DF8030004E08B220421684602F028
:1034E00016FC6A46042140F6982001F069FC00F0C1
:1034F000CBFB38BD3EB5044654B16846FCA12CC98F
:103500002CC06A4609214FF4976001F059FC3EBD7A
:103510006846FAA12CC92CC06A4609214FF497606D
:1035200001F04EFCF3E73EB5044602208DF80000A2
:10353000CA208DF80100E3208DF8020009208DF8E3
:1035400003006A460421682001F03AFCA3208DF8AC
:10355000000014F0400F09D0C0208DF80100C820F1
:103560008DF80200C2208DF8030006E0A3208DF83C
:1035700001008DF802008DF8030014F4C07F09D01B
:10358000C4208DF80400CC208DF80500C6208DF8ED
:10359000060006E0A3208DF804008DF805008DF8E4
:1035A0000600A3208DF807008DF808008DF80900AB
:1035B0006A460A2140F6A72001F002FC14F0030F2E
:1035C00003D020208DF8000002E0D8208DF8000004
:1035D0006A46012140F6B62001F0F2FB14F0200FFC
:1035E00003D00120FFF786FF02E00020FFF782FFF3
:1035F00014F4C07F21D014F4807F0CD0B2208DF859
:1036000000008B208DF80100B6208DF802009B2071
:103610008DF803000BE0B0208DF8000080208DF8BD
:103620000100B4208DF8020090208DF803006A4656
:10363000042140F6A22001F0C3FB14F0010F24D0B6
:10364000F8208DF800006A4601214FF40B6001F06C
:10365000B7FBFA210720FFF722FD0720FFF7EBFD5C
:103660000120FFF70BFE6420FFF71BFE4FF4FA70FA
:10367000FFF72AFEC821A448FFF739FE2820FFF7EC
:1036800052FE0A20FFF762FE08E0D8208DF8000005
:103690006A4601214FF40B6001F092FB14F0020F17
:1036A00003D0D9208DF8000002E0D8208DF800006A
:1036B0006A46012140F23D7001F082FB14F0040FD4
:1036C00003D00120FFF7F8FE02E00020FFF7F4FE30
:1036D00014F0100F03D00120FFF7D0FE02E000200D
:1036E000FFF7CCFE44F008008849488100F0CCFA8E
:1036F00000208649887314F0400F03D00846807B71
:10370000801D887314F4C07F04D08048807B801DA6
:103710007E49887314F0140F04D07C48807B1030ED
:103720007A49887314F0030F04D07848807B001D19
:103730007649887300203EBD014674484089088060
:10374000002070472DE9F0410446E07800F0C00603
:10375000E07800F03F05607810F0010F13D0EF1013
:103760002846E91705EB5171C910A5EBC101491CA9
:1037700001F0FF086548006820B1644841460268CE
:103780003846904700BF607810F0080F06D05F48B9
:10379000406818B1B0115D4A516888470020BDE803
:1037A000F08110B586B0044603A859A10EC90EC019
:1037B00068465AA10EC90EC0012C09D0022C0ED1A8
:1037C00003AA0B2140F6822001F0FAFA06B010BDE0
:1037D0006A460B2140F6822001F0F2FAF6E74FF03C
:1037E000FF30F3E72DE9F04F8DB004460D46164645
:1037F0009A46DDE916784FF00009002038804349E9
:10380000887B424605A901F05DFB40B13F49887BBA
:10381000424605A901F056FB0DB0BDE8F08F3B48CC
:10382000408910F0140F62D09DF8140000069DF836
:10383000151040EA01409DF8161040EA01209DF85D
:103840001710084330609DF8180000069DF8191005
:1038500040EA01409DF81A1040EA01209DF81B1033
:10386000084370609DF81C0000069DF81D1040EA9A
:1038700001409DF81E1040EA01209DF81F100843EA
:10388000B0609DF8200000069DF8211040EA01403C
:103890009DF8221040EA01209DF823100843F060B3
:1038A00009F1100000F0FF09306800140190706801
:1038B00000140290B06800140390F06800140490A3
:1038C00001984043029901FB0100039901FB0100AB
:1038D000049901FB010BBBF1706F02DBBBF1885F48
:1038E00022DD00F0D1F900203880022094E721E0A9
:1038F000B8AAB38DB4980D355D000000B8AAAAAA85
:10390000B088C3C5C700000009E3CA02D800002080
:10391000D8B1B9F38BA391B609B4D900DAB1B9F330
:103920008BA391B6DAB4DA00B7F9000040F48070E6
:10393000388000BF3748408910F0400F27D005A9D4
:1039400009F10100095C05AA12F8090041EA00200A
:1039500000B2288005A909F10300095C401E105C33
:1039600041EA002000B2688005A909F10500095C60
:10397000401E105C41EA002000B2A88009F1060058
:1039800000F0FF09B7F9000040F008003880214836
:10399000408910F4C07F27D005A909F10100095C16
:1039A00005AA12F8090041EA002000B2208005A90A
:1039B00009F10300095C401E105C41EA002000B2DE
:1039C000608005A909F10500095C401E105C41EA10
:1039D000002000B2A08009F1060000F0FF09B7F94D
:1039E000000040F0700038800A48408910F0030F52
:1039F00004D005A901EB0900FFF7A4FE00200BE7A6
:103A000001460448016000207047014601484160BA
:103A100000207047D800002038B50446FA48807A64
:103A200010B94FF0FF3038BDFA2C09D0B4F5FA7F49
:103A300009D0B4F57A7F09D0B4F5FA6F0CD108E05B
:103A4000002000900BE00820009008E0102000907B
:103A500005E01820009002E04FF0FF30E3E700BFE0
:103A6000E948007A9DF80010B0EBE10F01D1002089
:103A7000D9E7E54A12689179E34A526810786B46B3
:103A8000012202F049F810B14FF0FF30CBE79DF86A
:103A90000000C010DC4908720020C4E738B50446B5
:103AA000D948807A10B94FF0FF3038BD022C06D0CB
:103AB000042C07D0082C08D0102C0CD108E00020D2
:103AC00000900BE00820009008E01020009005E036
:103AD0001820009002E04FF0FF30E6E700BFCA4830
:103AE000407A9DF80010B0EBE10F01D10020DCE737
:103AF000C54A1268D179C44A526810786B460122CF
:103B000002F00AF810B14FF0FF30CEE79DF8000048
:103B1000C110BD4841720020C7E738B50446BA4815
:103B2000807A10B94FF0FF3038BDBC2C02DB012089
:103B3000009015E0622C02DB0220009010E02A2C9D
:103B400002DB032000900BE0142C02DB0420009029
:103B500006E00A2C02DB0520009001E00620009020
:103B6000A948C07A9DF80010884201D10020DBE707
:103B7000A54A12689178A44A526810786B460122CF
:103B800001F0CAFF10B14FF0FF30CDE79DF80010F3
:103B90009D48C1720020C7E738B504469A4890F89E
:103BA0002300A04201D1002038BD14B13020009084
:103BB00001E0002000909448807C20B19DF8000036
:103BC00040F002000090904890F8220020B19DF84B
:103BD000000040F0800000908B4A1268117D8A4AF4
:103BE000526810786B46012201F096FF10B14FF039
:103BF000FF30D9E7844880F823400020D4E738B567
:103C00000446814890F82400C0B114B1022000900D
:103C100001E0002000907C4A1268D17B7A4A526809
:103C200010786B46012201F077FF10B14FF0FF30A2
:103C300038BD9DF800107448417423E07248807AC2
:103C400010B94FF0FF30F3E724B16F48407C08B162
:103C50000020EDE714B10120009001E00020009069
:103C6000694A1268D17B684A526810786B46012213
:103C700001F052FF10B14FF0FF30D9E79DF800106E
:103C8000614841740020D3E708B55F48807A10B9D5
:103C90004FF0FF3008BD002000905B4A1268D17BD6
:103CA000594A526810786B46012201F035FF10B175
:103CB0004FF0FF30EEE7544A12685179524A526889
:103CC00010786B46012201F027FF10B14FF0FF3052
:103CD000E0E74D4A126811794B4A526810786B46FA
:103CE000012201F019FF10B14FF0FF30D2E7464832
:103CF00090F82400002853D00C200090424A12680B
:103D00001179414A526810786B46012201F004FF94
:103D100010B14FF0FF30BDE7322001F0F1FEC020BE
:103D200000903948807A10F0010F04D09DF800000F
:103D300040F020000090344A12681179324A5268EB
:103D400010786B46012201F0E7FE10B14FF0FF3012
:103D5000A0E72D48407C10B10220009001E0002037
:103D60000090294A1268D17B274A526810786B4626
:103D7000012201F0D1FE10B14FF0FF308AE70020A0
:103D80000090214A126851791F4A526810786B4698
:103D9000012201F0C1FE002857D04FF0FF3079E733
:103DA00004200090184A12681179174A5268107856
:103DB0006B46012201F0B0FE10B14FF0FF3069E711
:103DC0001148807C20B91048807A10F0010F02D190
:103DD0004020009001E0602000900B4A12681179A9
:103DE000094A526810786B46012201F095FE10B125
:103DF0004FF0FF304EE7322001F082FE0248407C57
:103E000020B10120009003E060000020002000901D
:103E1000FF4A1268D17BFE4A526810786B46012235
:103E200001F07AFE10B14FF0FF3033E7F84A126824
:103E30005179F74A52681078F54B1033012201F09E
:103E40006BFE10B14FF0FF3024E7002022E770B581
:103E50000446002624F00104ED4890F8240008B13F
:103E6000002070BDEA48807A10B94FF0FF30F8E7C3
:103E7000E748057C817A21400174007CA04202D091
:103E80004FF0FF3600E0002614B9E148007D18B17C
:103E90000120FFF7B4FE02E00020FFF7B0FE3CB1C6
:103EA000FFF7F2FE20B1DA4805744FF0FF30D8E793
:103EB0003046D6E738B50446282C02DD4FF0FF30F7
:103EC00038BDDCB90020FFF767FE00208DF8000048
:103ED00007208DF80100CE4A1268917CCC4A5268C6
:103EE00010786B46022201F017FE10B14FF0FF3040
:103EF000E6E70021C64801750020E1E70120FFF751
:103F00004BFE20208DF80000012C06D100208DF8FA
:103F100001000520FFF701FE17E0052C06DC01205B
:103F20008DF801000520FFF7F8FD0EE0142C06DCEB
:103F300002208DF801000A20FFF7EFFD05E00320C5
:103F40008DF801001420FFF7E8FD9DF8010007211E
:103F500001EB8010C0B28DF80100AD4A1268917C6F
:103F6000AB4A526810786B46022201F0D5FD10B1C1
:103F70004FF0FF30A4E70821A548817200210173AA
:103F8000012101750020FFF762FF002098E738B596
:103F900004469F48807A10B94FF0FF3038BD9C48E6
:103FA00090F8240010B14FF0FF30F7E79848007DFB
:103FB00050B134B1282C04DCE0B2FFF77BFF0020C5
:103FC000ECE70020FFF776FF042C01DA042404E07C
:103FD000B4F57A7F01DD4FF47A744FF47A7090FB78
:103FE000F4F0401EC0B20090894A12685178884AA5
:103FF000526810786B46012201F08EFD10B14FF02F
:10400000FF30CBE79DF80000401C4FF47A7191FB24
:10401000F0F081B27E48C1810146C9894810FFF79E
:104020007CFD0020BAE738B504467948807CA04280
:1040300001D1002038BD002C46D0754A1268117994
:10404000734A526810786B46012201F088FD10B166
:104050004FF0FF30EEE79DF8000020F020000090C8
:104060006B4A126811796A4A526810786B460122CD
:1040700001F052FD10B14FF0FF30DBE7032001F0FB
:104080003FFD02200090624890F8220020B19DF888
:10409000000040F0800000905D4890F8230020B1BF
:1040A0009DF8000040F030000090594A1268117DE0
:1040B000574A526810786B46012201F02DFD002806
:1040C00051D04FF0FF30B5E7514A12681179504A8C
:1040D000526810786B46012201F041FD10B14FF09B
:1040E000FF30A7E74A48807A10F0010F05D09DF80D
:1040F000000040F02000009004E09DF8000020F057
:1041000020000090424A12681179414A52681078A2
:104110006B46012201F000FD10B14FF0FF3089E73E
:10412000032001F0EDFC3A4890F8220010B1802005
:10413000009001E000200090354890F8230020B165
:104140009DF8000040F030000090314A1268117D67
:104150002F4A526810786B46012201F0DDFC10B145
:104160004FF0FF3066E72A488474002062E738B5D4
:10417000044614F0700F02D00120009005E014B145
:104180000020009001E040200090214A1268917CBC
:104190001F4A526810786B46012201F0BDFC20B125
:1041A00000211B488172481E38BD9DF8000020F098
:1041B0004001174801730020009014F0400F04D113
:1041C0009DF8000040F00400009014F0200F04D18E
:1041D0009DF8000040F00200009014F0100F04D190
:1041E0009DF8000040F00100009014F0080F04D189
:1041F0009DF8000040F038000090054A1268D17C1C
:10420000034A526810786B46012201F085FC01E0F8
:104210006000002020B10021FA488172481EC3E7E7
:1042200024B1082C02D00020FFF7B6FCF5488472B8
:1042300000210175322001F063FC0020B4E738B59D
:104240000446F04890F82400A04201D1002038BD77
:1042500024B3EC4890F8250010B94FF0FF30F6E792
:104260000020FFF7CCFC0020FFF7DDFEE549C88CFD
:10427000FFF78DFE00200090E249496808786B4600
:104280000122232101F048FC0121DE4880F824109E
:104290000120FFF7B4FCFFF7F7FC13E00020FFF765
:1042A000AEFCD848007C0090D649496808786B4637
:1042B0000122232101F030FC0021D24880F8241093
:1042C000FFF7E2FC0020C2E70146CE48007A30B199
:1042D000012807D0022809D003280FD10AE0FA20CC
:1042E00008800EE04FF4FA7008800AE04FF47A700C
:1042F000088006E04FF4FA60088002E000200880A1
:1043000000BF00BF002070470146BE48407A30B170
:10431000012807D0022808D003280CD108E0022089
:1043200008700BE00420087008E00820087005E021
:104330001020087002E04FF0FF30704700BFB14816
:10434000C07C18B108784006000E08700020F4E721
:104350000146AC48C07A082817D2DFE800F01704FD
:10436000070A0D101318BC20088013E06220088093
:1043700010E02A2008800DE0142008800AE00A20BE
:10438000088007E00520088004E000BF00BF00208F
:10439000088000BF00BF002070470146994890F890
:1043A000240010B14FF0FF3070479648C089088054
:1043B0000020F9E701469348007C08700020704710
:1043C0002DE9F04F8FB004460D46164601208DF8BA
:1043D000300000208DF831008A4A1268917C894AA9
:1043E000526810780CAB022201F096FB20B14FF01E
:1043F000FF300FB0BDE8F08FC82001F081FB002036
:104400008DF830007F4A1268D17B7E4A526810785E
:104410000CAB012201F080FB10B14FF0FF30E8E758
:10442000784A12685179774A526810780CAB0122A9
:1044300001F072FB10B14FF0FF30DAE7714A1268F9
:10444000917C704A526810780CAB012201F064FB39
:1044500010B14FF0FF30CCE76A4A1268D17D694A4B
:10446000526810780CAB012201F056FB10B14FF0EE
:10447000FF30BEE7634A12681179624A52681078C9
:104480000CAB012201F048FB10B14FF0FF30B0E758
:104490000C208DF830005B4A12681179594A526835
:1044A00010780CAB012201F037FB10B14FF0FF3058
:1044B0009FE70F2001F024FB5248806A407A8DF874
:1044C0003000504A126891784E4A526810780CAB0E
:1044D000012201F021FB10B14FF0FF3089E749487C
:1044E000806A007A8DF83000464A12685178454A51
:1044F000526810780CAB012201F00EFB10B14FF0A6
:10450000FF3076E73EB13F48806A807A40F0E000B5
:104510008DF8300004E03B48806A807A8DF83000E6
:10452000384A12689179374A526810780CAB0122E8
:1045300001F0F2FA10B14FF0FF305AE73EB13148C6
:10454000806AC07A40F0E0008DF8300003E02E4829
:10455000C07A8DF830002B4A1268D179294A526806
:1045600010780CAB012201F0D7FA10B14FF0FF30F8
:104570003FE716B1C82001F0C3FA40208DF83000A3
:10458000204A126811791F4A526810780CAB012238
:1045900001F0C2FA10B14FF0FF302AE778208DF811
:1045A0003000184A12685179164A526810780CABDC
:1045B000012201F0B1FA10B14FF0FF3019E71249B2
:1045C000888901F09DFA00208DF830000D4A1268AC
:1045D00051790C4A526810780CAB012201F09CFA18
:1045E00010B14FF0FF3004E7064A1268917A054A8D
:1045F000526810780CAB022201F0B1FA30B14FF0E2
:10460000FF30F6E660000020387A00089DF831009F
:104610009DF8301040EA01290C2099FBF0F0C7B258
:104620000020A06060602060A8606860286080460C
:1046300065E0FC4A1268D17AFA4A526810780CABED
:104640000C2201F08CFA10B14FF0FF30D1E69DF84A
:1046500031009DF8301040EA012000B2ADF828008A
:104660009DF833009DF8321040EA012000B2ADF809
:104670002A009DF835009DF8341040EA012000B270
:10468000ADF82C00BDF92810286808442860BDF951
:104690002A10686808446860BDF92C10A8680844AE
:1046A000A8609DF837009DF8361040EA012000B25E
:1046B000ADF820009DF839009DF8381040EA01203F
:1046C00000B2ADF822009DF83B009DF83A1040EA98
:1046D000012000B2ADF82400BDF920102068084484
:1046E0002060BDF92210606808446060BDF92410A4
:1046F000A0680844A06008F1010000F0FF08B84578
:1047000097DB2068C117CDE9060101460798000430
:1047100040EA11400904CDE90410C348D0F800B0C4
:10472000002003465A46CDE908B0DDE9040101F056
:10473000B9FABA46CDE90201002003463A46CDE96E
:104740000A70029801F0AEFACDE9000120606068BD
:10475000C117CDE9060101460798000440EA11405F
:104760000904CDE90410B048D0F800B00020034699
:104770005A46CDE908B0DDE9040101F093FACDE92C
:104780000201002003463A46CDE90A70029801F082
:1047900089FACDE900016060A068C117CDE9060182
:1047A00001460798000440EA11400904CDE90410CD
:1047B0009D48D0F800B0002003465A46CDE908B025
:1047C000DDE9040101F06EFACDE9020100200346A3
:1047D0003A46CDE90A70029801F064FACDE9000189
:1047E000A0602868C117CDE90601014607980004BA
:1047F00040EA11400904CDE904108B48D0F804B018
:10480000002003465A46CDE908B0DDE9040101F075
:1048100049FACDE90201002003463A46CDE90A7083
:10482000029801F03FFACDE9000128606868C117DD
:10483000CDE9060101460798000440EA1140090449
:10484000CDE904107848D0F804B0002003465A4659
:10485000CDE908B0DDE9040101F024FACDE9020157
:10486000002003463A46CDE90A70029801F01AFA90
:10487000CDE900016860A868C117CDE906010146CD
:104880000798000440EA11400904CDE90410664885
:10489000D0F804B0002003465A46CDE908B0DDE95F
:1048A000040101F0FFF9CDE90201002003463A4678
:1048B000CDE90A70029801F0F5F9CDE90001A86090
:1048C000A868002804DDA868A0F58030A86003E08F
:1048D000A86800F58030A86000208AE57CB5044611
:1048E00050494968087801AB04220D2101F037F9DD
:1048F00008B107207CBD9DF80700C0F301109DF8AA
:10490000041001F0E00140EAE1008DF800009DF89C
:104910000700C0F381009DF8051001F0E00140EAB6
:10492000E1008DF801009DF8070000F003009DF8FC
:10493000061001F0E00140EAE1008DF802000025D8
:104940001CE01DF8050018B9002044F8250013E00C
:10495000364844F8250006E054F82500344901F0B3
:104960004AFA44F825001DF80500401E10F0FF002B
:104970000DF80500F0D100BF681CC5B2032DE0DBC7
:104980000020B7E701462748007A30B1012807D058
:10499000022808D003280CD108E0264808600BE064
:1049A0002548086008E02548086005E024480860BC
:1049B00002E04FF0FF30704700BF0020FBE70146E8
:1049C0001848407A30B1012808D002280AD00328BC
:1049D00010D10BE04FF4804008800EE041F69C704F
:1049E00008800AE04FF48050088006E04FF4006031
:1049F000088002E04FF0FF30704700BF0948C07CDC
:104A000010B10888401008800020F5E72DE9F04F2C
:104A100089B004460D46002706A8FFF75FFF002671
:104A20005FE0000060000020387A00087B14AE3E92
:104A30001D5A843F00000343000083423333034286
:104A40003333834154F8260055F82610B0EB010AA1
:104A500001D4514601E0CAF10001084601F0F3FB20
:104A600083464FF08F4101F0F9F9804606A951F8CD
:104A70002600002101F08CFC23D006A850F8261057
:104A8000404601F0EBF982464FF07E5101F0A3F968
:104A90008146F949486A01F024FCCDE90401484601
:104AA00001F01FFCCDE9020121F00041CDE9000138
:104AB000DDE9042301F028FC12D20120B0400743B5
:104AC0000EE0ED48C169404601F062FC05D3EA48BA
:104AD000016A404601F066FC02D20120B040074363
:104AE000761C032EAEDB384609B0BDE8F08F2DE909
:104AF000F04F87B004460D460027E0494968087822
:104B000006AB03220D2101F02AF818B1072007B0E7
:104B1000BDE8F08F9DF8180000F01F008DF8180018
:104B20009DF8190000F01F008DF819009DF81A007B
:104B300000F01F008DF81A00002661E054F82600EE
:104B400055F82610B0EB010B01D4594601E0CBF12A
:104B50000001084601F077FB4FF08F41059001F00E
:104B60007DF9814606A8805D002839D0C2490868D1
:104B700001F073FB83460146C14801F06FF980469E
:104B800004E0C049404601F036F9804606A8805D41
:104B9000401E10F0FF0006A98855F2D14146484654
:104BA00001F05CF983464FF07E5101F014F9824622
:104BB000B149886901F095FBCDE90401504601F047
:104BC00090FBCDE9020121F00041CDE90001DDE9D2
:104BD000042301F099FB12D20120B04007430EE0FC
:104BE000A5480169484601F0D3FB05D3A2484169B5
:104BF000484601F0D7FB02D20120B0400743761CA3
:104C0000032E9BDB384682E72DE9F04F8DB004463A
:104C10000D4602200C90994890F8240028B10020FD
:104C2000FFF70DFB4FF0010B01E04FF0000B03A865
:104C3000FFF74AFB05A8FFF767FB01A8FFF788FB12
:104C400002A8FFF7AAFB8D4890F80AA004A8FFF776
:104C5000B1FB4FF0000808E0002229462046FFF78C
:104C6000AFFB00B904E008F10108B8F1020FF3DB73
:104C700000BFB8F1020F02D14FF0000928E04FF059
:104C8000000808E0012206A909A8FFF799FB00B96E
:104C900004E008F10108B8F1020FF3DB00BFB8F13E
:104CA000020F02D14FF0000912E006A92846FFF7D3
:104CB000ADFEC6B209A92046FFF719FFC7B24FF0F3
:104CC00000090FB949F001090EB949F0020900BF06
:104CD000FF206A490872FF2168484172C1724FF68D
:104CE000FF71C181FF218172017401210173BDF83F
:104CF0000C00FEF791FE9DF81400FEF7CFFEBDF804
:104D00000400FEF70AFFBDF80800FFF740F950461F
:104D1000FFF72DFA9DF81000FFF799F8BBF1000F8F
:104D200002D00120FFF78BFA48460DB0BDE8F08FA6
:104D300070B588B002A905A8FFF766FF0446032CEA
:104D40003CD101A8FFF71EFE059801F07CFA06464B
:104D5000019901F050F8054601F096FA0590069881
:104D600001F071FA0646019901F045F8054601F097
:104D70008BFA0690079801F066FA0646019901F051
:104D80003AF8054601F080FA079005A8FDF7C1FF43
:104D90006846FFF714FEBDF80010029848430290E1
:104DA000BDF80010039848430390BDF80010049824
:104DB0004843049002A8FEF76EF800BF08B070BD2B
:104DC000F8B504460D46164616B94FF0FF30F8BD4B
:104DD0002A48807A10B94FF0FF30F8E720128DF89A
:104DE0000000E0B28DF801009DF80100284423493D
:104DF00049684989884202DD4FF0FF30E7E71F4AE2
:104E00001268117E1D4A526810786B46022200F02B
:104E100083FE10B14FF0FF30D9E7184A1268517D78
:104E2000164A526810783346EAB200F075FE10B1A7
:104E30004FF0FF30CBE70020C9E7F8B504460D4638
:104E4000164616B94FF0FF30F8BD0C48807A10B9FD
:104E50004FF0FF30F8E720128DF80000E0B28DF837
:104E600001009DF8010028440449496849898842A5
:104E70000ADD4FF0FF30E7E7387A000860000020D5
:104E800000B04C4554E3853FF84A1268117EF74A5A
:104E9000526810786B46022200F03EFE10B14FF0CF
:104EA000FF30D1E7F14A1268517DF04A526810781C
:104EB0003346EAB200F053FE10B14FF0FF30C3E7C3
:104EC0000020C1E7F8B504460D461646E74890F8BD
:104ED000240008B90120F8BDE448807A08B902200E
:104EE000F9E7E24A1268917AE04A526810786B4614
:104EF000022200F034FE08B10320ECE79DF8010027
:104F00009DF8001040EA0127A74203DA0020307024
:104F10000420E0E7D54840684088B7EB600F15DD16
:104F2000D24A1268517CD14A526810786B460122ED
:104F300000F015FE08B10520CDE79DF8000010F047
:104F4000100F03D0FEF7A0FE0620C4E7C74A126880
:104F5000D17AC64A526810782B46E2B200F0FFFDC3
:104F600008B10720B7E797FBF4F0401E307000202F
:104F7000B1E72DE9F04385B004460D4616461F46BD
:104F8000BA4890F8250020B14FF0FF3005B0BDE8D9
:104F9000F08315B94FF0FF30F8E74FF000082AE032
:104FA000A4EB0800102801DD102001E0A4EB0800AC
:104FB0001FFA80F905EB080249464046FFF700FF5B
:104FC00010B14FF0FF30E1E701AA49464046FFF734
:104FD00034FF10B14FF0FF30D8E705EB08004A4628
:104FE00001A900F0A7FE10B16FF00100CEE708EBB9
:104FF00009001FFA80F8A045D2DB30128DF80000BE
:10500000F0B28DF80100994A1268917E974A526871
:1050100010786B46022200F07FFD10B14FF0FF3098
:10502000B4E70121914880F82510C7840020ADE73E
:10503000014691F90020002A01DD00201EE091F9CF
:105040000020002A01DA042018E091F90120002A4A
:1050500001DD012012E091F90120002A01DA05208A
:105060000CE091F90220002A01DD022006E091F90E
:105070000220002A01DA062000E00720704770B500
:1050800004462046FFF7D4FF0546E01CFFF7D0FF9B
:1050900045EAC00085B2A01DFFF7CAFF45EA8010AF
:1050A00085B2284670BD1CB5704A126811786F4AE7
:1050B000526810786B46012200F051FD08B10120C2
:1050C0001CBD02216A48FBF735FF9DF800006828E7
:1050D00001D00220F4E780208DF80000634A1268B6
:1050E000917C624A526810786B46012200F014FDF0
:1050F00008B10320E4E7642000F002FD00208DF8F1
:1051000000005A4A1268917C584A526810786B46DF
:10511000012200F001FD08B10420D1E7534A1268D2
:10512000917D524A526810786B46062200F017FDB6
:1051300008B10520C4E79DF80500C007400F9DF8A1
:10514000031001F0010140EA41009DF8011001F057
:10515000010140EA01046CB1012C03D10121434853
:10516000C17424E0022C03D100214048C1741EE028
:105170000620A5E73D4A1268D1783C4A526810786B
:105180006B46012200F0EBFC08B1072098E79DF880
:10519000000000F00F040CB9052091E7042C03D1A6
:1051A00001213248C17402E000213048C174FF215E
:1051B0002E488172FF202D490872FF212B48417231
:1051C000C1724FF6FF71C181FF2101748174012109
:1051D000017380F82210002180F8231041750175B9
:1051E0000C21163000F09AFD0021204880F8241090
:1051F00080F82510C1844FF4FA60FEF70DFC08B169
:1052000010205DE70220FEF749FC08B1112057E7A6
:105210002A20FEF782FC08B1122051E73220FEF767
:10522000B6FE08B113204BE70020FEF710FE08B1D0
:10523000142045E70020FEF7F6FE08B115203FE7F1
:105240000020FEF794FF00203AE710B5FFF72BFF90
:1052500008A10748FDF78CFC7820FEF788FF20B9ED
:105260000BA10348FDF784FC24E01FE06000002050
:1052700000380140502D312C46696E697368204416
:105280004D502064657669636520696E69742E00EF
:10529000502D322C46696E69736820444D5020733E
:1052A00065742073656E736F722E000038A13F48DD
:1052B000FDF75EFC7820FEF7CAFD20B93CA13B4813
:1052C000FDF756FC03E042A13848FDF751FC64208D
:1052D000FEF75DFE20B946A13448FDF749FC03E026
:1052E0004BA13248FDF744FCFDF778FC20B950A1F2
:1052F0002E48FDF73DFC03E058A12C48FDF738FC93
:105300006148FFF7BCFE0446FDF772FC20B95FA1BF
:105310002648FDF72DFC03E064A12448FDF728FC96
:1053200040F27310FEF7FFF820B968A11F48FDF79F
:105330001FFC03E06DA11D48FDF71AFC6420FDF77A
:1053400078FE20B971A11948FDF712FC03E077A19E
:105350001648FDF70DFCFFF7EBFC0120FEF76FFF91
:1053600020B97AA11148FDF703FC03E07FA10F48A3
:10537000FDF7FEFB002010BD1CB5844B844ACDE92F
:105380000023844B844A85498548FEF72BFA1CBDCF
:10539000502D322C444D50207365742073656E730C
:1053A0006F72206572726F722E000000003801402B
:1053B000502D332C46696E69736820444D5020632C
:1053C0006F6E666967757265206669666F2E00008C
:1053D000502D332C444D5020636F6E666967757293
:1053E00065206669666F206572726F722E0000001C
:1053F000502D342C46696E69736820444D502073DB
:1054000065742073616D706C6520726174652E0027
:10541000502D342C444D50207365742073616D7091
:105420006C655F72617465206572726F722E000028
:10543000502D352C46696E69736820444D50206CA0
:105440006F6164206D6F74696F6E20647269766538
:1054500072206669726D776172652E00502D352C51
:10546000444D50206C6F6164206D6F74696F6E20C5
:10547000647269766572206669726D776172652003
:105480006572726F722E000054000020502D362C71
:1054900046696E69736820444D5020736574206FAF
:1054A0007269656E746174696F6E2E00502D362CB2
:1054B000444D5020736574206F7269656E74617419
:1054C000696F6E206572726F722E0000502D372C3E
:1054D00046696E69736820444D5020656E61626C48
:1054E0006520666561747572652E0000502D372C3D
:1054F000444D5020656E61626C652066656174750F
:105500007265206572726F722E000000502D382C6B
:1055100046696E69736820444D5020736574206637
:1055200069666F20726174652E000000502D382C62
:10553000444D5020736574206669666F20726174F3
:1055400065206572726F722E00000000502D392C9C
:1055500046696E69736820444D50207365742064F9
:105560006D702073746174652E000000502D392C0D
:10557000444D502073657420646D702073746174A1
:1055800065206572726F722E000000009A00002084
:10559000980000209C000020E800002092000020DD
:1055A0008C00002000BF411E0800FCD1704708B5E8
:1055B00001210820FBF7A4F84FF44050ADF800009B
:1055C00002208DF8020014208DF803006946FF4880
:1055D000FAF70CFE0820ADF8000002208DF802005A
:1055E00004208DF803006946F848FAF7FFFD4FF4F0
:1055F0008051F648FAF7A2FE4FF40051F348FAF74B
:105600009DFEF348FFF7CEFF08BD10B54FF40051E3
:10561000EE48FAF793FE0A20FFF7C4FF4FF48051DB
:10562000EA48FAF78BFE0A20FFF7BCFF4FF400515F
:10563000E648FAF769FE08B9012010BD4FF40051A1
:10564000E248FAF77DFE0A20FFF7ACFF4FF48051E5
:10565000DE48FAF775FE0A20FFF7A4FF4FF4005169
:10566000DA48FAF751FE08B10220E6E70020E4E745
:1056700010B54FF40051D548FAF762FE0A20FFF743
:1056800091FF4FF48051D148FAF758FE0A20FFF7F6
:1056900089FF4FF40051CD48FAF750FE0A20FFF77A
:1056A00081FF10BD10B54FF40051C848FAF748FE0D
:1056B0000A20FFF777FF4FF48051C448FAF73EFE07
:1056C0000A20FFF76FFF4FF48051C048FAF738FE09
:1056D0000A20FFF767FF10BD10B54FF40051BB481B
:1056E000FAF72CFE0A20FFF75DFF4FF48051B74810
:1056F000FAF724FE0A20FFF755FF4FF48051B34814
:10570000FAF71EFE0A20FFF74DFF10BD70B50546E3
:105710004FF48051AD48FAF713FE002424E015F051
:10572000800F05D04FF40051A848FAF707FE04E0B7
:105730004FF40051A548FAF703FE6806050E0A204B
:10574000FFF730FF4FF48051A048FAF7F7FD0A2029
:10575000FFF728FF4FF480519C48FAF7F1FD0A202B
:10576000FFF720FF601CC4B2082CD8DB4FF40051B7
:105770009648FAF7E3FD0A20FFF714FF4FF4805133
:105780009248FAF7DBFD0A20FFF70CFF4FF40051B7
:105790008E48FAF7B9FD30B14FF480518B48FAF7D3
:1057A000CFFD002070BD4FF480518848FAF7C8FD46
:1057B0000120F7E770B54FF400518448FAF7BEFDB9
:1057C0004FF480518148FAF7BBFD002500241BE00F
:1057D0004FF480517D48FAF7B1FD0A20FFF7E2FE51
:1057E0006806050E4FF400517848FAF78DFD08B1B0
:1057F00045F001054FF480517448FAF7A1FD0A20E5
:10580000FFF7D0FE601CC4B2082CE1DBFFF764FF99
:10581000284670BD70B54FF400516C48FAF78EFD04
:105820004FF480516948FAF78BFD002500241BE0F6
:105830004FF480516548FAF781FD0A20FFF7B2FE68
:105840006806050E4FF400516048FAF75DFD08B197
:1058500045F001054FF480515C48FAF771FD0A20CC
:10586000FFF7A0FE601CC4B2082CE1DBFFF71AFFB3
:10587000284670BD2DE9F041044600252FE04FF485
:1058800000515248FAF75AFD4FF480514F48FAF749
:1058900057FD002600271BE04FF480514B48FAF7D4
:1058A0004DFD0A20FFF77EFE7006060E4FF40051F4
:1058B0004648FAF729FD08B146F001064FF4805139
:1058C0004248FAF73DFD0A20FFF76CFE781CC7B28C
:1058D000082FE1DB6655FFF7E5FE681CC5B2052D14
:1058E000CDDB4FF400513948FAF728FD4FF48051D1
:1058F0003648FAF725FD002600271BE04FF48051BB
:105900003248FAF71BFD0A20FFF74CFE7006060E20
:105910004FF400512D48FAF7F7FC08B146F00106A4
:105920004FF480512948FAF70BFD0A20FFF73AFEA1
:10593000781CC7B2082FE1DB6671FFF7CDFEBDE82A
:10594000F0812DE9F041044600252FE04FF400518D
:105950001E48FAF7F3FC4FF480511C48FAF7F0FCAC
:10596000002600271BE04FF480511848FAF7E6FCA8
:105970000A20FFF717FE7006060E4FF40051134879
:10598000FAF7C2FC08B146F001064FF480510F4807
:10599000FAF7D6FC0A20FFF705FE781CC7B2082FDD
:1059A000E1DB6655FFF77EFE681CC5B20B2DCDDB33
:1059B0004FF400510548FAF7C1FC4FF480510348F9
:1059C000FAF7BEFC0026002720E00000000C014092
:1059D000A08601004FF48051AD48FAF7AFFC0A20D1
:1059E000FFF7E0FD7006060E4FF40051A848FAF7E5
:1059F0008BFC08B146F001064FF48051A448FAF739
:105A00009FFC0A20FFF7CEFD781CC7B2082FE1DB10
:105A1000E672FFF761FEBDE8F0812DE9F041044632
:105A200000252FE04FF400519948FAF787FC4FF416
:105A300080519748FAF784FC002600271BE04FF4BA
:105A400080519348FAF77AFC0A20FFF7ABFD700605
:105A5000060E4FF400518E48FAF756FC08B146F096
:105A600001064FF480518A48FAF76AFC0A20FFF7D2
:105A700099FD781CC7B2082FE1DB6655FFF712FECF
:105A8000681CC5B20D2DCDDB4FF400518048FAF7EC
:105A900055FC4FF480517E48FAF752FC002600274F
:105AA0001BE04FF480517A48FAF748FC0A20FFF7D0
:105AB00079FD7006060E4FF400517548FAF724FC84
:105AC00008B146F001064FF480517148FAF738FCEE
:105AD0000A20FFF767FD781CC7B2082FE1DB667369
