:020000040800F2
:10000000F8020020010100080501000807010008AE
:10001000090100080B0100080D01000800000000A4
:100020000000000000000000000000000F010008B8
:10003000110100080000000013010008150100086C
:10004000FF230008012400080324000805240008F9
:1000500007240008092400080B2400080D240008C8
:100060000F240008112400081324000817010008B9
:100070001701000817010008170100081701000800
:1000800017010008170100081701000825240008BF
:1000900027240008292400082B2400082D24000808
:1000A0002F240008312400083324000835240008D8
:1000B00037240008592400089524000897240008D4
:1000C000992400089B2400089D2400089F24000810
:1000D000A1240008A3240008A5240008A7240008E0
:1000E000A9240008AB240008AD240008DFF80CD0D8
:1000F00006F0F8FA00480047CB260008F802002076
:1001000005480047FEE7FEE7FEE7FEE7FEE7FEE7FD
:10011000FEE7FEE7FEE7FEE7ED00000810B5044647
:10012000C149601A8C422FD009DCC048201810D079
:10013000B0F5806F16D0B0F5006F4AD11BE0B0F576
:10014000806F2AD0B0F5006F30D0B0F5406F40D14D
:1001500035E00121042000F0EDFA0021042000F038
:10016000E9FA37E00121082000F0E4FA0021082034
:1001700000F0E0FA2EE00121102000F0DBFA00216F
:10018000102000F0D7FA25E00121202000F0D2FA5B
:100190000021202000F0CEFA1CE00121402000F0D8
:1001A000C9FA0021402000F0C5FA13E001218020A7
:1001B00000F0C0FA0021802000F0BCFA0AE0012122
:1001C000080200F0B7FA00214FF4807000F0B2FA94
:1001D00000E000BF00BF10BD10B50121084600F0CF
:1001E000A9FA0021012000F0A5FA10BDF0B5002207
:1001F0000023002400250026002791F803C00CF0FE
:100200000F0291F803C01CF0100F03D091F802C048
:100210004CEA0202B1F800C01CF0FF0F31D00668B2
:1002200000242BE04FF0010C0CFA04F5B1F800C0EB
:100230000CEA0503AB4220D1A5004FF00F0C0CFADD
:1002400005F7BE4302FA05FC4CEA060691F803C026
:10025000BCF1280F06D14FF0010C0CFA04FCC0F8D9
:1002600014C00AE091F803C0BCF1480F05D14FF06B
:10027000010C0CFA04FCC0F810C0641C082CD1D38B
:100280000660B1F800C0BCF1FF0F34DD4668002401
:100290002EE004F1080C4FF0010E0EFA0CF5B1F847
:1002A00000C00CEA0503AB4221D1A5004FF00F0CB2
:1002B0000CFA05F7BE4302FA05FC4CEA060691F873
:1002C00003C0BCF1280F05D104F1080C0EFA0CFE96
:1002D000C0F814E091F803C0BCF1480F07D104F155
:1002E000080C4FF0010E0EFA0CFEC0F810E0641C72
:1002F000082CCED34660F0BD4FF6FF71018002217D
:1003000081700421C17070470246002093680B423F
:1003100001D0012000E0002070470146886880B2CB
:10032000704702460020D3680B4201D0012000E054
:10033000002070470146C86880B27047016170476D
:10034000416170470AB1016100E041617047C160DD
:1003500070474FF480320A43826181618261826911
:10036000826970470022324B1A684FF680731A4038
:1003700042EA00120A432E4B1A6070472D49C861A9
:100380007047F0B50022002300250024284E756830
:10039000C0F3034482B200F44016B6F5401F08D102
:1003A00025F07065224E766826F07066204F7E60DC
:1003B00012E000F48016B6F5801F06D1032606FA77
:1003C00004F39D4345F0706506E0460D360102FAE0
:1003D00006F6B54345F0706521B1460D360102FAC7
:1003E00006F63543124E7560F0BD30B500228B071E
:1003F0001C0F0F2303FA04F20D4B08338C1053F833
:10040000244094438D1043F825408C1053F8243039
:100410008C07240F00FA04F42343054C08348D1094
:1004200044F8253030BD00000014014000F8FEBF44
:100430000000014000002042DA48006840F001005E
:10044000D849086008464068D7490840D5494860FF
:1004500008460068D5490840D24908600846006847
:1004600020F4802008600846406820F4FE004860C0
:10047000002088607047CB49096821F48031C94A5F
:1004800011601146096821F480211160B0F5803FA8
:1004900003D0B0F5802F0ED106E0C249096841F4BF
:1004A0008031C04A116007E0BE49096841F4A021CB
:1004B000BC4A116000E000BF00BF704710B50146A4
:1004C0000022002300204A11012A02D1B54C2368E2
:1004D00006E0022A02D1B34C236A01E0B14C636A00
:1004E00001F01F02012494401C4201D0012000E0D1
:1004F000002010BD70B500240025002600BF31206B
:10050000FFF7DCFF0646641C16B9B4F5A06FF6D100
:100510003120FFF7D3FF08B1012500E00025284670
:1005200070BD00219F4A116821F0F80141EAC00125
:10053000116070479E49086070470022994B5A68C5
:1005400022F47C1240EA01031A43964B5A6070472A
:100550009749086670470021924A516821F00301CB
:100560000143516070478F48406800F00C007047AD
:1005700000218C4A516821F0F0010143516070471D
:100580000021884A516821F4E061014351607047BD
:100590000021844A516821F4605141EAC001516050
:1005A000704729B17F4A527A02437E4B5A7206E065
:1005B0007C4A527AC343DBB21A407A4B5A72704774
:1005C0007B49D831086070470021764A516821F490
:1005D00040410143516070470021724A203211703E
:1005E000704A82F82010012802D004280AD104E0C1
:1005F00001216C4A2032117005E00521694A203240
:10060000117000E000BF00BF70476A490860704782
:100610006449096A0143634A116270476549443974
:100620000860704730B500210022002300245D4D92
:100630006D6805F00C0121B1042905D0082923D1EA
:1006400005E05D4D056022E05B4D05601FE0554D06
:100650006D6805F47012022505EB9242514D6D68EC
:1006600005F480331BB9554D554305600BE04D4DE6
:100670006D6815F4003F03D0504D5543056002E00E
:100680004D4D5543056002E04B4D056000BF00BF76
:10069000444D6D6805F0F0010909494D6C5C056831
:1006A000E54045603F4D6D6805F4E061090A444D41
:1006B0006C5C4568E54085603A4D6D6805F46051B5
:1006C000C90A3F4D6C5C4568E540C560354D6D68B5
:1006D00005F44041890B3A4D10356C5CC568B5FB9B
:1006E000F4F5056130BD29B12E4A526902432D4B04
:1006F0005A6104E02B4A526982432A4B5A6170477F
:1007000029B1284A92690243264B9A6104E0254A9E
:1007100092698243234B9A61704729B1214AD26979
:100720000243204BDA6104E01E4AD26982431D4B2A
:10073000DA61704729B11B4AD2680243194BDA606B
:1007400004E0184AD2688243164BDA60704729B138
:10075000144A12690243134B1A6104E0114A1269E8
:100760008243104B1A617047124940390860704744
:100770000F49C86470470B49C87170470948406AFF
:1007800040F0807007494862704701460020054AE2
:1007900092680A4201D0012000E000207047014920
:1007A00088727047001002400000FFF8FFFFF6FE5D
:1007B000000042428004424200127A0000093D00DB
:1007C000546E0008FC49096801F03801FA4A1160CA
:1007D00011460968014311607047F749096821F023
:1007E0000801F54A1160114609680143116070471C
:1007F000F149096821F01001EF4A116011460968BA
:10080000014311607047ED48EB494860EC4848608F
:100810007047E948006940F08000E7490861704787
:100820000420E549C96801F00101012901D1012035
:100830000EE0E149C96811F0040F01D0022007E081
:10084000DD49C96811F0100F01D0032000E0042039
:1008500070470020FF2000E0401E0028FCD17047B8
:1008600070B504460425FFF7DBFF054605E0FFF7FA
:10087000F0FFFFF7D5FF0546641E012D01D1002CC6
:10088000F5D104B90525284670BD70B50446042588
:1008900040F6FF70FFF7E4FF0546042D19D1C64866
:1008A000006940F00200C4490861084644610069DB
:1008B00040F04000086140F6FF70FFF7D1FF0546A9
:1008C000012D06D0BC48006941F6FD710840BA49C7
:1008D0000861284670BD10B5042440F6FF70FFF78C
:1008E000BFFF0446042C18D1B348006940F004004F
:1008F000B14908610846006940F04000086140F6CF
:10090000FF70FFF7ADFF0446012C06D0AA4800692E
:1009100041F6FB710840A8490861204610BD10B59A
:10092000042440F6FF70FFF79BFF0446042C3BD1E4
:10093000A248A1498860A24888600846006940F042
:10094000200008610846006940F04000086140F658
:10095000FF70FFF785FF0446042C1CD19648006900
:1009600041F6DF710840944908610846006940F08B
:1009700010000861A520934908800F20FFF770FF41
:100980000446012C10D08C48006941F6EF710840F4
:100990008949086108E0012C06D08748006941F6C2
:1009A000EF71084084490861204610BD70B50446C7
:1009B0000D4604260F20FFF753FF0646042E25D1CF
:1009C0007D48006940F001007B49086125800F20C7
:1009D000FFF746FF0646042E0FD1280C60800F203B
:1009E000FFF73EFF0646012E10D07348006941F61E
:1009F000FE7108407049086108E0012E06D06E487B
:100A0000006941F6FE7108406B490861304670BDCF
:100A100070B504460D4604260F20FFF721FF064659
:100A2000042E13D16448006940F001006249086156
:100A300025800F20FFF714FF0646012E06D05E48E2
:100A4000006941F6FE7108405B490861304670BD9F
:100A500070B504460D4604260F20FFF701FF064639
:100A6000042E17D155485449886055488860084677
:100A7000006940F01000086125800F20FFF7F0FEAC
:100A80000646012E06D04C48006941F6EF71084039
:100A900049490861304670BD2DE9F04704464FF6DC
:100AA000FF752E462F46A8464FF00409E443E5B2F1
:100AB000C4F30726C4F307474FEA14680F20FFF773
:100AC000CFFE8146B9F1040F41D13C483A498860D4
:100AD0003B4888600846006940F010000861FF2D1F
:100AE00006D03848083005800F20FFF7B9FE814650
:100AF000B9F1040F08D1FF2E06D032480A30068023
:100B00000F20FFF7ADFE8146B9F1040F08D1FF2F8A
:100B100006D02C480C3007800F20FFF7A1FE81463D
:100B2000B9F1040F09D1B8F1FF0F06D02648A0F89B
:100B30000E880F20FFF794FE8146B9F1010F06D011
:100B40001D48006941F6EF7108401B49086148469D
:100B5000BDE8F08770B50446042540F6FF70FFF746
:100B60007FFE0546042D4CD1144813498860144873
:100B700088600846006940F0200008610846006966
:100B800040F04000086140F6FF70FFF769FE05463F
:100B9000042D2DD10848006941F6DF71084006494F
:100BA00008610846006940F01000086174B1002037
:100BB000044908800DE00000002002402301674541
:100BC000AB89EFCD00F8FF1F00F0FF1FA5204549BE
:100BD000088040F6FF70FFF743FE0546012D10D058
:100BE0004148006941F6EF7108403F49086108E05B
:100BF000012D06D03C48006941F6DF7108403A49B2
:100C00000861284670BD2DE9F04104460D461646A0
:100C10000427364834498860354888600F20FFF73C
:100C20001FFE0746042F1AD12F48006940F010001C
:100C30002D49086144EA0500304340F0F800294995
:100C4000891C08800F20FFF70BFE0746012F06D0F6
:100C50002548006941F6EF7108402349086138468C
:100C6000BDE8F0812048C069800870471E48006ACE
:100C7000704700201C49C96911F0020F01D0012002
:100C800000E00020704700201749096811F0200F8C
:100C900001D0012000E00020704729B1124A1269FA
:100CA0000243114B1A6104E00F4A126982430E4B52
:100CB0001A61704701460020012908D10A4AD26909
:100CC00012F0010F01D0012008E0002006E0064AE2
:100CD000D2680A4201D0012000E00020704702499A
:100CE000C860704700F8FF1F0020024023016745DD
:100CF000AB89EFCD10B50446D749601A8C422BD092
:100D000006DCD648201813D0B0F5806F38D119E032
:100D1000B0F5806F2AD0B0F56C4F31D10121880336
:100D2000FFF708FD00214FF48040FFF703FD28E0A6
:100D300001214804FFF70BFD00214FF40030FFF7BD
:100D400006FD1EE001218804FFF701FD00214FF49C
:100D50008020FFF7FCFC14E00121C804FFF7F7FC3A
:100D600000214FF40020FFF7F2FC0AE00121080502
:100D7000FFF7EDFC00214FF48010FFF7E8FC00E0E6
:100D800000BF00BF10BD2DE9F04786B004460D46F8
:100D90000026002700BF00BFB246A246268A4CF6B6
:100DA000FF700640E88806432682A6894EF6F310B7
:100DB0000640A88829890843698908430643A68113
:100DC000A68A4FF6FF400640A8890643A68201A8DE
:100DD000FFF728FC5446A248824501D1049F00E059
:100DE000039F07EBC70000EB071029688900B0FBE1
:100DF000F1F86420B8FBF0F006013009642101FB32
:100E00001089322101EB09106421B0FBF1F000F0F0
:100E10000F000643268106B0BDE8F0874FF4165157
:100E2000016000218180C18001810C21418100216C
:100E30008181704710B50022028A4FF2FF031A40E9
:100E40000B884C8823438C882343CC8823431A4344
:100E5000028210BD0021018041808180C1807047E5
:100E600021B1828942F40052828104E082894DF6E8
:100E7000FF731A4082817047F0B5002400250026D8
:100E800000230346C1F3421401F01F05012707FAAE
:100E900005F6012C01D10C3304E0022C01D11033F2
:100EA00000E014331AB11F6837431F6002E01F6867
:100EB000B7431F60F0BD10B51AB1838A0B4383821C
:100EC00004E0838ACC43A4B22340838210BD028A0B
:100ED0004FF6F0731A400282028A0A430282704778
:100EE00082894FF2FF731A40828182890A4382818C
:100EF000704721B1828942F00202828104E0828936
:100F00004FF6FD731A4082817047028A4FF6DF73F5
:100F10001A400282028A0A430282704721B1028A81
:100F200042F48042028204E0028A4BF6FF731A40C8
:100F300002827047C1F308028280704701468888A8
:100F4000C0F308007047818941F001018181704739
:100F5000028BD2B20283028B42EA012202837047E3
:100F6000028B02F47F420283028B0A4302837047A2
:100F700021B1828A42F02002828204E0828A4FF606
:100F8000DF731A408282704721B1828A42F01002D8
:100F9000828204E0828A4FF6EF731A4082827047A1
:100FA00021B1828A42F00802828204E0828A4FF6EE
:100FB000F7731A4082827047828A4FF6FB731A4099
:100FC0008282828A0A438282704721B1828A42F0F9
:100FD0000202828204E0828A4FF6FD731A40828206
:100FE00070470246002013880B4201D0012000E028
:100FF00000207047CA430280704770B50246002344
:10100000002400250020C1F3421501F01F04012631
:1010100006FA04F4012D02D19689344006E0022D2F
:1010200002D1168A344001E0968A34400B12012620
:1010300006FA03F31688334014B10BB1012000E027
:10104000002070BD10B5002200230A120124944034
:10105000A3B2DC43048010BD004C004000BCFFBFC5
:10106000003801400020411EE84A11600A09E749A2
:101070008039C1F88420411E4FF0E022C2F880126E
:101080000A09E3490A6000BF04E00022E14941F88F
:101090002020401C0F28F8D3704700204FF020611B
:1010A000DD4A116000214FF0E022C2F8081DDB4943
:1010B000D94A083211600021121D1160121D116001
:1010C00000BF05E00022D449143141F82020401C23
:1010D0000328F7D30021D04A20321160491E4FF077
:1010E000E022C2F8281DCC4A283211604FF0E022DD
:1010F000C2F8301D7047C9490143C74A0832116020
:101100007047F0B500210022002300240F25C67887
:10111000002E36D0C04E0836366806F4E066C6F5B6
:10112000E066310AC1F10404CD40467806FA04F1C4
:1011300086782E40314309010678B607F60EB14095
:10114000B44E0778BF1056F827200678B607F70E7A
:10115000FF2606FA07F39A4319400A43AD4E077873
:10116000BF1046F82720067806F01F070126BE406C
:1011700007787F114FF0E02C0CEB8707C7F8006170
:101180000BE0067806F01F060127B7409F4E90F847
:1011900000C04FEA6C1C46F82C70F0BD00210170B5
:1011A00041708170C17070477047704770477047D9
:1011B000704799480068C0F30930704710B5014680
:1011C0000020002201F01F04012303FA04F28F4BD8
:1011D00080334C1153F824301340934201D1012045
:1011E00000E0002010BD8E490860704700F01F012C
:1011F00001228A408649091F431141F82320704784
:1012000085480068C0F30900704710B5014600200A
:10121000002201F01F04012303FA04F27C4B7C330B
:101220004C1153F824301340934201D1012000E0C7
:10123000002010BD7848001F00687047794A0A40B6
:101240000243754B1B1D1A6070477448001D72499C
:101250000831086070477148401C6F4908310860C8
:10126000704741B16C4A0C32126802434FF0E023E0
:10127000C3F8102D07E0684A0C32126882434FF021
:10128000E023C3F8102D704710B5002200F01F04B2
:10129000012303FA04F241B15F4B20331B6813436F
:1012A0004FF0E024C4F8243D07E05B4B20331B687B
:1012B00093434FF0E024C4F8243D10BDF0B5002363
:1012C000FF2400250026544F08373F6807F4E067E5
:1012D000C7F5E0673E0AC6F10403F44001FA03F6DD
:1012E00002EA04073E43360100F0C0039B09C0F345
:1012F0000124E700BE404FEAC40CFF2707FA0CF5B3
:10130000454F143757F823C02CEA050C47F823C083
:1013100057F823C04CEA060C47F823C0F0BD10B5BF
:1013200001460020002200238B0A03F00F03012452
:1013300004FA03F3384C2034246804EA03029A4286
:1013400001D1012000E0002010BD002100F01F01AC
:10135000314A136801228A4013434FF0E022C2F859
:10136000043D704710B5002100F01F012A4A1368A0
:101370004C1E0122A24013434FF0E022C2F8043D6C
:1013800010BD10B50146002000230022C1F38332B6
:10139000012404FA02F2204C2034246804EA0203F7
:1013A000934201D1012000E0002010BD30B501467C
:1013B000002000220023C1F38142C1F301531AB976
:1013C000154C2834206811E0012A0CD1124C243429
:1013D0002468DD0024FA05F0022B02D000F00F0093
:1013E00004E0C0B202E00C4C2C34206830BD014651
:1013F00000200022C1F380521AB9074B303318681D
:1014000002E0054B343318687047000080E100E0CB
:1014100084E200E000E400E004ED00E00000FA05F2
:1014200000EF00E080FFFF1F10B50446F849601A86
:101430008C4245D00CDCB4F1804F1DD0F54820180B
:1014400023D0B0F5806F29D0B0F5006F54D12EE0D5
:10145000B0F5806F3DD0B0F58E3F03D0B0F5923F30
:101460004AD13FE00121C802FFF764F900214FF49F
:101470000060FFF75FF940E001210846FFF767F9D8
:1014800000210120FFF763F937E001210220FFF777
:101490005EF900210220FFF75AF92EE00121042015
:1014A000FFF755F900210420FFF751F925E001214C
:1014B0000820FFF74CF900210820FFF748F91CE04D
:1014C00001211020FFF743F900211020FFF73FF919
:1014D00013E001212020FFF73AF900212020FFF737
:1014E00036F90AE001214803FFF724F900214FF4FF
:1014F0000050FFF71FF900E000BF00BF10BD0288D9
:1015000002F08F020280CA884B881A4303881A436C
:1015100002808A8882850A88028501228282BE4AE8
:10152000904202D0BD4A904201D10A7A02867047A9
:1015300070B5002200230024058C4FF6FE7635405E
:101540000584038C8488028B4FF68F752A400D88A2
:101550002A43751E2B400D892B434D882B43CD8884
:101560008586AD4DA84202D0AC4DA84213D14FF6AE
:10157000F7752B404D892B434FF6FB752B408D881B
:101580002B4347F6FF652C4047F6FF552C408D89CD
:101590002C43CD892C4384800283038470BD70B5B5
:1015A000002200230024058C4FF6EF763540058499
:1015B000038C8488028B48F6FF752A400D882D061F
:1015C00042EA15424FF6DF752B400D892D0543EA9F
:1015D00015434D882D0543EA1543CD8805878E4D6B
:1015E000A84202D08D4DA8421BD14FF67F752B40EB
:1015F0004D892D0543EA15434FF6BF752B408D8865
:101600002D0543EA154347F6FF352C4047F2FF7599
:101610002C408D89AD0444EA1544CD89AD0444EADB
:10162000154484800283038470BD70B500220023BA
:101630000024058C4FF6FF6635400584038C8488B2
:10164000828B4FF68F752A400D882A434FF6FF553F
:101650002B400D892D0643EA15434D882D0643EA9C
:101660001543CD8885876C4DA84202D06B4DA842AA
:101670001BD14FF2FF752B404D892D0643EA1543D0
:101680004FF6FF352B408D882D0643EA154346F66D
:10169000FF752C4045F6FF752C408D892D0544EAD9
:1016A0001544CD892D0544EA154484808283038442
:1016B00070BD70B5002200230024058C4EF6FF7625
:1016C00035400584038C8488828B48F6FF752A4058
:1016D0000D882D0642EA15424DF6FF752B400D8907
:1016E0002D0743EA15434D882D0743EA1543CD885E
:1016F000A0F84050484DA84202D0484DA84205D11C
:10170000C4F30D048D89AD0544EA154484808283B9
:10171000038470BD828B4FF2FF331A408283828B29
:101720000B0642EA134282837047F0B5002400257D
:101730000026078C4EF6FF7C07EA0C070784848B93
:10174000058C0F073E0C40F6FF473C4017063F0C48
:101750004FEA037C47EA1C473C434DF6FF773D4088
:1017600046F480573D4384830584F0BD828B4FF659
:10177000F3731A408283828B0A4382837047F0B5E9
:10178000002400250026078C4FF6FF6C07EA0C07A3
:101790000784848B058C0F063E0C4FF60C773C407B
:1017A0001F0542EA17473C434FF6FF573D4046F4BA
:1017B00080773D4384830584F0BD028B4FF2FF3375
:1017C0001A400283028B0B0642EA134202837047DF
:1017D000F0B5002400250026078C4FF6EF7C07EAC1
:1017E0000C070784048B058C0F053E0C40F6FF4761
:1017F0003C401F0744EA1744170644EA17444FF6D3
:10180000DF773D4046F010073D4304830584F0BD7B
:101810000010004000FCFFBF002C014000340140DC
:10182000028B4FF6F3731A400283028B0A43028342
:101830007047F0B500240025068C4FF6FE773E4039
:101840000684048B058C4FF60C7634401E0542EA64
:10185000164634437E1E354041F00106354304836D
:101860000584F0BD70B504460D46288850B92B8913
:10187000AA8869882046FFF7DCFFE9882046FFF741
:10188000CFFF25E0288804280AD12B89AA886988F7
:101890002046FFF79DFFE9882046FFF78EFF17E0FF
:1018A000288808280AD12B89AA8869882046FFF74A
:1018B00066FFE9882046FFF759FF09E02B89AA88CF
:1018C00069882046FFF731FFE9882046FFF722FFAD
:1018D00070BD2DE9F04104460D46002601276888B9
:1018E00008B9022600E00026A888012801D10227B5
:1018F00000E001272888A0B92B89AA88698820469A
:10190000FFF797FFE9882046FFF78AFF2B893A46C1
:1019100031462046FFF75CFFE9882046FFF74DFF80
:1019200013E02B89AA8869882046FFF751FFE988D0
:101930002046FFF742FF2B893A4631462046FFF703
:1019400078FFE9882046FFF76BFFBDE8F0810A8841
:101950004B881A438B881A43CB881A430B891A4346
:101960004B891A438B891A43A0F8442070474FF6DD
:10197000FF71818000210180C18041800172704728
:101980000021018041808180C1800181418181816C
:10199000C1817047002101804180012181800021A7
:1019A000C180018170470021018041808180C18018
:1019B000018141818181704721B1028842F0010299
:1019C000028004E0028840F2FE331A400280704731
:1019D00031B1B0F8442042F40042A0F8442005E0C0
:1019E000B0F84420C2F30E02A0F84420704710B5AE
:1019F0001AB183890B43838104E08389CC43A4B269
:101A00002340838110BD8182704741EA0203A0F820
:101A10004830704710B51AB183890B43838104E0C5
:101A20008389CC43A4B22340838110BD01894FF642
:101A3000F872114001817047002202894FF68F73BE
:101A40001A400A430281704730B504460D462946C4
:101A50002046FFF7F1FF208940F00700208130BDCC
:101A60002DE9F04104460D4616461F46602D06D16D
:101A70003B46012231462046FFF7AAFE05E03B46E1
:101A8000012231462046FFF7D4FE29462046FFF7C3
:101A9000D3FF208940F007002081BDE8F08170B5B8
:101AA00000240489E4B241EA02051E0645EA16450F
:101AB0002C43048170BD2DE9F04104460D461646C5
:101AC000984600274346324629462046FFF7E7FF5F
:101AD00027894FF6F870074047F007074FF68F70D9
:101AE000074047F070072781BDE8F081F0B5044654
:101AF0000D4616461F463B46324629462046FFF70E
:101B0000CEFF208940F480402081F0BD0185828293
:101B100070470022028840F28F331A400A43028045
:101B20007047F0B50024002500260489058B068C3B
:101B30004FF6F8773C400C434FF6FC473D4040F2EF
:101B400001173D434FF6DD773E401F0542EA174738
:101B50003E43048105830684F0BD0022028B4FF6CC
:101B60008F731A400A43028370470022028B48F6A3
:101B7000FF731A400B0642EA1342028370470022A9
:101B8000828B4FF68F731A400A438283704700227C
:101B9000828B48F6FF731A400B0642EA1342828397
:101BA000704721B1028842F08002028004E002887E
:101BB00040F27F331A400280704721B1828842F0A0
:101BC0000402828004E082884FF6FB731A40828010
:101BD000704721B1828842F00802828004E0828846
:101BE0004FF6F7731A408280704721B1828842F025
:101BF0000102828004E082884FF6FE731A408280E0
:101C000070470022028B4FF6F7731A400A43028393
:101C100070470022028B4FF2FF731A400B0642EA14
:101C20001342028370470022828B4FF6F7731A40EB
:101C30000A43828370470022828B4FF2FF731A405F
:101C40000B0642EA1342828370470022028B4FF652
:101C5000FB731A400A43028370470022028B4FF63F
:101C6000FF331A400B0642EA1342028370470022F8
:101C7000828B4FF6FB731A400A438283704700221F
:101C8000828B4FF6FF331A400B0642EA13428283DF
:101C900070470022028B4FF67F731A400A4302837B
:101CA00070470022028BC2F30E020B0642EA134277
:101CB000028370470022828B4FF67F731A400A43DB
:101CC000828370470022828BC2F30E020B0642EA27
:101CD0001342828370470022028C4FF6FD731A4034
:101CE0000A43028470470022028C4FF6F7731A40B1
:101CF0000A43028470470022028C4FF6DF731A40B9
:101D00000B0542EA1342028470470022028C4FF610
:101D10007F731A400B0542EA134202847047002287
:101D2000028C4FF6FF531A400B0642EA134202841C
:101D300070470022028C4FF2FF731A400B0642EAF2
:101D40001342028470470022028C4DF6FF731A4042
:101D50000B0742EA13420284704710B5038C01243A
:101D60008C40E443A4B223400384038C02FA01F4C0
:101D7000A4B22343038410BD10B5038C04248C400B
:101D8000E443A4B223400384038C02FA01F4A4B216
:101D90002343038410BD30B5038C01248C40E443FD
:101DA000A4B22340038409B1082918D100F1180313
:101DB00003EB61031C684FF68F731C4000F118039E
:101DC00003EB61031C6000F1180303EB61031C6863
:101DD000144300F1180303EB61031C6021E00B1FA7
:101DE0009CB200F1180303EB64031C6848F6FF7310
:101DF0001C400B1F9DB200F1180303EB65031C6030
:101E00000B1F9CB200F1180303EB64031B6814065C
:101E100043EA14430C1FA5B200F1180404EB650457
:101E2000236030BD21B1028842F00202028004E04A
:101E3000028840F2FD331A400280704721B10288C7
:101E400042F00402028004E0028840F2FB331A40B0
:101E50000280704721B1828842F08002828004E0D3
:101E600082884FF67F731A4082807047028840F262
:101E7000F7331A40028002880A4302807047828842
:101E80004FF68F731A40828082880A43828070479F
:101E900002894FF6F8731A40028102890A430281CF
:101EA000704702894FF67F731A40028102890A4304
:101EB00002817047818470478185704781867047B1
:101EC0000187704781877047A0F8401070470288EB
:101ED000D2B2028002880A43028070470146888E8F
:101EE00070470146088F70470146888F704701464A
:101EF000B1F8400070470146888C70470146088D54
:101F0000704702460020138A0B4201D0012000E0F6
:101F100000207047CA430282704730B50246002055
:101F200000230024158A05EA0103958905EA0104C6
:101F300013B10CB1012000E0002030BDCA43028281
:101F40007047042808D14FF0E021096941F00401ED
:101F50004FF0E022116107E04FF0E021096921F024
:101F600004014FF0E022116170474FF0E021486119
:101F70007047012808D14FF0E021096941F00101C3
:101F80004FF0E02211610EE0811C08D14FF0E021FA
:101F9000096921F001014FF0E022116103E0002105
:101FA0004FF0E0229161704740B14FF0E0210969A4
:101FB00041F002014FF0E022116107E04FF0E02113
:101FC000096921F002014FF0E022116170474FF0E2
:101FD000E0208069704710B50146002200230020F0
:101FE000CB10022B03D14FF0E024226902E04FF026
:101FF000E024E26901248C40144201D0012000E079
:10200000002010BD10B50446F248201803D0B0F5EA
:10201000806F14D109E001214805FEF798FB0021EB
:102020004FF40010FEF793FB0AE001218805FEF74C
:102030008EFB00214FF48000FEF789FB00E000BF1B
:1020400000BF10BD2DE9F04385B004460D460026C3
:1020500000274FF00408DFF88093A6884FF6C07081
:1020600006406846FEF7DEFADDF80890DB48B9FB6B
:10207000F0F087B23E43A68020884FF6FE710840FC
:1020800020800026D649E86888420FD8E8684000DA
:10209000B9FBF0F01FFA80F8B8F1040F01DA4FF045
:1020A000040846EA0806781C208429E06888A0F520
:1020B0003F41FF3907D1E86800EB4000B9FBF0F081
:1020C0001FFA80F80AE0E86800EBC00101EB00109D
:1020D000B9FBF0F01FFA80F848F48048C8F30B0011
:1020E000002801D148F0010848F4004006434FF4AD
:1020F000967078434FF47A7190FBF1F0401C208485
:10210000A683208840F00100208026884FF6F53015
:1021100006402888E9880843064326802889A9883C
:102120000843208105B0BDE8F083002101804BF613
:10213000FF71418000218180C1804FF48041018185
:1021400041F28831C160704721B1028842F001023A
:10215000028004E002884FF6FE731A400280704746
:1021600021B1828842F40062828004E082884FF2CA
:10217000FF731A408280704721B1828842F48052F6
:10218000828004E082884EF6FF731A408280704796
:1021900021B1028842F48072028004E002884FF686
:1021A000FF631A400280704721B1028842F4007236
:1021B000028004E002884FF6FF531A400280704705
:1021C00021B1028842F48062028004E002884FF666
:1021D000FF331A4002807047002282894FF6017354
:1021E0001A4001F0FE031A438281704721B18289AF
:1021F00042F00102828104E082894FF6FE731A40A8
:102200008281704721B1028842F04002028004E0DE
:1022100002884FF6BF731A400280704710B51AB19A
:1022200083880B43838004E08388CC43A4B223409B
:10223000838010BD018270470146088AC0B2704792
:1022400012B141F0010102E04FF6FE731940018224
:1022500070470246505A704721B1028842F400424A
:10226000028003E00288C2F30E0202807047B1F5DB
:10227000005F04D1028842F40052028004E0028828
:102280004DF6FF731A400280704721B1028842F474
:102290008052028004E002884EF6FF731A400280EA
:1022A0007047B1F5006F04D1028842F400620280E9
:1022B00004E002884FF2FF731A400280704721B198
:1022C000028842F02002028004E002884FF6DF73A9
:1022D0001A40028070470146088B0012704721B1F6
:1022E000028842F01002028004E002884FF6EF7389
:1022F0001A400280704721B9028842F080020280B1
:1023000004E002884FF67F731A4002807047B1F5EF
:10231000804F05D0828B4BF6FF731A40828303E017
:10232000828B42F480428283704710B503460020BE
:1023300000210022998A1A8B120441EA020424F037
:102340007F4010BD70B50346002400220025002008
:102350009A8A1D8B2D0442EA050626F07F448C42A2
:1023600001D1012000E0002070BD30B50246002000
:102370000024002313460C0F21F07F410CB11433CD
:1023800001E0090C18331D680D4201D0012000E066
:10239000002030BD002221F07F42D343838270476A
:1023A00030B5024600200023948801F0E06504EA7D
:1023B000154321F07F41948A0C4202D00BB10120D9
:1023C00000E0002030BD002221F07F42D343838211
:1023D0007047000000ACFFBF00127A0040420F00BF
:1023E000A0860100704700BFFEE700BFFEE700BF08
:1023F000FEE700BFFEE770477047704770477047C1
:102400007047704770477047704770477047704714
:102410007047704770477047704770477047704704
:1024200070477047704770477047704770477047F4
:1024300070477047704710B501218807FFF76DFDA1
:10244000012808D122480068401C21490860012168
:102450008807FFF773FD10BD10B500201D49086007
:102460001D49086001211D48FFF768FD1B48FFF763
:1024700038FD194908600846006818B90020154958
:10248000086006E014480068154991FBF0F0114916
:10249000086010BD704770477047704770477047BD
:1024A0007047704770477047704770477047704774
:1024B0007047704770477047704770477047704764
:1024C0007047704770477047704770477047704754
:1024D0000000002014000020100000200004004034
:1024E00000A24A040EB50520ADF800000020ADF8AA
:1024F00002000920ADF804000020ADF806008DF8B8
:10250000080069464FF08040FEF7F9FF01221146AE
:102510009007FFF76CFA01218807FFF74DFA0EBD0F
:1025200008B51C208DF8000002208DF80100002065
:102530008DF8020001208DF803006846FEF7E1FDEA
:1025400008BD08B51020ADF800008DF80300032089
:102550008DF802006946FF48FDF748FE4FF48050B1
:10256000ADF8000010208DF8030003208DF8020064
:102570006946F848FDF73AFE0920ADF8000004204E
:102580008DF8030003208DF802006946F148FDF73D
:102590002DFE4FF40070ADF8000018208DF80300F8
:1025A00003208DF802006946EA48FDF71FFE4FF44C
:1025B0008060ADF8000004208DF8030003208DF842
:1025C00002006946E348FDF711FE4FF48060ADF864
:1025D000000018208DF8030003208DF802006946E2
:1025E000DD48FDF703FE4FF40060ADF80000042065
:1025F0008DF8030003208DF802006946D648FDF7E8
:10260000F5FD0A20ADF8000010208DF8030003202E
:102610008DF802006946D148FDF7E8FD4FF42070BF
:10262000ADF8000010208DF8030003208DF80200A3
:102630006946CA48FDF7DAFDC020ADF800001C204D
:102640008DF8030003208DF802006946C248FDF7AB
:10265000CDFD08BD10B5FDF7EFFE4FF48030FDF75E
:102660000AFFFDF747FF0446012C2DD10020FDF79E
:102670007FFF0020FDF78CFFA002FDF781FF022005
:10268000FEF7A0F81020FEF7B3F84FF4E011200495
:10269000FDF753FF0120FDF75BFF00BF3920FDF779
:1026A0000DFF0028FAD00220FDF755FF00BFFDF70F
:1026B0005AFF0828FBD10121A948FEF72EF8012175
:1026C00044F21D00FEF71CF810BD2DE9F04F99B043
:1026D0000024002500260027FFF7BCFFFFF731FF8D
:1026E000FFF71EFF00F094FD00F06AFAFFF7FAFE14
:1026F00000F026FC142000F070FA12AB13AACDE90A
:10270000002318AB0EAA14A916A801F0EDFB05468C
:10271000A9B29448FEF70EFCBDF84C0010F4807F7F
:102720007DD00E9803F08FFD80464FF09D4103F061
:1027300095FB8D4908600F9803F085FD80464FF0AA
:102740009D4103F08BFB89490860109803F07BFDE5
:1027500080464FF09D4103F081FB85490860119848
:1027600003F071FD80464FF09D4103F077FB8149F6
:1027700008607D4801684FF0804003F03CFB8346D1
:102780007B480168584603F036FB8146774801686C
:102790004FF0404003F02FFB8346764801685846CF
:1027A00003F029FB8246494603F00EFB804603F006
:1027B000C1FDCDE90A0104F00DF8CDE908016EA0D4
:1027C0000CC8089803F04FFCCDE9060103F0EAFDC0
:1027D0000C90674801684FF0804003F00CFB0390B9
:1027E00063480168039803F006FB82465F4801686E
:1027F0004FF0404003F0FFFA03905C4801680398F3
:1028000003F0F9FA8346514603F0E5FA81464FF0AA
:102810007E5103F0D9FA804603F08CFD00E096E08B
:10282000CDE90A01504801684FF0804003F0E3FA17
:1028300083464E480168584603F0DDFA81464C480D
:1028400001684FF0804003F0D6FA8346494801689A
:10285000584603F0D0FA8246494603F0B5FA80465E
:1028600003F068FDCDE90801DDE90A2304F00CFA64
:10287000CDE9060140A00CC8069803F0F4FBCDE9B1
:10288000040103F08FFD0D903A480168006803F0E1
:10289000B2FA039036480168006803F0ACFA834648
:1028A00032480168006803F0A6FA02902E480168D9
:1028B000006803F0A0FA0190029903F085FA8246BD
:1028C000594603F088FA8146039903F084FA80465A
:1028D00003F030FDCDE90A0126480168224800686E
:1028E00003F089FA8246224801682048006803F014
:1028F00082FA8346514603F067FA81464FF08041E1
:1029000003F079FA804603F015FDCDE90801DDE911
:102910000A2304F0B9F9CDE9060117A00CC80698FE
:1029200003F0A1FBCDE9040103F03CFD044614498A
:102930000C9803F060FA804603F0A6FC05461049A7
:102940000D9803F058FA804603F09EFC06460020DE
:1029500019B017E000080140000C014000100140D0
:1029600001002400003801403C000020400000200D
:1029700044000020480000206666666666A64C405B
:102980000000C842BDE8F08F2DE9F0414FF48051BE
:102990007E48FDF7D5FC022000F043F94FF480514A
:1029A0007A48FDF7CBFC0A2000F03BF94FF4805148
:1029B0007648FDF7C5FC00BF08217448FDF7A4FC6C
:1029C0000028F9D07248046800BF08216F48FDF75D
:1029D0009BFC0128F9D06E480568281B3A2190FB22
:1029E000F1F7381F00EBD07149104E1C032000FB9B
:1029F0000670871E3846BDE8F08110B50446012CEC
:102A000006D0022C16D0032C26D0042C48D135E059
:102A100002216048FDF792FC08215E48FDF790FC1A
:102A200080215C48FDF78AFC4FF400715948FDF79E
:102A300087FC35E002215748FDF782FC0821554804
:102A4000FDF77CFC80215348FDF77AFC4FF40071C0
:102A50005048FDF773FC23E002214E48FDF770FC5F
:102A600008214C48FDF76CFC80214A48FDF768FCC2
:102A70004FF400714748FDF761FC11E00221454821
:102A8000FDF75EFC08214348FDF758FC80214148D2
:102A9000FDF756FC4FF400713E48FDF751FC00BFB6
:102AA00000BF10BD10B5044621463B4800F0E2FBD4
:102AB0000221394800F0F3FB10BD2DE9F04186B04A
:102AC0000024002600273248006803F0BCFB0646BD
:102AD0002946304603F07FF9044600F0CDFA074658
:102AE0002146384603F087F980462C480168404665
:102AF00003F06AF92A49086000F0DDFA074621462A
:102B0000384603F078F9804626480168404603F0CD
:102B10005BF92549086000F0EDFA07462146384682
:102B200003F069F9804621480168404603F04CF9FA
:102B30001F4908601A480168006803F05CF9804684
:102B400003F0F8FBCDE9040104F05AF9CDE90201E4
:102B500018A00CC8029803F056FACDE9000103F062
:102B6000C0FB1649086000F087FA0C49086000F0C5
:102B7000A2FA0C49086000F0BDFA0C49086035461D
:102B80000E48006806B0BDE8F08100000008014072
:102B900000000020001001400048004024000020F8
:102BA0003000002028000020340000202C000020ED
:102BB0003800002000000000000064404C000020AD
:102BC00010B56FF00100FFF7D4F96FF00400FFF7C4
:102BD000B8F90020FFF7CDF910BD10B5044642F258
:102BE000283104FB01F0FFF7C0F90120FFF7C1F91C
:102BF00000BF1020FFF7EFF90028FAD06FF00100B6
:102C0000FFF7B7F90020FFF7B4F910BD10B504467F
:102C100004E04FF47A70FFF7E0FF641E002CF8DC4C
:102C200010BD10B5044604EBC400FFF79EF9012067
:102C3000FFF79FF900BF1020FFF7CDF90028FAD069
:102C40006FF00100FFF795F90020FFF792F910BD32
:102C500070B504460D46164600BF4FF40031B44827
:102C6000FFF783FB0028F8D10121B148FFF790FA64
:102C700000BFB049AE48FFF765FB0128F9D100223B
:102C80002146AB48FFF7DCFA00BFAB49A848FFF785
:102C900059FB0128F9D12946A548FFF7CBFA00BF17
:102CA000A549891CA248FFF74DFB0128F8D1314600
:102CB0009F48FFF7BFFA00BF9F49891C9C48FFF758
:102CC00041FB0128F8D101219948FFF76DFA9B4992
:102CD0009748FFF75FFB01219548FFF765FA70BD44
:102CE00070B504460D4600BF4FF400319048FFF721
:102CF0003CFB0028F8D101218D48FFF749FA00BFBD
:102D00008C498B48FFF71EFB0128F9D10022214690
:102D10008748FFF795FA00BF87498548FFF712FB00
:102D20000128F9D101218248FFF70EFA294680488F
:102D3000FFF780FA00BF8049891C7D48FFF702FB3E
:102D40000128F8D101217A48FFF722FA00BF79491A
:102D50007748FFF7F7FA0128F9D101222146744894
:102D6000FFF76EFA00BF7349491C7148FFF7EAFA92
:102D70000128F8D100216E48FFF722FA01216C48A2
:102D8000FFF712FA00BF6B493F316948FFF7DAFAE3
:102D90000128F8D16648FFF74FFA0646012164483A
:102DA000FFF70EFA304670BD2DE9F04104460F469C
:102DB00090461D46002600BF4FF400315C48FFF7E7
:102DC000D4FA0028F8D101215948FFF7E1F900BFF2
:102DD00058495748FFF7B6FA0128F9D10022214691
:102DE0005348FFF72DFA00BF53495148FFF7AAFA9D
:102DF0000128F9D139464E48FFF71CFA00BF4E4969
:102E0000891C4B48FFF79EFA0128F8D1002604E000
:102E1000A95D4748FFF70EFA761C4645F8DB00BF70
:102E20004549891C4248FFF78DFA0128F8D1012154
:102E30003F48FFF7B9F941493D48FFF7ABFA012197
:102E40003B48FFF7B1F90020BDE8F0812DE9F041E2
:102E500004460D4616461F464FF0000800BF4FF4CB
:102E600000313348FFF781FA0028F8D101213048BA
:102E7000FFF78EF900BF2F492D48FFF763FA0128AD
:102E8000F9D1002221462A48FFF7DAF900BF2A4982
:102E90002748FFF757FA0128F9D101212448FFF705
:102EA00053F929462248FFF7C5F900BF2249891C7A
:102EB0001F48FFF747FA0128F8D101211C48FFF706
:102EC00067F900BF1B491A48FFF73CFA0128F9D1FE
:102ED000012221461648FFF7B3F900BF1549491CE6
:102EE0001348FFF72FFA0128F8D100211048FFF707
:102EF00067F94FF000080EE000BF0E493F310C4863
:102F0000FFF720FA0128F8D10948FFF795F907F8EB
:102F1000080008F10108B045EEDB01210448FFF785
:102F200043F901210248FFF74BF90020BDE8F08189
:102F3000005400400100030082000700000400105C
:102F40001FB50020ADF800004BF6FF70ADF8020091
:102F5000A020ADF804004FF48060ADF80600000139
:102F6000ADF808004CF25030039069469B48FFF7DB
:102F700069F801219948FFF7E7F801219748FFF721
:102F80001FF9C820FFF729FE80226B21D020FFF710
:102F90005FFEC820FFF721FE00226B21D020FFF743
:102FA00057FEC820FFF719FE07221921D020FFF78E
:102FB0004FFE06221A21D020FFF74AFEE0221B21F5
:102FC000D020FFF745FEE0221C21D020FFF740FE75
:102FD000C820FFF702FE1FBD70B586B04121D0208A
:102FE000FFF77EFE04466420FFF7F7FD4221D02064
:102FF000FFF776FE05466420FFF7EFFD05EB0420A2
:1030000006B2304603F02EF9CDE9040174A00CC8D5
:10301000049803F09CF8CDE9020173A00CC8029853
:1030200002F0D9FFCDE9000103F0BCF906B070BD94
:1030300070B504462146D020FFF752FE05026420F9
:10304000FFF7CBFD601CC1B2D020FFF749FE05435E
:103050006420FFF7C2FD284670BD10B53B20FFF786
:10306000E7FF10BD10B53D20FFF7E2FF10BD10B522
:103070003F20FFF7DDFF10BD30B587B03B20FFF7E5
:10308000D7FF054603F0E9F8044603F053F9CDE90C
:10309000040157A00CC8049803F059F8CDE90201C7
:1030A00055A00CC8029802F0DEFFCDE9000103F044
:1030B00079F907B030BD30B587B03D20FFF7B8FFD4
:1030C000054603F0CAF8044603F034F9CDE90401DB
:1030D00047A00CC8049803F03AF8CDE9020148A0D3
:1030E0000CC8029802F0BFFFCDE9000103F05AF9C5
:1030F00007B030BD30B587B03F20FFF799FF0546D8
:1031000003F0ABF8044603F015F9CDE9040138A04B
:103110000CC8049803F01BF8CDE9020138A00CC8D4
:10312000029802F0A0FFCDE9000103F03BF907B0DF
:1031300030BD10B54320FFF77BFF10BD10B5452013
:10314000FFF776FF10BD10B54720FFF771FF10BDE8
:103150007FB54320FFF76CFF054603F07EF8044679
:1031600003F0E8F8CDE9020127A00CC8029802F0AC
:10317000EEFFCDE9000103F015F904B070BD7FB595
:103180004520FFF755FF054603F067F8044603F0B6
:10319000D1F8CDE902011CA00CC8029802F0D7FFBB
:1031A000CDE9000103F0FEF804B070BD7FB5472003
:1031B000FFF73EFF054603F050F8044603F0BAF867
:1031C000CDE9020110A00CC8029802F0C0FFCDE9C1
:1031D000000103F0E7F804B070BD000000540040A7
:1031E0000000000000407540A4703D0AD7434240F3
:1031F000000000000000D0409A99999999992340C5
:10320000B81E85EB51B8234000000000006060400C
:103210001FB54FF4165000900020ADF80400ADF833
:103220000600ADF808000C20ADF80A000020ADF84B
:103230000C0069462748FDF7A6FD01212548FDF74A
:103240000FFE4FF4164000900020ADF80400ADF8DA
:103250000600ADF808000C20ADF80A000020ADF81B
:103260000C0069461C48FDF78EFD01211A48FDF748
:10327000F7FD1FBD70B504460D4600260BE0A95DA5
:103280002046FDF757FE00BF40212046FDF7A9FE6E
:103290000028F9D0761CA85D0028F0D170BD70B56B
:1032A00004460D46002600BF0CE000BF202120464A
:1032B000FDF797FE0028F9D12046FDF73FFE0749AC
:1032C0008855761CAE42F0DB761C002003498855F9
:1032D000084670BD0038014000480040A0000020B2
:1032E00010B5C8234FF48062FF4940F6F63002F073
:1032F000C4F910BD10B586B00446FCA00068039068
:10330000FBA000680290FBA000680190FAA0006892
:10331000009004F0030003A9085C8DF8140003A8D2
:10332000C4F3C101405C8DF8150003A8C4F38111FA
:10333000405C8DF8160004F0030002A9085C8DF8CB
:10334000100002A8C4F3C101405C8DF8110002A86E
:10335000C4F38111405C8DF8120005AA032140F2EC
:10336000264002F0ABF818B14FF0FF3006B010BDA8
:1033700004AA032140F22A4002F0A0F810B14FF055
:10338000FF30F3E7019805900098049014F0040FC3
:103390000BD09DF8140040F001008DF814009DF84A
:1033A000100040F001008DF8100014F0200F0BD039
:1033B0009DF8150040F001008DF815009DF81100F2
:1033C00040F001008DF8110014F4807F0BD09DF8BF
:1033D000160040F001008DF816009DF8120040F034
:1033E00001008DF8120005AA03214FF4886002F055
:1033F00065F810B14FF0FF30B8E704AA032140F29E
:10340000314002F05BF810B14FF0FF30AEE7BB483F
:1034100004810020AAE770B58AB00446B748008945
:1034200000F0030054F820000790B448008910F021
:10343000040F02D0079840420790B0480089C0F3BB
:10344000C10054F820000890AC48008910F0200F0B
:1034500002D0089840420890A8480089C0F3811023
:1034600054F820000990A548008910F4807F02D00C
:103470000998404209900798C11702460B46CDE9CA
:1034800004019FA060C8A2FB051003FB050002FB1E
:103490000600CDE902100846800F039940EA81003A
:1034A0008917CDE9000107900898C11794A3CDE9C9
:1034B00004010CCBA0FB025601FB026100FB0310D0
:1034C000CDE90250A80F039940EA81008917CDE9A0
:1034D000000108900998C11702460B46CDE9040186
:1034E00087A060C8A2FB050103FB051102FB0611C2
:1034F000CDE90201800F40EA81008917CDE9000182
:1035000009900798000E8DF818000798000C8DF8A8
:1035100019000798000A8DF81A000798C0B28DF8B4
:103520001B0006AA04214FF4747001F0C7FF18B104
:103530004FF0FF300AB070BD0898000E8DF81800EB
:103540000898000C8DF819000898000A8DF81A00E8
:103550000898C0B28DF81B0006AA04214FF47570BC
:1035600001F0ACFF10B14FF0FF30E3E70998000E17
:103570008DF818000998000C8DF819000998000AB8
:103580008DF81A000998C0B28DF81B0006AA042114
:103590004FF4767001F092FFCCE770B590B004461E
:1035A00007A801F08AFDBDF81C000021CDE9040147
:1035B000C90341EA5041C203CDE908214F480089BF
:1035C00000F0030054F820000D904C48008910F0E2
:1035D000040F02D00D9840420D9048480089C0F376
:1035E000C10054F820000E904448008910F0200FCC
:1035F00002D00E9840420E9040480089C0F38110DE
:1036000054F820000F903D48008910F4807F02D0CC
:103610000F9840420F900D98C11702460B46CDE916
:103620000401DDE90865A0FB061003FB060002FBB0
:103630000500CDE902100846800F039940EA810099
:103640008917CDE900010D900E98C11702460B466F
:10365000CDE90401DDE90865A0FB060103FB0611C5
:1036600002FB0511CDE90201800F40EA81008917B4
:10367000CDE900010E900F98C11702460B46CDE927
:103680000401DDE90856A0FB050103FB051102FB5F
:103690000611CDE90201800F40EA81008917CDE9CA
:1036A00000010F900D98000E8DF828000D98000C69
:1036B0008DF829000D98000A8DF82A000D98C0B2E7
:1036C0008DF82B000E98000E8DF82C000E98000C33
:1036D0008DF82D000E98000A8DF82E000E98C0B2BD
:1036E0008DF82F000F980FE0686E00084CCD6C002D
:1036F0000CC92C003656760026466600D400002001
:1037000009E3CA0200000000000E8DF830000F9897
:10371000000C8DF831000F98000A8DF832000F98D8
:10372000C0B28DF833000AAA0C214FF4257001F0C5
:10373000C5FE10B070BD30B585B0054602A8FBA12E
:103740001CC91CC0C82D03DD4FF0FF3005B030BDD3
:10375000C82090FBF5F0401E84B2200A8DF80000CE
:10376000E0B28DF801006A46022140F2162001F015
:10377000A5FE10B14FF0FF30E8E702AA0C2140F699
:10378000C12001F09BFE10B14FF0FF30DEE7EA48A8
:1037900085810020DAE70146E7488089088000201B
:1037A00070472DE9FC4704460D4614F0070F02D080
:1037B000B5F5C86F03DD4FF0FF30BDE8FC87284644
:1037C00002F04BFD8146DD4902F048FB06466846A3
:1037D00001F018F99DF80000022806D0042817D03F
:1037E000082828D010284CD138E04FF08D413046C1
:1037F00002F001FB814602F060FD87B2D0493046FD
:1038000002F0F9FA814602F058FD1FFA80F83BE019
:103810004FF08C41304602F0EEFA814602F04DFD49
:1038200087B2C849304602F0E6FA814602F045FD0B
:103830001FFA80F828E04FF08B41304602F0DBFAA7
:10384000814602F03AFD87B2BF49304602F0D3FA12
:10385000814602F032FD1FFA80F815E04FF08A41F0
:10386000304602F0C8FA814602F027FD87B2B74918
:10387000304602F0C0FA814602F01FFD1FFA80F8C0
:1038800002E04FF0FF3098E700BF38128DF80400D7
:10389000F8B28DF805004FEA28208DF8060008F0F0
:1038A000FF008DF8070014F0010F14D001AA0221C7
:1038B0004FF4EA7001F002FE10B14FF0FF307CE7E8
:1038C0000DF1060202214FF4927001F0F7FD10B1E4
:1038D0004FF0FF3071E714F0020F14D001AA02215B
:1038E0004FF4EC7001F0EAFD10B14FF0FF3064E7E7
:1038F0000DF1060202214FF4947001F0DFFD10B1CA
:103900004FF0FF3059E714F0040F14D001AA022140
:103910004FF4EE7001F0D2FD10B14FF0FF304CE7E4
:103920000DF1060202214FF4967001F0C7FD10B1AF
:103930004FF0FF3041E700203FE738B50446002054
:10394000009014F0010F04D09DF8000040F030000A
:10395000009014F0020F04D09DF8000040F00C001D
:10396000009014F0040F04D09DF8000040F0030014
:1039700000906A4601214FF4A47001F09FFD38BD0C
:1039800038B50446012C01DA012402E0042C00DDE4
:103990000424601EC0B200906A46012140F24F101C
:1039A00001F08CFD38BD38B50446052094FBF0F0DD
:1039B00085B228128DF80000E8B28DF801006A4641
:1039C00002214FF4EF7001F079FD38BD38B504469F
:1039D000052094FBF0F085B228128DF80000E8B2C3
:1039E0008DF801006A4602214FF4ED7001F066FD8A
:1039F00038BDF8B504460D464FF47A7094FBF0F0EC
:103A000000FB05F6300E8DF80000300C8DF801003B
:103A1000300A8DF80200F0B28DF803006A460421E6
:103A20004FF4AE7001F04AFDF8BD38B504460520EC
:103A300094FBF0F084B220128DF80000E0B28DF813
:103A400001006A4602214FF4AD7001F037FD38BD28
:103A500038B50446052094FBF0F084B220128DF8AE
:103A60000000E0B28DF801006A4602214FF4AC700C
:103A700001F024FD38BD38B5044614B94FF0FF30CD
:103A800038BD6A4604214FF4587001F054FD10B15E
:103A90004FF0FF30F4E79DF8000000069DF801109C
:103AA00040EA01409DF8021040EA01209DF8031011
:103AB000084320600020E3E738B50446200E8DF867
:103AC0000000200C8DF80100200A8DF80200E0B201
:103AD0008DF803006A4604214FF4587001F0EEFCA3
:103AE00038BD38B5044614B94FF0FF3038BD6A46CA
:103AF00004214FF4717001F01EFD10B14FF0FF3042
:103B0000F4E79DF8000000069DF8011040EA01402E
:103B10009DF8021040EA01209DF80310084300EBD5
:103B20008000800020600020E0E70000FEF2ABC4CF
:103B3000AAF1DFDFBBAFDFDFD40000200000484385
:103B4000000040460000C045000040450000C04461
:103B500038B504461420B4FBF0F4200E8DF80000B4
:103B6000200C8DF80100200A8DF80200E0B28DF8DB
:103B700003006A4604214FF4717001F09FFC38BDC8
:103B800038B5044664B120208DF8000028208DF857
:103B9000010030208DF8020038208DF8030004E089
:103BA000A3220421684602F0B2F86A46042140F6D6
:103BB0009E2001F083FC00F0E5FB38BD38B50446DB
:103BC00064B1C0208DF80000C2208DF80100C4202F
:103BD0008DF80200C6208DF8030004E08B2204213A
:103BE000684602F094F86A46042140F6982001F0F5
:103BF00065FC00F0C7FB38BD3EB5044654B16846CD
:103C0000FAA12CC92CC06A4609214FF4976001F033
:103C100055FC3EBD6846F8A12CC92CC06A46092156
:103C20004FF4976001F04AFCF3E73EB504460220EA
:103C30008DF80000CA208DF80100E3208DF8020005
:103C400009208DF803006A460421682001F036FC43
:103C5000A3208DF8000014F0400F09D0C0208DF88B
:103C60000100C8208DF80200C2208DF8030006E094
:103C7000A3208DF801008DF802008DF8030014F4E4
:103C8000C07F09D0C4208DF80400CC208DF8050039
:103C9000C6208DF8060006E0A3208DF804008DF8FC
:103CA00005008DF80600A3208DF807008DF80800A8
:103CB0008DF809006A460A2140F6A72001F0FEFBB4
:103CC00014F0030F03D020208DF8000002E0D8206C
:103CD0008DF800006A46012140F6B62001F0EEFBA7
:103CE00014F0200F03D00120FFF786FF02E0002030
:103CF000FFF782FF14F4C07F21D014F4807F0CD032
:103D0000B2208DF800008B208DF80100B6208DF8D0
:103D100002009B208DF803000BE0B0208DF800001E
:103D200080208DF80100B4208DF8020090208DF8DD
:103D300003006A46042140F6A22001F0BFFB14F004
:103D4000010F24D0F8208DF800006A4601214FF4BD
:103D50000B6001F0B3FBFA210720FFF722FD0720DB
:103D6000FFF7EBFD0120FFF70BFE6420FFF71BFEC2
:103D70004FF4FA70FFF72AFEC821A248FFF739FE78
:103D80002820FFF752FE0A20FFF762FE08E0D82045
:103D90008DF800006A4601214FF40B6001F08EFBA4
:103DA00014F0020F03D0D9208DF8000002E0D820D3
:103DB0008DF800006A46012140F23D7001F07EFB63
:103DC00014F0040F03D00120FFF7F8FE02E00020FA
:103DD000FFF7F4FE14F0100F03D00120FFF7D0FE20
:103DE00002E00020FFF7CCFE44F00800864948813D
:103DF00000F0C8FA00208449887314F0400F03D003
:103E00000846807B801D887314F4C07F04D07E48F0
:103E1000807B801D7C49887314F0140F04D07A488D
:103E2000807B10307849887314F0030F04D07648F3
:103E3000807B001D7449887300203EBD0146724896
:103E400040890880002070472DE9F0410446E07861
:103E500000F0C006E07800F03F05607810F0010F38
:103E600013D0EF102846E91705EB5171C910A5EBE7
:103E7000C101491C01F0FF086348006820B1624895
:103E8000414602683846904700BF607810F0080F3E
:103E900006D05D48406818B1B0115B4A5168884748
:103EA0000020BDE8F08110B586B0044603A857A1F4
:103EB0000EC90EC0684658A10EC90EC0012C09D00B
:103EC000022C0ED103AA0B2140F6822001F0F6FA53
:103ED00006B010BD6A460B2140F6822001F0EEFAD2
:103EE000F6E74FF0FF30F3E72DE9F04F8DB00446D1
:103EF0000D4616469A46DDE916784FF00009002077
:103F000038804149887B424605A901F059FB20B120
:103F10004FF0FF300DB0BDE8F08F3B48408910F006
:103F2000140F62D09DF8140000069DF8151040EAA9
:103F300001409DF8161040EA01209DF81710084333
:103F400030609DF8180000069DF8191040EA014005
:103F50009DF81A1040EA01209DF81B10084370607C
:103F60009DF81C0000069DF81D1040EA01409DF8D8
:103F70001E1040EA01209DF81F100843B0609DF814
:103F8000200000069DF8211040EA01409DF8221013
:103F900040EA01209DF823100843F06009F1100069
:103FA00000F0FF093068001401907068001402905E
:103FB000B06800140390F068001404900198404326
:103FC000029901FB0100039901FB0100049901FB27
:103FD000010BBBF1706F02DBBBF1885F22DD00F0EB
:103FE000D1F900203880401E94E721E0B8AAB38DB3
:103FF000B4980D355D000000B8AAAAAAB088C3C560
:10400000C700000009E3CA02D4000020D8B1B9F308
:104010008BA391B609B4D900DAB1B9F38BA391B6E9
:10402000DAB4DA00B7F9000040F48070388000BFDD
:104030003748408910F0400F27D005A909F1010049
:10404000095C05AA12F8090041EA002000B22880A4
:1040500005A909F10300095C401E105C41EA00203B
:1040600000B2688005A909F10500095C401E105CDA
:1040700041EA002000B2A88009F1060000F0FF0923
:10408000B7F9000040F0080038802148408910F45A
:10409000C07F27D005A909F10100095C05AA12F823
:1040A000090041EA002000B2208005A909F10300BF
:1040B000095C401E105C41EA002000B2608005A946
:1040C00009F10500095C401E105C41EA002000B2C5
:1040D000A08009F1060000F0FF09B7F9000040F0E8
:1040E000700038800A48408910F0030F04D005A9F9
:1040F00001EB0900FFF7A8FE00200BE7014604488A
:10410000016000207047014601484160002070476F
:10411000D400002038B50446FA48807A10B94FF030
:10412000FF3038BDFA2C09D0B4F5FA7F09D0B4F5C8
:104130007A7F09D0B4F5FA6F0CD108E00020009026
:104140000BE00820009008E01020009005E0182007
:10415000009002E04FF0FF30E3E700BFE948007A4B
:104160009DF80010B0EBE10F01D10020D9E7E54A3E
:1041700012689179E34A526810786B460122FEF783
:1041800013FE10B14FF0FF30CBE79DF80000C010D8
:10419000DC4908720020C4E738B50446D948807A63
:1041A00010B94FF0FF3038BD022C06D0042C07D0D8
:1041B000082C08D0102C0CD108E0002000900BE057
:1041C0000820009008E01020009005E018200090E2
:1041D00002E04FF0FF30E6E700BFCA48407A9DF8A2
:1041E0000010B0EBE10F01D10020DCE7C54A1268F6
:1041F000D179C44A526810786B460122FEF7D4FD8B
:1042000010B14FF0FF30CEE79DF80000C110BD485F
:1042100041720020C7E738B50446BA48807A10B921
:104220004FF0FF3038BDBC2C02DB0120009015E0C0
:10423000622C02DB0220009010E02A2C02DB03201B
:1042400000900BE0142C02DB0420009006E00A2C06
:1042500002DB0520009001E006200090A948C07A0A
:104260009DF80010884201D10020DBE7A54A1268C2
:104270009178A44A526810786B460122FEF794FDAB
:1042800010B14FF0FF30CDE79DF800109D48C1728E
:104290000020C7E738B504469A4890F82300A042AA
:1042A00001D1002038BD14B13020009001E0002081
:1042B00000909448807C20B19DF8000040F00200FE
:1042C0000090904890F8220020B19DF8000040F046
:1042D000800000908B4A1268117D8A4A52681078DB
:1042E0006B460122FEF760FD10B14FF0FF30D9E7B9
:1042F000844880F823400020D4E738B5044681483C
:1043000090F82400C0B114B10220009001E0002018
:1043100000907C4A1268D17B7A4A526810786B46CA
:104320000122FEF741FD10B14FF0FF3038BD9DF87E
:1043300000107448417423E07248807A10B94FF03D
:10434000FF30F3E724B16F48407C08B10020EDE76F
:1043500014B10120009001E000200090694A126829
:10436000D17B684A526810786B460122FEF71CFD2B
:1043700010B14FF0FF30D9E79DF80010614841744B
:104380000020D3E708B55F48807A10B94FF0FF30BE
:1043900008BD002000905B4A1268D17B594A5268E0
:1043A00010786B460122FEF7FFFC10B14FF0FF3092
:1043B000EEE7544A12685179524A526810786B46B7
:1043C0000122FEF7F1FC10B14FF0FF30E0E74D4A5B
:1043D000126811794B4A526810786B460122FEF739
:1043E000E3FC10B14FF0FF30D2E7464890F82400CC
:1043F000002853D00C200090424A12681179414A9B
:10440000526810786B460122FEF7CEFC10B14FF0D7
:10441000FF30BDE73220FEF7E0FBC02000903948B6
:10442000807A10F0010F04D09DF8000040F02000C9
:104430000090344A12681179324A526810786B46FB
:104440000122FEF7B1FC10B14FF0FF30A0E72D487C
:10445000407C10B10220009001E000200090294A29
:104460001268D17B274A526810786B460122FEF70A
:104470009BFC10B14FF0FF308AE700200090214AEA
:10448000126851791F4A526810786B460122FEF774
:104490008BFC002857D04FF0FF3079E704200090C4
:1044A000184A12681179174A526810786B4601222F
:1044B000FEF77AFC10B14FF0FF3069E71148807CBD
:1044C00020B91048807A10F0010F02D140200090EE
:1044D00001E0602000900B4A12681179094A526885
:1044E00010786B460122FEF75FFC10B14FF0FF30F1
:1044F0004EE73220FEF771FB0248407C20B10120DC
:10450000009003E05C00002000200090FF4A126849
:10451000D17BFE4A526810786B460122FEF744FCBC
:1045200010B14FF0FF3033E7F84A12685179F74A7B
:1045300052681078F54B10330122FEF735FC10B1AC
:104540004FF0FF3024E7002022E770B50446002634
:1045500024F00104ED4890F8240008B1002070BD5B
:10456000EA48807A10B94FF0FF30F8E7E748057C59
:10457000817A21400174007CA04202D04FF0FF36C6
:1045800000E0002614B9E148007D18B10120FFF7D2
:10459000B4FE02E00020FFF7B0FE3CB1FFF7F2FEF0
:1045A00020B1DA4805744FF0FF30D8E73046D6E73F
:1045B00038B50446282C02DD4FF0FF3038BDDCB999
:1045C0000020FFF767FE00208DF8000007208DF81F
:1045D0000100CE4A1268917CCC4A526810786B4632
:1045E0000222FEF7E1FB10B14FF0FF30E6E70021B9
:1045F000C64801750020E1E70120FFF74BFE2020AF
:104600008DF80000012C06D100208DF80100052056
:10461000FFF701FE17E0052C06DC01208DF80100F4
:104620000520FFF7F8FD0EE0142C06DC02208DF8C3
:1046300001000A20FFF7EFFD05E003208DF80100DF
:104640001420FFF7E8FD9DF80100072101EB801021
:10465000C0B28DF80100AD4A1268917CAB4A526835
:1046600010786B460222FEF79FFB10B14FF0FF302F
:10467000A4E70821A5488172002101730121017579
:104680000020FFF762FF002098E738B504469F48F6
:10469000807A10B94FF0FF3038BD9C4890F8240064
:1046A00010B14FF0FF30F7E79848007D50B134B1BA
:1046B000282C04DCE0B2FFF77BFF0020ECE70020B1
:1046C000FFF776FF042C01DA042404E0B4F57A7FC6
:1046D00001DD4FF47A744FF47A7090FBF4F0401ED1
:1046E000C0B20090894A12685178884A526810789E
:1046F0006B460122FEF758FB10B14FF0FF30CBE7BD
:104700009DF80000401C4FF47A7191FBF0F081B2EB
:104710007E48C1810146C9894810FFF77CFD002011
:10472000BAE738B504467948807CA04201D1002020
:1047300038BD002C46D0754A12681179734A526808
:1047400010786B460122FEF781FB10B14FF0FF306D
:10475000EEE79DF8000020F0200000906B4A126800
:1047600011796A4A526810786B460122FEF71CFBE9
:1047700010B14FF0FF30DBE70320FEF72EFA0220E6
:104780000090624890F8220020B19DF8000040F0AF
:10479000800000905D4890F8230020B19DF8000053
:1047A00040F030000090594A1268117D574A526813
:1047B00010786B460122FEF7F7FA002851D04FF02F
:1047C000FF30B5E7514A12681179504A52681078A3
:1047D0006B460122FEF73AFB10B14FF0FF30A7E71E
:1047E0004A48807A10F0010F05D09DF8000040F093
:1047F0002000009004E09DF8000020F020000090D0
:10480000424A12681179414A526810786B46012277
:10481000FEF7CAFA10B14FF0FF3089E70320FEF728
:10482000DCF93A4890F8220010B18020009001E0B5
:1048300000200090354890F8230020B19DF800003A
:1048400040F030000090314A1268117D2F4A5268C2
:1048500010786B460122FEF7A7FA10B14FF0FF3037
:1048600066E72A488474002062E738B5044614F0ED
:10487000700F02D00120009005E014B100200090DC
:1048800001E040200090214A1268917C1F4A526842
:1048900010786B460122FEF787FA20B100211B48F1
:1048A0008172481E38BD9DF8000020F04001174875
:1048B00001730020009014F0400F04D19DF8000017
:1048C00040F00400009014F0200F04D19DF8000087
:1048D00040F00200009014F0100F04D19DF8000089
:1048E00040F00100009014F0080F04D19DF8000082
:1048F00040F038000090054A1268D17C034A5268A3
:1049000010786B460122FEF74FFA01E05C000020B0
:1049100020B10021FA488172481EC3E724B1082C57
:1049200002D00020FFF7B6FCF54884720021017523
:104930003220FEF752F90020B4E738B50446F048BB
:1049400090F82400A04201D1002038BD24B3EC48E7
:1049500090F8250010B94FF0FF30F6E70020FFF780
:10496000CCFC0020FFF7DDFEE549C88CFFF78DFE8B
:1049700000200090E249496808786B460122232113
:10498000FEF712FA0121DE4880F824100120FFF71B
:10499000B4FCFFF7F7FC13E00020FFF7AEFCD848AB
:1049A000007C0090D649496808786B460122232193
:1049B000FEF7FAF90021D24880F82410FFF7E2FC54
:1049C0000020C2E70146CE48007A30B1012807D066
:1049D000022809D003280FD10AE0FA2008800EE04F
:1049E0004FF4FA7008800AE04FF47A70088006E00D
:1049F0004FF4FA60088002E00020088000BF00BF8A
:104A0000002070470146BE48407A30B1012807D0E7
:104A1000022808D003280CD108E0022008700BE01F
:104A20000420087008E00820087005E010200870D5
:104A300002E04FF0FF30704700BFB148C07C18B1B2
:104A400008784006000E08700020F4E70146AC48E4
:104A5000C07A082817D2DFE800F01704070A0D1003
:104A60001318BC20088013E06220088010E02A2080
:104A700008800DE0142008800AE00A20088007E082
:104A80000520088004E000BF00BF0020088000BFB0
:104A900000BF002070470146994890F8240010B1EB
:104AA0004FF0FF3070479648C08908800020F9E732
:104AB00001469348007C0870002070472DE9F04FB4
:104AC0008FB004460D46164601208DF830000020B8
:104AD0008DF831008A4A1268917C894A52681078B0
:104AE0000CAB0222FEF760F920B14FF0FF300FB09F
:104AF000BDE8F08FC820FEF770F800208DF8300078
:104B00007F4A1268D17B7E4A526810780CAB012232
:104B1000FEF74AF910B14FF0FF30E8E7784A126823
:104B20005179774A526810780CAB0122FEF73CF9B4
:104B300010B14FF0FF30DAE7714A1268917C704A89
:104B4000526810780CAB0122FEF72EF910B14FF02D
:104B5000FF30CCE76A4A1268D17D694A5268107802
:104B60000CAB0122FEF720F910B14FF0FF30BEE789
:104B7000634A12681179624A526810780CAB0122BC
:104B8000FEF712F910B14FF0FF30B0E70C208DF8AE
:104B900030005B4A12681179594A526810780CABA0
:104BA0000122FEF701F910B14FF0FF309FE70F200F
:104BB000FEF713F85248806A407A8DF83000504A68
:104BC000126891784E4A526810780CAB0122FEF7B9
:104BD000EBF810B14FF0FF3089E74948806A007A5E
:104BE0008DF83000464A12685178454A526810786C
:104BF0000CAB0122FEF7D8F810B14FF0FF3076E78A
:104C00003EB13F48806A807A40F0E0008DF8300085
:104C100004E03B48806A807A8DF83000384A126898
:104C20009179374A526810780CAB0122FEF7BCF834
:104C300010B14FF0FF305AE73EB13148806AC07A78
:104C400040F0E0008DF8300003E02E48C07A8DF887
:104C500030002B4A1268D179294A526810780CAB7F
:104C60000122FEF7A1F810B14FF0FF303FE716B177
:104C7000C820FDF7B2FF40208DF83000204A1268AE
:104C800011791F4A526810780CAB0122FEF78CF89C
:104C900010B14FF0FF302AE778208DF83000184A25
:104CA00012685179164A526810780CAB0122FEF74F
:104CB0007BF810B14FF0FF3019E712498889FDF7F2
:104CC0008CFF00208DF830000D4A126851790C4A93
:104CD000526810780CAB0122FEF766F810B14FF065
:104CE000FF3004E7064A1268917A054A5268107844
:104CF0000CAB0222FEF7AAF830B14FF0FF30F6E617
:104D00005C000020887A00089DF831009DF8301082
:104D100040EA01290C2099FBF0F0C7B20020A06006
:104D200060602060A86068602860804665E0FC4A9A
:104D30001268D17AFA4A526810780CAB0C22FEF74E
:104D400085F810B14FF0FF30D1E69DF831009DF8A5
:104D5000301040EA012000B2ADF828009DF8330081
:104D60009DF8321040EA012000B2ADF82A009DF80B
:104D700035009DF8341040EA012000B2ADF82C0057
:104D8000BDF92810286808442860BDF92A10686811
:104D900008446860BDF92C10A8680844A8609DF814
:104DA00037009DF8361040EA012000B2ADF820002F
:104DB0009DF839009DF8381040EA012000B2ADF8A6
:104DC00022009DF83B009DF83A1040EA012000B215
:104DD000ADF82400BDF92010206808442060BDF91A
:104DE0002210606808446060BDF92410A06808447F
:104DF000A06008F1010000F0FF08B84597DB2068CB
:104E0000C117CDE9060101460798000440EA1140A8
:104E10000904CDE90410C348D0F800B000200346CF
:104E20005A46CDE908B0DDE9040100F03BFFBA467F
:104E3000CDE90201002003463A46CDE90A70029806
:104E400000F030FFCDE9000120606068C117CDE9B6
:104E5000060101460798000440EA11400904CDE923
:104E60000410B048D0F800B0002003465A46CDE9FF
:104E700008B0DDE9040100F015FFCDE902010020D2
:104E800003463A46CDE90A70029800F00BFFCDE9DF
:104E900000016060A068C117CDE9060101460798CE
:104EA000000440EA11400904CDE904109D48D0F8FF
:104EB00000B0002003465A46CDE908B0DDE9040100
:104EC00000F0F0FECDE90201002003463A46CDE9AC
:104ED0000A70029800F0E6FECDE90001A0602868A3
:104EE000C117CDE9060101460798000440EA1140C8
:104EF0000904CDE904108B48D0F804B00020034623
:104F00005A46CDE908B0DDE9040100F0CBFECDE959
:104F10000201002003463A46CDE90A70029800F0EB
:104F2000C1FECDE9000128606868C117CDE906011E
:104F300001460798000440EA11400904CDE9041035
:104F40007848D0F804B0002003465A46CDE908B0AE
:104F5000DDE9040100F0A6FECDE9020100200346D0
:104F60003A46CDE90A70029800F09CFECDE90001B6
:104F70006860A868C117CDE90601014607980004DA
:104F800040EA11400904CDE904106648D0F804B0A5
:104F9000002003465A46CDE908B0DDE9040100F0DF
:104FA00081FECDE90201002003463A46CDE90A70B0
:104FB000029800F077FECDE90001A860A8680028FB
:104FC00004DDA868A0F58030A86003E0A86800F5BB
:104FD0008030A86000208AE57CB5044650494968C5
:104FE000087801AB04220D21FDF730FF08B107203E
:104FF0007CBD9DF80700C0F301109DF8041001F07E
:10500000E00140EAE1008DF800009DF80700C0F3E0
:1050100081009DF8051001F0E00140EAE1008DF803
:1050200001009DF8070000F003009DF8061001F054
:10503000E00140EAE1008DF8020000251CE01DF8C7
:10504000050018B9002044F8250013E0364844F85C
:10505000250006E054F82500344900F0CCFE44F861
:1050600025001DF80500401E10F0FF000DF805009A
:10507000F0D100BF681CC5B2032DE0DB0020B7E70C
:1050800001462748007A30B1012807D0022808D00D
:1050900003280CD108E0264808600BE0254808608A
:1050A00008E02548086005E02448086002E04FF069
:1050B000FF30704700BF0020FBE701461848407AE8
:1050C00030B1012808D002280AD0032810D10BE003
:1050D0004FF4804008800EE041F69C7008800AE0A2
:1050E0004FF48050088006E04FF40060088002E032
:1050F0004FF0FF30704700BF0948C07C10B10888EE
:10510000401008800020F5E72DE9F04F89B00446F3
:105110000D46002706A8FFF75FFF00265FE00000AE
:105120005C000020887A00087B14AE3E1D5A843F44
:10513000000003430000834233330342333383418F
:1051400054F8260055F82610B0EB010A01D4514658
:1051500001E0CAF10001084601F075F883464FF0FE
:105160008F4100F07BFE804606A951F82600002101
:1051700001F036F923D006A850F82610404600F07A
:105180006DFE82464FF07E5100F025FE8146F949C2
:10519000486A01F0CFF8CDE90401484601F0CAF8A9
:1051A000CDE9020121F00041CDE90001DDE9042350
:1051B00001F0D2F812D20120B04007430EE0ED48D2
:1051C000C169404601F00CF905D3EA48016A40463E
:1051D00001F010F902D20120B0400743761C032EE3
:1051E000AEDB384609B0BDE8F08F2DE9F04F87B04F
:1051F00004460D460027E0494968087806AB0322BB
:105200000D21FDF723FE18B1072007B0BDE8F08F90
:105210009DF8180000F01F008DF818009DF8190087
:1052200000F01F008DF819009DF81A0000F01F0013
:105230008DF81A00002661E054F8260055F8261073
:10524000B0EB010B01D4594601E0CBF10001084657
:1052500000F0F9FF4FF08F41059000F0FFFD81460F
:1052600006A8805D002839D0C249086800F0F5FF23
:1052700083460146C14800F0F1FD804604E0C04984
:10528000404600F0B8FD804606A8805D401E10F044
:10529000FF0006A98855F2D14146484600F0DEFDE0
:1052A00083464FF07E5100F096FD8246B1498869F1
:1052B00001F040F8CDE90401504601F03BF8CDE99A
:1052C000020121F00041CDE90001DDE9042301F0F4
:1052D00043F812D20120B04007430EE0A54801690F
:1052E000484601F07DF805D3A2484169484601F0DF
:1052F00081F802D20120B0400743761C032E9BDBCD
:10530000384682E72DE9F04F8DB004460D46022065
:105310000C90994890F8240028B10020FFF70DFB6D
:105320004FF0010B01E04FF0000B03A8FFF74AFB21
:1053300005A8FFF767FB01A8FFF788FB02A8FFF7A6
:10534000AAFB8D4890F80AA004A8FFF7B1FB4FF024
:10535000000808E0002229462046FFF7AFFB00B90D
:1053600004E008F10108B8F1020FF3DB00BFB8F167
:10537000020F02D14FF0000928E04FF0000808E0CA
:10538000012206A909A8FFF799FB00B904E008F17A
:105390000108B8F1020FF3DB00BFB8F1020F02D130
:1053A0004FF0000912E006A92846FFF7ADFEC6B28D
:1053B00009A92046FFF719FFC7B24FF000090FB93E
:1053C00049F001090EB949F0020900BFFF206A49FE
:1053D0000872FF2168484172C1724FF6FF71C181A6
:1053E000FF218172017401210173BDF80C00FEF7E9
:1053F00091FE9DF81400FEF7CFFEBDF80400FEF705
:105400000AFFBDF80800FFF740F95046FFF72DFAF4
:105410009DF81000FFF799F8BBF1000F02D00120B2
:10542000FFF78BFA48460DB0BDE8F08F70B588B035
:1054300002A905A8FFF766FF0446032C3CD101A88A
:10544000FFF71EFE059800F0FEFE0646019900F0EB
:10545000D2FC054600F018FF0590069800F0F3FE18
:105460000646019900F0C7FC054600F00DFF0690C6
:10547000079800F0E8FE0646019900F0BCFC0546DE
:1054800000F002FF079005A8FDF7C5FF6846FFF78B
:1054900014FEBDF80010029848430290BDF80010B9
:1054A000039848430390BDF80010049848430490C3
:1054B00002A8FEF772F800BF08B070BDF8B5044648
:1054C0000D46164616B94FF0FF30F8BD2A48807ACF
:1054D00010B94FF0FF30F8E720128DF80000E0B26D
:1054E0008DF801009DF80100284423494968498945
:1054F000884202DD4FF0FF30E7E71F4A1268117E55
:105500001D4A526810786B460222FDF74DFC10B11F
:105510004FF0FF30D9E7184A1268517D164A526899
:1055200010783346EAB2FDF73FFC10B14FF0FF3080
:10553000CBE70020C9E7F8B504460D46164616B974
:105540004FF0FF30F8BD0C48807A10B94FF0FF30B3
:10555000F8E720128DF80000E0B28DF801009DF808
:105560000100284404494968498988420ADD4FF00E
:10557000FF30E7E7887A00085C00002000B04C4567
:1055800054E3853FF94A1268117EF84A5268107850
:105590006B460222FDF708FC10B14FF0FF30D1E757
:1055A000F24A1268517DF14A526810783346EAB2E5
:1055B000FDF74CFC10B14FF0FF30C3E70020C1E70E
:1055C000F8B504460D461646E84890F8240010B990
:1055D0004FF0FF30F8BDE548807A10B94FF0FF304A
:1055E000F8E7E24A1268917AE04A526810786B460E
:1055F0000222FDF72BFC10B14FF0FF30EAE79DF8D7
:1056000001009DF8001040EA0127A74203DA0020BC
:105610003070401EDEE7D54840684088B7EB600F29
:1056200017DDD24A1268517CD04A526810786B4616
:105630000122FDF70BFC10B14FF0FF30CAE79DF8D7
:10564000000010F0100F04D0FEF79CFE6FF0010078
:10565000C0E7C64A1268D17AC44A526810782B460D
:10566000E2B2FDF7F3FB10B14FF0FF30B2E797FB6A
:10567000F4F0401E30700020ACE72DE9F04385B017
:1056800004460D4616461F46B84890F8250020B13E
:105690004FF0FF3005B0BDE8F08315B94FF0FF3093
:1056A000F8E74FF000082AE0A4EB0800102801DD1D
:1056B000102001E0A4EB08001FFA80F905EB0802B6
:1056C00049464046FFF7FAFE10B14FF0FF30E1E7E0
:1056D00001AA49464046FFF72EFF10B14FF0FF30B8
:1056E000D8E705EB08004A4601A900F023FB10B1FA
:1056F0006FF00100CEE708EB09001FFA80F8A04523
:10570000D2DB30128DF80000F0B28DF80100974A1C
:105710001268917E954A526810786B460222FDF716
:1057200043FB10B14FF0FF30B4E701218F4880F800
:105730002510C7840020ADE7014691F90020002A1A
:1057400001DD00201EE091F90020002A01DA04208A
:1057500018E091F90120002A01DD012012E091F901
:105760000120002A01DA05200CE091F90220002A2C
:1057700001DD022006E091F90220002A01DA06206C
:1057800000E00720704770B504462046FFF7D4FFBD
:105790000546E01CFFF7D0FF45EAC00085B2A01D1A
:1057A000FFF7CAFF45EA801085B2284670BD1CB5D8
:1057B0006E4A126811786D4A526810786B46012261
:1057C000FDF744FB08B101201CBD9DF800006828CE
:1057D00001D00220F8E780208DF80000634A1268AB
:1057E000917C624A526810786B460122FDF7DCFA20
:1057F00008B10320E8E76420FDF7EFF900208DF8F9
:1058000000005A4A1268917C584A526810786B46D8
:105810000122FDF7C9FA08B10420D5E7534A1268FE
:10582000917D524A526810786B460622FDF70EFBB6
:1058300008B10520C8E79DF80500C007400F9DF896
:10584000031001F0010140EA41009DF8011001F050
:10585000010140EA01046CB1012C03D1012143484C
:10586000C17424E0022C03D100214048C1741EE021
:105870000620A9E73D4A1268D1783C4A5268107860
:105880006B460122FDF7E2FA08B107209CE79DF87C
:10589000000000F00F040CB9052095E7042C03D19B
:1058A00001213248C17402E000213048C174FF2157
:1058B0002E488172FF202D490872FF212B4841722A
:1058C000C1724FF6FF71C181FF2101748174012102
:1058D000017380F82210002180F8231041750175B2
:1058E0000C21163000F01AFA0021204880F824100C
:1058F00080F82510C1844FF4FA60FEF70BFC08B164
:10590000102061E70220FEF747FC08B111205BE799
:105910002A20FEF780FC08B1122055E73220FEF75E
:10592000B4FE08B113204FE70020FEF70EFE08B1C9
:10593000142049E70020FEF7F4FE08B1152043E7E4
:105940000020FEF792FF00203EE710B5FFF72FFF83
:1059500007A10E48FDF78EFC7820FEF786FF20B9E0
:105960000BA10A48FDF786FC24E01FE05C00002044
:10597000502D312C46696E69736820444D50206467
:10598000657669636520696E69742E000038014090
:10599000502D322C46696E69736820444D50207337
:1059A00065742073656E736F722E000038A13F48D6
:1059B000FDF760FC7820FEF7C8FD20B93CA13B480C
:1059C000FDF758FC03E042A13848FDF753FC642082
:1059D000FEF75BFE20B946A13448FDF74BFC03E01F
:1059E0004BA13248FDF746FCFDF77AFC20B950A1E7
:1059F0002E48FDF73FFC03E058A12C48FDF73AFC88
:105A00006148FFF7C0FE0446FDF774FC20B95FA1B2
:105A10002648FDF72FFC03E064A12448FDF72AFC8B
:105A200040F27310FEF701F920B968A11F48FDF795
:105A300021FC03E06DA11D48FDF71CFC6420FDF76F
:105A40007AFE20B971A11948FDF714FC03E077A193
:105A50001648FDF70FFCFFF7E9FC0120FEF76DFF8C
:105A600020B97AA11148FDF705FC03E07FA10F489A
:105A7000FDF700FC002010BD1CB5844B844ACDE925
:105A80000023844B844A85498548FEF72DFA1CBDC6
:105A9000502D322C444D50207365742073656E7305
:105AA0006F72206572726F722E0000000038014024
:105AB000502D332C46696E69736820444D50206325
:105AC0006F6E666967757265206669666F2E000085
:105AD000502D332C444D5020636F6E66696775728C
